{
	"contracts/Vendor.sol": {
		"Vendor": {
			"abi": [
				{
					"inputs": [],
					"name": "pay",
					"outputs": [
						{
							"internalType": "uint256",
							"name": "",
							"type": "uint256"
						}
					],
					"stateMutability": "view",
					"type": "function"
				},
				{
					"inputs": [],
					"name": "receive_payment",
					"outputs": [],
					"stateMutability": "payable",
					"type": "function"
				},
				{
					"inputs": [],
					"name": "redeem",
					"outputs": [],
					"stateMutability": "nonpayable",
					"type": "function"
				},
				{
					"inputs": [],
					"name": "vendor_balance",
					"outputs": [
						{
							"internalType": "uint256",
							"name": "",
							"type": "uint256"
						}
					],
					"stateMutability": "view",
					"type": "function"
				},
				{
					"inputs": [
						{
							"internalType": "address",
							"name": "vp",
							"type": "address"
						}
					],
					"name": "vp_address",
					"outputs": [],
					"stateMutability": "nonpayable",
					"type": "function"
				},
				{
					"inputs": [
						{
							"internalType": "uint256",
							"name": "",
							"type": "uint256"
						}
					],
					"name": "vp_array",
					"outputs": [
						{
							"internalType": "address",
							"name": "",
							"type": "address"
						}
					],
					"stateMutability": "view",
					"type": "function"
				}
			],
			"devdoc": {
				"kind": "dev",
				"methods": {},
				"version": 1
			},
			"evm": {
				"assembly": "    /* \"contracts/Vendor.sol\":62:758  contract Vendor {\r... */\n  mstore(0x40, 0x80)\n  callvalue\n  dup1\n  iszero\n  tag_1\n  jumpi\n  0x00\n  dup1\n  revert\ntag_1:\n  pop\n  dataSize(sub_0)\n  dup1\n  dataOffset(sub_0)\n  0x00\n  codecopy\n  0x00\n  return\nstop\n\nsub_0: assembly {\n        /* \"contracts/Vendor.sol\":62:758  contract Vendor {\r... */\n      mstore(0x40, 0x80)\n      jumpi(tag_1, lt(calldatasize, 0x04))\n      shr(0xe0, calldataload(0x00))\n      dup1\n      0x134d866f\n      eq\n      tag_2\n      jumpi\n      dup1\n      0x1b9265b8\n      eq\n      tag_3\n      jumpi\n      dup1\n      0x441b053c\n      eq\n      tag_4\n      jumpi\n      dup1\n      0x87bb999f\n      eq\n      tag_5\n      jumpi\n      dup1\n      0xbe040fb0\n      eq\n      tag_6\n      jumpi\n      dup1\n      0xc870fbad\n      eq\n      tag_7\n      jumpi\n    tag_1:\n      0x00\n      dup1\n      revert\n        /* \"contracts/Vendor.sol\":182:257  function vp_address(address vp) public {\r... */\n    tag_2:\n      callvalue\n      dup1\n      iszero\n      tag_8\n      jumpi\n      0x00\n      dup1\n      revert\n    tag_8:\n      pop\n      tag_9\n      0x04\n      dup1\n      calldatasize\n      sub\n      dup2\n      add\n      swap1\n      tag_10\n      swap2\n      swap1\n      tag_11\n      jump\t// in\n    tag_10:\n      tag_12\n      jump\t// in\n    tag_9:\n      stop\n        /* \"contracts/Vendor.sol\":119:137  uint256 public pay */\n    tag_3:\n      callvalue\n      dup1\n      iszero\n      tag_13\n      jumpi\n      0x00\n      dup1\n      revert\n    tag_13:\n      pop\n      tag_14\n      tag_15\n      jump\t// in\n    tag_14:\n      mload(0x40)\n      tag_16\n      swap2\n      swap1\n      tag_17\n      jump\t// in\n    tag_16:\n      mload(0x40)\n      dup1\n      swap2\n      sub\n      swap1\n      return\n        /* \"contracts/Vendor.sol\":144:173  uint256 public vendor_balance */\n    tag_4:\n      callvalue\n      dup1\n      iszero\n      tag_18\n      jumpi\n      0x00\n      dup1\n      revert\n    tag_18:\n      pop\n      tag_19\n      tag_20\n      jump\t// in\n    tag_19:\n      mload(0x40)\n      tag_21\n      swap2\n      swap1\n      tag_17\n      jump\t// in\n    tag_21:\n      mload(0x40)\n      dup1\n      swap2\n      sub\n      swap1\n      return\n        /* \"contracts/Vendor.sol\":265:700  function receive_payment() public payable{\r... */\n    tag_5:\n      tag_22\n      tag_23\n      jump\t// in\n    tag_22:\n      stop\n        /* \"contracts/Vendor.sol\":712:755  function redeem() public {\r... */\n    tag_6:\n      callvalue\n      dup1\n      iszero\n      tag_24\n      jumpi\n      0x00\n      dup1\n      revert\n    tag_24:\n      pop\n      tag_25\n      tag_26\n      jump\t// in\n    tag_25:\n      stop\n        /* \"contracts/Vendor.sol\":87:112  address[] public vp_array */\n    tag_7:\n      callvalue\n      dup1\n      iszero\n      tag_27\n      jumpi\n      0x00\n      dup1\n      revert\n    tag_27:\n      pop\n      tag_28\n      0x04\n      dup1\n      calldatasize\n      sub\n      dup2\n      add\n      swap1\n      tag_29\n      swap2\n      swap1\n      tag_30\n      jump\t// in\n    tag_29:\n      tag_31\n      jump\t// in\n    tag_28:\n      mload(0x40)\n      tag_32\n      swap2\n      swap1\n      tag_33\n      jump\t// in\n    tag_32:\n      mload(0x40)\n      dup1\n      swap2\n      sub\n      swap1\n      return\n        /* \"contracts/Vendor.sol\":182:257  function vp_address(address vp) public {\r... */\n    tag_12:\n        /* \"contracts/Vendor.sol\":232:240  vp_array */\n      0x00\n        /* \"contracts/Vendor.sol\":246:248  vp */\n      dup2\n        /* \"contracts/Vendor.sol\":232:249  vp_array.push(vp) */\n      swap1\n      dup1\n      0x01\n      dup2\n      sload\n      add\n      dup1\n      dup3\n      sstore\n      dup1\n      swap2\n      pop\n      pop\n      0x01\n      swap1\n      sub\n      swap1\n      0x00\n      mstore\n      keccak256(0x00, 0x20)\n      add\n      0x00\n      swap1\n      swap2\n      swap1\n      swap2\n      swap1\n      swap2\n      0x0100\n      exp\n      dup2\n      sload\n      dup2\n      0xffffffffffffffffffffffffffffffffffffffff\n      mul\n      not\n      and\n      swap1\n      dup4\n      0xffffffffffffffffffffffffffffffffffffffff\n      and\n      mul\n      or\n      swap1\n      sstore\n      pop\n        /* \"contracts/Vendor.sol\":182:257  function vp_address(address vp) public {\r... */\n      pop\n      jump\t// out\n        /* \"contracts/Vendor.sol\":119:137  uint256 public pay */\n    tag_15:\n      sload(0x01)\n      dup2\n      jump\t// out\n        /* \"contracts/Vendor.sol\":144:173  uint256 public vendor_balance */\n    tag_20:\n      sload(0x02)\n      dup2\n      jump\t// out\n        /* \"contracts/Vendor.sol\":265:700  function receive_payment() public payable{\r... */\n    tag_23:\n        /* \"contracts/Vendor.sol\":331:337  uint i */\n      0x00\n        /* \"contracts/Vendor.sol\":327:577  for(uint i=0 ; i < vp_array.length ; i++){\r... */\n    tag_37:\n        /* \"contracts/Vendor.sol\":346:354  vp_array */\n      0x00\n        /* \"contracts/Vendor.sol\":346:361  vp_array.length */\n      dup1\n      sload\n      swap1\n      pop\n        /* \"contracts/Vendor.sol\":342:343  i */\n      dup2\n        /* \"contracts/Vendor.sol\":342:361  i < vp_array.length */\n      lt\n        /* \"contracts/Vendor.sol\":327:577  for(uint i=0 ; i < vp_array.length ; i++){\r... */\n      iszero\n      tag_38\n      jumpi\n        /* \"contracts/Vendor.sol\":403:411  vp_array */\n      0x00\n        /* \"contracts/Vendor.sol\":412:413  i */\n      dup2\n        /* \"contracts/Vendor.sol\":403:414  vp_array[i] */\n      dup2\n      sload\n      dup2\n      lt\n      tag_40\n      jumpi\n      tag_41\n      tag_42\n      jump\t// in\n    tag_41:\n    tag_40:\n      swap1\n      0x00\n      mstore\n      keccak256(0x00, 0x20)\n      add\n      0x00\n      swap1\n      sload\n      swap1\n      0x0100\n      exp\n      swap1\n      div\n      0xffffffffffffffffffffffffffffffffffffffff\n      and\n        /* \"contracts/Vendor.sol\":391:414  msg.sender!=vp_array[i] */\n      0xffffffffffffffffffffffffffffffffffffffff\n      and\n        /* \"contracts/Vendor.sol\":391:401  msg.sender */\n      caller\n        /* \"contracts/Vendor.sol\":391:414  msg.sender!=vp_array[i] */\n      0xffffffffffffffffffffffffffffffffffffffff\n      and\n      eq\n      iszero\n        /* \"contracts/Vendor.sol\":383:451  require(msg.sender!=vp_array[i], \"Oh Sorry! Vp's cann't use tokens\") */\n      tag_44\n      jumpi\n      mload(0x40)\n      0x08c379a000000000000000000000000000000000000000000000000000000000\n      dup2\n      mstore\n      0x04\n      add\n      tag_45\n      swap1\n      tag_46\n      jump\t// in\n    tag_45:\n      mload(0x40)\n      dup1\n      swap2\n      sub\n      swap1\n      revert\n    tag_44:\n        /* \"contracts/Vendor.sol\":364:367  i++ */\n      dup1\n      dup1\n      tag_47\n      swap1\n      tag_48\n      jump\t// in\n    tag_47:\n      swap2\n      pop\n      pop\n        /* \"contracts/Vendor.sol\":327:577  for(uint i=0 ; i < vp_array.length ; i++){\r... */\n      jump(tag_37)\n    tag_38:\n      pop\n        /* \"contracts/Vendor.sol\":593:602  msg.value */\n      callvalue\n        /* \"contracts/Vendor.sol\":589:592  pay */\n      0x01\n        /* \"contracts/Vendor.sol\":589:602  pay=msg.value */\n      dup2\n      swap1\n      sstore\n      pop\n        /* \"contracts/Vendor.sol\":646:649  pay */\n      sload(0x01)\n        /* \"contracts/Vendor.sol\":629:643  vendor_balance */\n      sload(0x02)\n        /* \"contracts/Vendor.sol\":629:649  vendor_balance + pay */\n      tag_49\n      swap2\n      swap1\n      tag_50\n      jump\t// in\n    tag_49:\n        /* \"contracts/Vendor.sol\":613:627  vendor_balance */\n      0x02\n        /* \"contracts/Vendor.sol\":613:649  vendor_balance= vendor_balance + pay */\n      dup2\n      swap1\n      sstore\n      pop\n        /* \"contracts/Vendor.sol\":265:700  function receive_payment() public payable{\r... */\n      jump\t// out\n        /* \"contracts/Vendor.sol\":712:755  function redeem() public {\r... */\n    tag_26:\n      jump\t// out\n        /* \"contracts/Vendor.sol\":87:112  address[] public vp_array */\n    tag_31:\n      0x00\n      dup2\n      dup2\n      sload\n      dup2\n      lt\n      tag_52\n      jumpi\n      0x00\n      dup1\n      revert\n    tag_52:\n      swap1\n      0x00\n      mstore\n      keccak256(0x00, 0x20)\n      add\n      0x00\n      swap2\n      pop\n      sload\n      swap1\n      0x0100\n      exp\n      swap1\n      div\n      0xffffffffffffffffffffffffffffffffffffffff\n      and\n      dup2\n      jump\t// out\n        /* \"#utility.yul\":7:146   */\n    tag_55:\n        /* \"#utility.yul\":53:58   */\n      0x00\n        /* \"#utility.yul\":91:97   */\n      dup2\n        /* \"#utility.yul\":78:98   */\n      calldataload\n        /* \"#utility.yul\":69:98   */\n      swap1\n      pop\n        /* \"#utility.yul\":107:140   */\n      tag_57\n        /* \"#utility.yul\":134:139   */\n      dup2\n        /* \"#utility.yul\":107:140   */\n      tag_58\n      jump\t// in\n    tag_57:\n        /* \"#utility.yul\":7:146   */\n      swap3\n      swap2\n      pop\n      pop\n      jump\t// out\n        /* \"#utility.yul\":152:291   */\n    tag_59:\n        /* \"#utility.yul\":198:203   */\n      0x00\n        /* \"#utility.yul\":236:242   */\n      dup2\n        /* \"#utility.yul\":223:243   */\n      calldataload\n        /* \"#utility.yul\":214:243   */\n      swap1\n      pop\n        /* \"#utility.yul\":252:285   */\n      tag_61\n        /* \"#utility.yul\":279:284   */\n      dup2\n        /* \"#utility.yul\":252:285   */\n      tag_62\n      jump\t// in\n    tag_61:\n        /* \"#utility.yul\":152:291   */\n      swap3\n      swap2\n      pop\n      pop\n      jump\t// out\n        /* \"#utility.yul\":297:626   */\n    tag_11:\n        /* \"#utility.yul\":356:362   */\n      0x00\n        /* \"#utility.yul\":405:407   */\n      0x20\n        /* \"#utility.yul\":393:402   */\n      dup3\n        /* \"#utility.yul\":384:391   */\n      dup5\n        /* \"#utility.yul\":380:403   */\n      sub\n        /* \"#utility.yul\":376:408   */\n      slt\n        /* \"#utility.yul\":373:492   */\n      iszero\n      tag_64\n      jumpi\n        /* \"#utility.yul\":411:490   */\n      tag_65\n      tag_66\n      jump\t// in\n    tag_65:\n        /* \"#utility.yul\":373:492   */\n    tag_64:\n        /* \"#utility.yul\":531:532   */\n      0x00\n        /* \"#utility.yul\":556:609   */\n      tag_67\n        /* \"#utility.yul\":601:608   */\n      dup5\n        /* \"#utility.yul\":592:598   */\n      dup3\n        /* \"#utility.yul\":581:590   */\n      dup6\n        /* \"#utility.yul\":577:599   */\n      add\n        /* \"#utility.yul\":556:609   */\n      tag_55\n      jump\t// in\n    tag_67:\n        /* \"#utility.yul\":546:609   */\n      swap2\n      pop\n        /* \"#utility.yul\":502:619   */\n      pop\n        /* \"#utility.yul\":297:626   */\n      swap3\n      swap2\n      pop\n      pop\n      jump\t// out\n        /* \"#utility.yul\":632:961   */\n    tag_30:\n        /* \"#utility.yul\":691:697   */\n      0x00\n        /* \"#utility.yul\":740:742   */\n      0x20\n        /* \"#utility.yul\":728:737   */\n      dup3\n        /* \"#utility.yul\":719:726   */\n      dup5\n        /* \"#utility.yul\":715:738   */\n      sub\n        /* \"#utility.yul\":711:743   */\n      slt\n        /* \"#utility.yul\":708:827   */\n      iszero\n      tag_69\n      jumpi\n        /* \"#utility.yul\":746:825   */\n      tag_70\n      tag_66\n      jump\t// in\n    tag_70:\n        /* \"#utility.yul\":708:827   */\n    tag_69:\n        /* \"#utility.yul\":866:867   */\n      0x00\n        /* \"#utility.yul\":891:944   */\n      tag_71\n        /* \"#utility.yul\":936:943   */\n      dup5\n        /* \"#utility.yul\":927:933   */\n      dup3\n        /* \"#utility.yul\":916:925   */\n      dup6\n        /* \"#utility.yul\":912:934   */\n      add\n        /* \"#utility.yul\":891:944   */\n      tag_59\n      jump\t// in\n    tag_71:\n        /* \"#utility.yul\":881:944   */\n      swap2\n      pop\n        /* \"#utility.yul\":837:954   */\n      pop\n        /* \"#utility.yul\":632:961   */\n      swap3\n      swap2\n      pop\n      pop\n      jump\t// out\n        /* \"#utility.yul\":967:1085   */\n    tag_72:\n        /* \"#utility.yul\":1054:1078   */\n      tag_74\n        /* \"#utility.yul\":1072:1077   */\n      dup2\n        /* \"#utility.yul\":1054:1078   */\n      tag_75\n      jump\t// in\n    tag_74:\n        /* \"#utility.yul\":1049:1052   */\n      dup3\n        /* \"#utility.yul\":1042:1079   */\n      mstore\n        /* \"#utility.yul\":967:1085   */\n      pop\n      pop\n      jump\t// out\n        /* \"#utility.yul\":1091:1457   */\n    tag_76:\n        /* \"#utility.yul\":1233:1236   */\n      0x00\n        /* \"#utility.yul\":1254:1321   */\n      tag_78\n        /* \"#utility.yul\":1318:1320   */\n      0x20\n        /* \"#utility.yul\":1313:1316   */\n      dup4\n        /* \"#utility.yul\":1254:1321   */\n      tag_79\n      jump\t// in\n    tag_78:\n        /* \"#utility.yul\":1247:1321   */\n      swap2\n      pop\n        /* \"#utility.yul\":1330:1423   */\n      tag_80\n        /* \"#utility.yul\":1419:1422   */\n      dup3\n        /* \"#utility.yul\":1330:1423   */\n      tag_81\n      jump\t// in\n    tag_80:\n        /* \"#utility.yul\":1448:1450   */\n      0x20\n        /* \"#utility.yul\":1443:1446   */\n      dup3\n        /* \"#utility.yul\":1439:1451   */\n      add\n        /* \"#utility.yul\":1432:1451   */\n      swap1\n      pop\n        /* \"#utility.yul\":1091:1457   */\n      swap2\n      swap1\n      pop\n      jump\t// out\n        /* \"#utility.yul\":1463:1581   */\n    tag_82:\n        /* \"#utility.yul\":1550:1574   */\n      tag_84\n        /* \"#utility.yul\":1568:1573   */\n      dup2\n        /* \"#utility.yul\":1550:1574   */\n      tag_85\n      jump\t// in\n    tag_84:\n        /* \"#utility.yul\":1545:1548   */\n      dup3\n        /* \"#utility.yul\":1538:1575   */\n      mstore\n        /* \"#utility.yul\":1463:1581   */\n      pop\n      pop\n      jump\t// out\n        /* \"#utility.yul\":1587:1809   */\n    tag_33:\n        /* \"#utility.yul\":1680:1684   */\n      0x00\n        /* \"#utility.yul\":1718:1720   */\n      0x20\n        /* \"#utility.yul\":1707:1716   */\n      dup3\n        /* \"#utility.yul\":1703:1721   */\n      add\n        /* \"#utility.yul\":1695:1721   */\n      swap1\n      pop\n        /* \"#utility.yul\":1731:1802   */\n      tag_87\n        /* \"#utility.yul\":1799:1800   */\n      0x00\n        /* \"#utility.yul\":1788:1797   */\n      dup4\n        /* \"#utility.yul\":1784:1801   */\n      add\n        /* \"#utility.yul\":1775:1781   */\n      dup5\n        /* \"#utility.yul\":1731:1802   */\n      tag_72\n      jump\t// in\n    tag_87:\n        /* \"#utility.yul\":1587:1809   */\n      swap3\n      swap2\n      pop\n      pop\n      jump\t// out\n        /* \"#utility.yul\":1815:2234   */\n    tag_46:\n        /* \"#utility.yul\":1981:1985   */\n      0x00\n        /* \"#utility.yul\":2019:2021   */\n      0x20\n        /* \"#utility.yul\":2008:2017   */\n      dup3\n        /* \"#utility.yul\":2004:2022   */\n      add\n        /* \"#utility.yul\":1996:2022   */\n      swap1\n      pop\n        /* \"#utility.yul\":2068:2077   */\n      dup2\n        /* \"#utility.yul\":2062:2066   */\n      dup2\n        /* \"#utility.yul\":2058:2078   */\n      sub\n        /* \"#utility.yul\":2054:2055   */\n      0x00\n        /* \"#utility.yul\":2043:2052   */\n      dup4\n        /* \"#utility.yul\":2039:2056   */\n      add\n        /* \"#utility.yul\":2032:2079   */\n      mstore\n        /* \"#utility.yul\":2096:2227   */\n      tag_89\n        /* \"#utility.yul\":2222:2226   */\n      dup2\n        /* \"#utility.yul\":2096:2227   */\n      tag_76\n      jump\t// in\n    tag_89:\n        /* \"#utility.yul\":2088:2227   */\n      swap1\n      pop\n        /* \"#utility.yul\":1815:2234   */\n      swap2\n      swap1\n      pop\n      jump\t// out\n        /* \"#utility.yul\":2240:2462   */\n    tag_17:\n        /* \"#utility.yul\":2333:2337   */\n      0x00\n        /* \"#utility.yul\":2371:2373   */\n      0x20\n        /* \"#utility.yul\":2360:2369   */\n      dup3\n        /* \"#utility.yul\":2356:2374   */\n      add\n        /* \"#utility.yul\":2348:2374   */\n      swap1\n      pop\n        /* \"#utility.yul\":2384:2455   */\n      tag_91\n        /* \"#utility.yul\":2452:2453   */\n      0x00\n        /* \"#utility.yul\":2441:2450   */\n      dup4\n        /* \"#utility.yul\":2437:2454   */\n      add\n        /* \"#utility.yul\":2428:2434   */\n      dup5\n        /* \"#utility.yul\":2384:2455   */\n      tag_82\n      jump\t// in\n    tag_91:\n        /* \"#utility.yul\":2240:2462   */\n      swap3\n      swap2\n      pop\n      pop\n      jump\t// out\n        /* \"#utility.yul\":2549:2718   */\n    tag_79:\n        /* \"#utility.yul\":2633:2644   */\n      0x00\n        /* \"#utility.yul\":2667:2673   */\n      dup3\n        /* \"#utility.yul\":2662:2665   */\n      dup3\n        /* \"#utility.yul\":2655:2674   */\n      mstore\n        /* \"#utility.yul\":2707:2711   */\n      0x20\n        /* \"#utility.yul\":2702:2705   */\n      dup3\n        /* \"#utility.yul\":2698:2712   */\n      add\n        /* \"#utility.yul\":2683:2712   */\n      swap1\n      pop\n        /* \"#utility.yul\":2549:2718   */\n      swap3\n      swap2\n      pop\n      pop\n      jump\t// out\n        /* \"#utility.yul\":2724:3029   */\n    tag_50:\n        /* \"#utility.yul\":2764:2767   */\n      0x00\n        /* \"#utility.yul\":2783:2803   */\n      tag_96\n        /* \"#utility.yul\":2801:2802   */\n      dup3\n        /* \"#utility.yul\":2783:2803   */\n      tag_85\n      jump\t// in\n    tag_96:\n        /* \"#utility.yul\":2778:2803   */\n      swap2\n      pop\n        /* \"#utility.yul\":2817:2837   */\n      tag_97\n        /* \"#utility.yul\":2835:2836   */\n      dup4\n        /* \"#utility.yul\":2817:2837   */\n      tag_85\n      jump\t// in\n    tag_97:\n        /* \"#utility.yul\":2812:2837   */\n      swap3\n      pop\n        /* \"#utility.yul\":2971:2972   */\n      dup3\n        /* \"#utility.yul\":2903:2969   */\n      0xffffffffffffffffffffffffffffffffffffffffffffffffffffffffffffffff\n        /* \"#utility.yul\":2899:2973   */\n      sub\n        /* \"#utility.yul\":2896:2897   */\n      dup3\n        /* \"#utility.yul\":2893:2974   */\n      gt\n        /* \"#utility.yul\":2890:2997   */\n      iszero\n      tag_98\n      jumpi\n        /* \"#utility.yul\":2977:2995   */\n      tag_99\n      tag_100\n      jump\t// in\n    tag_99:\n        /* \"#utility.yul\":2890:2997   */\n    tag_98:\n        /* \"#utility.yul\":3021:3022   */\n      dup3\n        /* \"#utility.yul\":3018:3019   */\n      dup3\n        /* \"#utility.yul\":3014:3023   */\n      add\n        /* \"#utility.yul\":3007:3023   */\n      swap1\n      pop\n        /* \"#utility.yul\":2724:3029   */\n      swap3\n      swap2\n      pop\n      pop\n      jump\t// out\n        /* \"#utility.yul\":3035:3131   */\n    tag_75:\n        /* \"#utility.yul\":3072:3079   */\n      0x00\n        /* \"#utility.yul\":3101:3125   */\n      tag_102\n        /* \"#utility.yul\":3119:3124   */\n      dup3\n        /* \"#utility.yul\":3101:3125   */\n      tag_103\n      jump\t// in\n    tag_102:\n        /* \"#utility.yul\":3090:3125   */\n      swap1\n      pop\n        /* \"#utility.yul\":3035:3131   */\n      swap2\n      swap1\n      pop\n      jump\t// out\n        /* \"#utility.yul\":3137:3263   */\n    tag_103:\n        /* \"#utility.yul\":3174:3181   */\n      0x00\n        /* \"#utility.yul\":3214:3256   */\n      0xffffffffffffffffffffffffffffffffffffffff\n        /* \"#utility.yul\":3207:3212   */\n      dup3\n        /* \"#utility.yul\":3203:3257   */\n      and\n        /* \"#utility.yul\":3192:3257   */\n      swap1\n      pop\n        /* \"#utility.yul\":3137:3263   */\n      swap2\n      swap1\n      pop\n      jump\t// out\n        /* \"#utility.yul\":3269:3346   */\n    tag_85:\n        /* \"#utility.yul\":3306:3313   */\n      0x00\n        /* \"#utility.yul\":3335:3340   */\n      dup2\n        /* \"#utility.yul\":3324:3340   */\n      swap1\n      pop\n        /* \"#utility.yul\":3269:3346   */\n      swap2\n      swap1\n      pop\n      jump\t// out\n        /* \"#utility.yul\":3352:3585   */\n    tag_48:\n        /* \"#utility.yul\":3391:3394   */\n      0x00\n        /* \"#utility.yul\":3414:3438   */\n      tag_107\n        /* \"#utility.yul\":3432:3437   */\n      dup3\n        /* \"#utility.yul\":3414:3438   */\n      tag_85\n      jump\t// in\n    tag_107:\n        /* \"#utility.yul\":3405:3438   */\n      swap2\n      pop\n        /* \"#utility.yul\":3460:3526   */\n      0xffffffffffffffffffffffffffffffffffffffffffffffffffffffffffffffff\n        /* \"#utility.yul\":3453:3458   */\n      dup3\n        /* \"#utility.yul\":3450:3527   */\n      eq\n        /* \"#utility.yul\":3447:3550   */\n      iszero\n      tag_108\n      jumpi\n        /* \"#utility.yul\":3530:3548   */\n      tag_109\n      tag_100\n      jump\t// in\n    tag_109:\n        /* \"#utility.yul\":3447:3550   */\n    tag_108:\n        /* \"#utility.yul\":3577:3578   */\n      0x01\n        /* \"#utility.yul\":3570:3575   */\n      dup3\n        /* \"#utility.yul\":3566:3579   */\n      add\n        /* \"#utility.yul\":3559:3579   */\n      swap1\n      pop\n        /* \"#utility.yul\":3352:3585   */\n      swap2\n      swap1\n      pop\n      jump\t// out\n        /* \"#utility.yul\":3591:3771   */\n    tag_100:\n        /* \"#utility.yul\":3639:3716   */\n      0x4e487b7100000000000000000000000000000000000000000000000000000000\n        /* \"#utility.yul\":3636:3637   */\n      0x00\n        /* \"#utility.yul\":3629:3717   */\n      mstore\n        /* \"#utility.yul\":3736:3740   */\n      0x11\n        /* \"#utility.yul\":3733:3734   */\n      0x04\n        /* \"#utility.yul\":3726:3741   */\n      mstore\n        /* \"#utility.yul\":3760:3764   */\n      0x24\n        /* \"#utility.yul\":3757:3758   */\n      0x00\n        /* \"#utility.yul\":3750:3765   */\n      revert\n        /* \"#utility.yul\":3777:3957   */\n    tag_42:\n        /* \"#utility.yul\":3825:3902   */\n      0x4e487b7100000000000000000000000000000000000000000000000000000000\n        /* \"#utility.yul\":3822:3823   */\n      0x00\n        /* \"#utility.yul\":3815:3903   */\n      mstore\n        /* \"#utility.yul\":3922:3926   */\n      0x32\n        /* \"#utility.yul\":3919:3920   */\n      0x04\n        /* \"#utility.yul\":3912:3927   */\n      mstore\n        /* \"#utility.yul\":3946:3950   */\n      0x24\n        /* \"#utility.yul\":3943:3944   */\n      0x00\n        /* \"#utility.yul\":3936:3951   */\n      revert\n        /* \"#utility.yul\":4086:4203   */\n    tag_66:\n        /* \"#utility.yul\":4195:4196   */\n      0x00\n        /* \"#utility.yul\":4192:4193   */\n      dup1\n        /* \"#utility.yul\":4185:4197   */\n      revert\n        /* \"#utility.yul\":4209:4391   */\n    tag_81:\n        /* \"#utility.yul\":4349:4383   */\n      0x4f6820536f7272792120567027732063616e6e27742075736520746f6b656e73\n        /* \"#utility.yul\":4345:4346   */\n      0x00\n        /* \"#utility.yul\":4337:4343   */\n      dup3\n        /* \"#utility.yul\":4333:4347   */\n      add\n        /* \"#utility.yul\":4326:4384   */\n      mstore\n        /* \"#utility.yul\":4209:4391   */\n      pop\n      jump\t// out\n        /* \"#utility.yul\":4397:4519   */\n    tag_58:\n        /* \"#utility.yul\":4470:4494   */\n      tag_117\n        /* \"#utility.yul\":4488:4493   */\n      dup2\n        /* \"#utility.yul\":4470:4494   */\n      tag_75\n      jump\t// in\n    tag_117:\n        /* \"#utility.yul\":4463:4468   */\n      dup2\n        /* \"#utility.yul\":4460:4495   */\n      eq\n        /* \"#utility.yul\":4450:4513   */\n      tag_118\n      jumpi\n        /* \"#utility.yul\":4509:4510   */\n      0x00\n        /* \"#utility.yul\":4506:4507   */\n      dup1\n        /* \"#utility.yul\":4499:4511   */\n      revert\n        /* \"#utility.yul\":4450:4513   */\n    tag_118:\n        /* \"#utility.yul\":4397:4519   */\n      pop\n      jump\t// out\n        /* \"#utility.yul\":4525:4647   */\n    tag_62:\n        /* \"#utility.yul\":4598:4622   */\n      tag_120\n        /* \"#utility.yul\":4616:4621   */\n      dup2\n        /* \"#utility.yul\":4598:4622   */\n      tag_85\n      jump\t// in\n    tag_120:\n        /* \"#utility.yul\":4591:4596   */\n      dup2\n        /* \"#utility.yul\":4588:4623   */\n      eq\n        /* \"#utility.yul\":4578:4641   */\n      tag_121\n      jumpi\n        /* \"#utility.yul\":4637:4638   */\n      0x00\n        /* \"#utility.yul\":4634:4635   */\n      dup1\n        /* \"#utility.yul\":4627:4639   */\n      revert\n        /* \"#utility.yul\":4578:4641   */\n    tag_121:\n        /* \"#utility.yul\":4525:4647   */\n      pop\n      jump\t// out\n\n    auxdata: 0xa26469706673582212204896c5bf83fb6624596cd146a4581cd81ba1ca071badb200570f34653eadd6ab64736f6c63430008070033\n}\n",
				"bytecode": {
					"linkReferences": {},
					"object": "608060405234801561001057600080fd5b506105d1806100206000396000f3fe6080604052600436106100555760003560e01c8063134d866f1461005a5780631b9265b814610083578063441b053c146100ae57806387bb999f146100d9578063be040fb0146100e3578063c870fbad146100fa575b600080fd5b34801561006657600080fd5b50610081600480360381019061007c9190610304565b610137565b005b34801561008f57600080fd5b5061009861019d565b6040516100a591906103da565b60405180910390f35b3480156100ba57600080fd5b506100c36101a3565b6040516100d091906103da565b60405180910390f35b6100e16101a9565b005b3480156100ef57600080fd5b506100f8610299565b005b34801561010657600080fd5b50610121600480360381019061011c9190610331565b61029b565b60405161012e919061039f565b60405180910390f35b6000819080600181540180825580915050600190039060005260206000200160009091909190916101000a81548173ffffffffffffffffffffffffffffffffffffffff021916908373ffffffffffffffffffffffffffffffffffffffff16021790555050565b60015481565b60025481565b60005b60008054905081101561027957600081815481106101cd576101cc610510565b5b9060005260206000200160009054906101000a900473ffffffffffffffffffffffffffffffffffffffff1673ffffffffffffffffffffffffffffffffffffffff163373ffffffffffffffffffffffffffffffffffffffff161415610266576040517f08c379a000000000000000000000000000000000000000000000000000000000815260040161025d906103ba565b60405180910390fd5b808061027190610498565b9150506101ac565b50346001819055506001546002546102919190610406565b600281905550565b565b600081815481106102ab57600080fd5b906000526020600020016000915054906101000a900473ffffffffffffffffffffffffffffffffffffffff1681565b6000813590506102e98161056d565b92915050565b6000813590506102fe81610584565b92915050565b60006020828403121561031a5761031961053f565b5b6000610328848285016102da565b91505092915050565b6000602082840312156103475761034661053f565b5b6000610355848285016102ef565b91505092915050565b6103678161045c565b82525050565b600061037a6020836103f5565b915061038582610544565b602082019050919050565b6103998161048e565b82525050565b60006020820190506103b4600083018461035e565b92915050565b600060208201905081810360008301526103d38161036d565b9050919050565b60006020820190506103ef6000830184610390565b92915050565b600082825260208201905092915050565b60006104118261048e565b915061041c8361048e565b9250827fffffffffffffffffffffffffffffffffffffffffffffffffffffffffffffffff03821115610451576104506104e1565b5b828201905092915050565b60006104678261046e565b9050919050565b600073ffffffffffffffffffffffffffffffffffffffff82169050919050565b6000819050919050565b60006104a38261048e565b91507fffffffffffffffffffffffffffffffffffffffffffffffffffffffffffffffff8214156104d6576104d56104e1565b5b600182019050919050565b7f4e487b7100000000000000000000000000000000000000000000000000000000600052601160045260246000fd5b7f4e487b7100000000000000000000000000000000000000000000000000000000600052603260045260246000fd5b600080fd5b7f4f6820536f7272792120567027732063616e6e27742075736520746f6b656e73600082015250565b6105768161045c565b811461058157600080fd5b50565b61058d8161048e565b811461059857600080fd5b5056fea26469706673582212204896c5bf83fb6624596cd146a4581cd81ba1ca071badb200570f34653eadd6ab64736f6c63430008070033",
					"opcodes": "PUSH1 0x80 PUSH1 0x40 MSTORE CALLVALUE DUP1 ISZERO PUSH2 0x10 JUMPI PUSH1 0x0 DUP1 REVERT JUMPDEST POP PUSH2 0x5D1 DUP1 PUSH2 0x20 PUSH1 0x0 CODECOPY PUSH1 0x0 RETURN INVALID PUSH1 0x80 PUSH1 0x40 MSTORE PUSH1 0x4 CALLDATASIZE LT PUSH2 0x55 JUMPI PUSH1 0x0 CALLDATALOAD PUSH1 0xE0 SHR DUP1 PUSH4 0x134D866F EQ PUSH2 0x5A JUMPI DUP1 PUSH4 0x1B9265B8 EQ PUSH2 0x83 JUMPI DUP1 PUSH4 0x441B053C EQ PUSH2 0xAE JUMPI DUP1 PUSH4 0x87BB999F EQ PUSH2 0xD9 JUMPI DUP1 PUSH4 0xBE040FB0 EQ PUSH2 0xE3 JUMPI DUP1 PUSH4 0xC870FBAD EQ PUSH2 0xFA JUMPI JUMPDEST PUSH1 0x0 DUP1 REVERT JUMPDEST CALLVALUE DUP1 ISZERO PUSH2 0x66 JUMPI PUSH1 0x0 DUP1 REVERT JUMPDEST POP PUSH2 0x81 PUSH1 0x4 DUP1 CALLDATASIZE SUB DUP2 ADD SWAP1 PUSH2 0x7C SWAP2 SWAP1 PUSH2 0x304 JUMP JUMPDEST PUSH2 0x137 JUMP JUMPDEST STOP JUMPDEST CALLVALUE DUP1 ISZERO PUSH2 0x8F JUMPI PUSH1 0x0 DUP1 REVERT JUMPDEST POP PUSH2 0x98 PUSH2 0x19D JUMP JUMPDEST PUSH1 0x40 MLOAD PUSH2 0xA5 SWAP2 SWAP1 PUSH2 0x3DA JUMP JUMPDEST PUSH1 0x40 MLOAD DUP1 SWAP2 SUB SWAP1 RETURN JUMPDEST CALLVALUE DUP1 ISZERO PUSH2 0xBA JUMPI PUSH1 0x0 DUP1 REVERT JUMPDEST POP PUSH2 0xC3 PUSH2 0x1A3 JUMP JUMPDEST PUSH1 0x40 MLOAD PUSH2 0xD0 SWAP2 SWAP1 PUSH2 0x3DA JUMP JUMPDEST PUSH1 0x40 MLOAD DUP1 SWAP2 SUB SWAP1 RETURN JUMPDEST PUSH2 0xE1 PUSH2 0x1A9 JUMP JUMPDEST STOP JUMPDEST CALLVALUE DUP1 ISZERO PUSH2 0xEF JUMPI PUSH1 0x0 DUP1 REVERT JUMPDEST POP PUSH2 0xF8 PUSH2 0x299 JUMP JUMPDEST STOP JUMPDEST CALLVALUE DUP1 ISZERO PUSH2 0x106 JUMPI PUSH1 0x0 DUP1 REVERT JUMPDEST POP PUSH2 0x121 PUSH1 0x4 DUP1 CALLDATASIZE SUB DUP2 ADD SWAP1 PUSH2 0x11C SWAP2 SWAP1 PUSH2 0x331 JUMP JUMPDEST PUSH2 0x29B JUMP JUMPDEST PUSH1 0x40 MLOAD PUSH2 0x12E SWAP2 SWAP1 PUSH2 0x39F JUMP JUMPDEST PUSH1 0x40 MLOAD DUP1 SWAP2 SUB SWAP1 RETURN JUMPDEST PUSH1 0x0 DUP2 SWAP1 DUP1 PUSH1 0x1 DUP2 SLOAD ADD DUP1 DUP3 SSTORE DUP1 SWAP2 POP POP PUSH1 0x1 SWAP1 SUB SWAP1 PUSH1 0x0 MSTORE PUSH1 0x20 PUSH1 0x0 KECCAK256 ADD PUSH1 0x0 SWAP1 SWAP2 SWAP1 SWAP2 SWAP1 SWAP2 PUSH2 0x100 EXP DUP2 SLOAD DUP2 PUSH20 0xFFFFFFFFFFFFFFFFFFFFFFFFFFFFFFFFFFFFFFFF MUL NOT AND SWAP1 DUP4 PUSH20 0xFFFFFFFFFFFFFFFFFFFFFFFFFFFFFFFFFFFFFFFF AND MUL OR SWAP1 SSTORE POP POP JUMP JUMPDEST PUSH1 0x1 SLOAD DUP2 JUMP JUMPDEST PUSH1 0x2 SLOAD DUP2 JUMP JUMPDEST PUSH1 0x0 JUMPDEST PUSH1 0x0 DUP1 SLOAD SWAP1 POP DUP2 LT ISZERO PUSH2 0x279 JUMPI PUSH1 0x0 DUP2 DUP2 SLOAD DUP2 LT PUSH2 0x1CD JUMPI PUSH2 0x1CC PUSH2 0x510 JUMP JUMPDEST JUMPDEST SWAP1 PUSH1 0x0 MSTORE PUSH1 0x20 PUSH1 0x0 KECCAK256 ADD PUSH1 0x0 SWAP1 SLOAD SWAP1 PUSH2 0x100 EXP SWAP1 DIV PUSH20 0xFFFFFFFFFFFFFFFFFFFFFFFFFFFFFFFFFFFFFFFF AND PUSH20 0xFFFFFFFFFFFFFFFFFFFFFFFFFFFFFFFFFFFFFFFF AND CALLER PUSH20 0xFFFFFFFFFFFFFFFFFFFFFFFFFFFFFFFFFFFFFFFF AND EQ ISZERO PUSH2 0x266 JUMPI PUSH1 0x40 MLOAD PUSH32 0x8C379A000000000000000000000000000000000000000000000000000000000 DUP2 MSTORE PUSH1 0x4 ADD PUSH2 0x25D SWAP1 PUSH2 0x3BA JUMP JUMPDEST PUSH1 0x40 MLOAD DUP1 SWAP2 SUB SWAP1 REVERT JUMPDEST DUP1 DUP1 PUSH2 0x271 SWAP1 PUSH2 0x498 JUMP JUMPDEST SWAP2 POP POP PUSH2 0x1AC JUMP JUMPDEST POP CALLVALUE PUSH1 0x1 DUP2 SWAP1 SSTORE POP PUSH1 0x1 SLOAD PUSH1 0x2 SLOAD PUSH2 0x291 SWAP2 SWAP1 PUSH2 0x406 JUMP JUMPDEST PUSH1 0x2 DUP2 SWAP1 SSTORE POP JUMP JUMPDEST JUMP JUMPDEST PUSH1 0x0 DUP2 DUP2 SLOAD DUP2 LT PUSH2 0x2AB JUMPI PUSH1 0x0 DUP1 REVERT JUMPDEST SWAP1 PUSH1 0x0 MSTORE PUSH1 0x20 PUSH1 0x0 KECCAK256 ADD PUSH1 0x0 SWAP2 POP SLOAD SWAP1 PUSH2 0x100 EXP SWAP1 DIV PUSH20 0xFFFFFFFFFFFFFFFFFFFFFFFFFFFFFFFFFFFFFFFF AND DUP2 JUMP JUMPDEST PUSH1 0x0 DUP2 CALLDATALOAD SWAP1 POP PUSH2 0x2E9 DUP2 PUSH2 0x56D JUMP JUMPDEST SWAP3 SWAP2 POP POP JUMP JUMPDEST PUSH1 0x0 DUP2 CALLDATALOAD SWAP1 POP PUSH2 0x2FE DUP2 PUSH2 0x584 JUMP JUMPDEST SWAP3 SWAP2 POP POP JUMP JUMPDEST PUSH1 0x0 PUSH1 0x20 DUP3 DUP5 SUB SLT ISZERO PUSH2 0x31A JUMPI PUSH2 0x319 PUSH2 0x53F JUMP JUMPDEST JUMPDEST PUSH1 0x0 PUSH2 0x328 DUP5 DUP3 DUP6 ADD PUSH2 0x2DA JUMP JUMPDEST SWAP2 POP POP SWAP3 SWAP2 POP POP JUMP JUMPDEST PUSH1 0x0 PUSH1 0x20 DUP3 DUP5 SUB SLT ISZERO PUSH2 0x347 JUMPI PUSH2 0x346 PUSH2 0x53F JUMP JUMPDEST JUMPDEST PUSH1 0x0 PUSH2 0x355 DUP5 DUP3 DUP6 ADD PUSH2 0x2EF JUMP JUMPDEST SWAP2 POP POP SWAP3 SWAP2 POP POP JUMP JUMPDEST PUSH2 0x367 DUP2 PUSH2 0x45C JUMP JUMPDEST DUP3 MSTORE POP POP JUMP JUMPDEST PUSH1 0x0 PUSH2 0x37A PUSH1 0x20 DUP4 PUSH2 0x3F5 JUMP JUMPDEST SWAP2 POP PUSH2 0x385 DUP3 PUSH2 0x544 JUMP JUMPDEST PUSH1 0x20 DUP3 ADD SWAP1 POP SWAP2 SWAP1 POP JUMP JUMPDEST PUSH2 0x399 DUP2 PUSH2 0x48E JUMP JUMPDEST DUP3 MSTORE POP POP JUMP JUMPDEST PUSH1 0x0 PUSH1 0x20 DUP3 ADD SWAP1 POP PUSH2 0x3B4 PUSH1 0x0 DUP4 ADD DUP5 PUSH2 0x35E JUMP JUMPDEST SWAP3 SWAP2 POP POP JUMP JUMPDEST PUSH1 0x0 PUSH1 0x20 DUP3 ADD SWAP1 POP DUP2 DUP2 SUB PUSH1 0x0 DUP4 ADD MSTORE PUSH2 0x3D3 DUP2 PUSH2 0x36D JUMP JUMPDEST SWAP1 POP SWAP2 SWAP1 POP JUMP JUMPDEST PUSH1 0x0 PUSH1 0x20 DUP3 ADD SWAP1 POP PUSH2 0x3EF PUSH1 0x0 DUP4 ADD DUP5 PUSH2 0x390 JUMP JUMPDEST SWAP3 SWAP2 POP POP JUMP JUMPDEST PUSH1 0x0 DUP3 DUP3 MSTORE PUSH1 0x20 DUP3 ADD SWAP1 POP SWAP3 SWAP2 POP POP JUMP JUMPDEST PUSH1 0x0 PUSH2 0x411 DUP3 PUSH2 0x48E JUMP JUMPDEST SWAP2 POP PUSH2 0x41C DUP4 PUSH2 0x48E JUMP JUMPDEST SWAP3 POP DUP3 PUSH32 0xFFFFFFFFFFFFFFFFFFFFFFFFFFFFFFFFFFFFFFFFFFFFFFFFFFFFFFFFFFFFFFFF SUB DUP3 GT ISZERO PUSH2 0x451 JUMPI PUSH2 0x450 PUSH2 0x4E1 JUMP JUMPDEST JUMPDEST DUP3 DUP3 ADD SWAP1 POP SWAP3 SWAP2 POP POP JUMP JUMPDEST PUSH1 0x0 PUSH2 0x467 DUP3 PUSH2 0x46E JUMP JUMPDEST SWAP1 POP SWAP2 SWAP1 POP JUMP JUMPDEST PUSH1 0x0 PUSH20 0xFFFFFFFFFFFFFFFFFFFFFFFFFFFFFFFFFFFFFFFF DUP3 AND SWAP1 POP SWAP2 SWAP1 POP JUMP JUMPDEST PUSH1 0x0 DUP2 SWAP1 POP SWAP2 SWAP1 POP JUMP JUMPDEST PUSH1 0x0 PUSH2 0x4A3 DUP3 PUSH2 0x48E JUMP JUMPDEST SWAP2 POP PUSH32 0xFFFFFFFFFFFFFFFFFFFFFFFFFFFFFFFFFFFFFFFFFFFFFFFFFFFFFFFFFFFFFFFF DUP3 EQ ISZERO PUSH2 0x4D6 JUMPI PUSH2 0x4D5 PUSH2 0x4E1 JUMP JUMPDEST JUMPDEST PUSH1 0x1 DUP3 ADD SWAP1 POP SWAP2 SWAP1 POP JUMP JUMPDEST PUSH32 0x4E487B7100000000000000000000000000000000000000000000000000000000 PUSH1 0x0 MSTORE PUSH1 0x11 PUSH1 0x4 MSTORE PUSH1 0x24 PUSH1 0x0 REVERT JUMPDEST PUSH32 0x4E487B7100000000000000000000000000000000000000000000000000000000 PUSH1 0x0 MSTORE PUSH1 0x32 PUSH1 0x4 MSTORE PUSH1 0x24 PUSH1 0x0 REVERT JUMPDEST PUSH1 0x0 DUP1 REVERT JUMPDEST PUSH32 0x4F6820536F7272792120567027732063616E6E27742075736520746F6B656E73 PUSH1 0x0 DUP3 ADD MSTORE POP JUMP JUMPDEST PUSH2 0x576 DUP2 PUSH2 0x45C JUMP JUMPDEST DUP2 EQ PUSH2 0x581 JUMPI PUSH1 0x0 DUP1 REVERT JUMPDEST POP JUMP JUMPDEST PUSH2 0x58D DUP2 PUSH2 0x48E JUMP JUMPDEST DUP2 EQ PUSH2 0x598 JUMPI PUSH1 0x0 DUP1 REVERT JUMPDEST POP JUMP INVALID LOG2 PUSH5 0x6970667358 0x22 SLT KECCAK256 BASEFEE SWAP7 0xC5 0xBF DUP4 0xFB PUSH7 0x24596CD146A458 SHR 0xD8 SHL LOG1 0xCA SMOD SHL 0xAD 0xB2 STOP JUMPI 0xF CALLVALUE PUSH6 0x3EADD6AB6473 PUSH16 0x6C634300080700330000000000000000 "
				},
				"gasEstimates": {
					"creation": {
						"codeDepositCost": "297800",
						"executionCost": "337",
						"totalCost": "298137"
					},
					"external": {
						"pay()": "2429",
						"receive_payment()": "infinite",
						"redeem()": "210",
						"vendor_balance()": "2451",
						"vp_address(address)": "49012",
						"vp_array(uint256)": "5044"
					}
				},
				"methodIdentifiers": {
					"pay()": "1b9265b8",
					"receive_payment()": "87bb999f",
					"redeem()": "be040fb0",
					"vendor_balance()": "441b053c",
					"vp_address(address)": "134d866f",
					"vp_array(uint256)": "c870fbad"
				}
			},
			"storageLayout": {
				"storage": [
					{
						"astId": 4,
						"contract": "contracts/Vendor.sol:Vendor",
						"label": "vp_array",
						"offset": 0,
						"slot": "0",
						"type": "t_array(t_address)dyn_storage"
					},
					{
						"astId": 6,
						"contract": "contracts/Vendor.sol:Vendor",
						"label": "pay",
						"offset": 0,
						"slot": "1",
						"type": "t_uint256"
					},
					{
						"astId": 8,
						"contract": "contracts/Vendor.sol:Vendor",
						"label": "vendor_balance",
						"offset": 0,
						"slot": "2",
						"type": "t_uint256"
					}
				],
				"types": {
					"t_address": {
						"encoding": "inplace",
						"label": "address",
						"numberOfBytes": "20"
					},
					"t_array(t_address)dyn_storage": {
						"base": "t_address",
						"encoding": "dynamic_array",
						"label": "address[]",
						"numberOfBytes": "32"
					},
					"t_uint256": {
						"encoding": "inplace",
						"label": "uint256",
						"numberOfBytes": "32"
					}
				}
			},
			"userdoc": {
				"kind": "user",
				"methods": {},
				"version": 1
			}
		}
	}
}