{
	"contracts/ToToken-stud.sol": {
		"ToToken_stud": {
			"abi": [
				{
					"inputs": [
						{
							"internalType": "uint256",
							"name": "",
							"type": "uint256"
						}
					],
					"name": "Token_stud_address_array",
					"outputs": [
						{
							"internalType": "address",
							"name": "",
							"type": "address"
						}
					],
					"stateMutability": "view",
					"type": "function"
				},
				{
					"inputs": [
						{
							"internalType": "address",
							"name": "",
							"type": "address"
						}
					],
					"name": "addingToken_stud_address",
					"outputs": [
						{
							"internalType": "address[]",
							"name": "",
							"type": "address[]"
						}
					],
					"stateMutability": "nonpayable",
					"type": "function"
				}
			],
			"devdoc": {
				"kind": "dev",
				"methods": {},
				"version": 1
			},
			"evm": {
				"assembly": "    /* \"contracts/ToToken-stud.sol\":60:231  contract ToToken_stud{\r... */\n  mstore(0x40, 0x80)\n  callvalue\n  dup1\n  iszero\n  tag_1\n  jumpi\n  0x00\n  dup1\n  revert\ntag_1:\n  pop\n  dataSize(sub_0)\n  dup1\n  dataOffset(sub_0)\n  0x00\n  codecopy\n  0x00\n  return\nstop\n\nsub_0: assembly {\n        /* \"contracts/ToToken-stud.sol\":60:231  contract ToToken_stud{\r... */\n      mstore(0x40, 0x80)\n      callvalue\n      dup1\n      iszero\n      tag_1\n      jumpi\n      0x00\n      dup1\n      revert\n    tag_1:\n      pop\n      jumpi(tag_2, lt(calldatasize, 0x04))\n      shr(0xe0, calldataload(0x00))\n      dup1\n      0x1baa032c\n      eq\n      tag_3\n      jumpi\n      dup1\n      0x649ecbde\n      eq\n      tag_4\n      jumpi\n    tag_2:\n      0x00\n      dup1\n      revert\n        /* \"contracts/ToToken-stud.sol\":140:226  function addingToken_stud_address(address ) public returns(address[] memory){\r... */\n    tag_3:\n      tag_5\n      0x04\n      dup1\n      calldatasize\n      sub\n      dup2\n      add\n      swap1\n      tag_6\n      swap2\n      swap1\n      tag_7\n      jump\t// in\n    tag_6:\n      tag_8\n      jump\t// in\n    tag_5:\n      mload(0x40)\n      tag_9\n      swap2\n      swap1\n      tag_10\n      jump\t// in\n    tag_9:\n      mload(0x40)\n      dup1\n      swap2\n      sub\n      swap1\n      return\n        /* \"contracts/ToToken-stud.sol\":90:131  address[] public Token_stud_address_array */\n    tag_4:\n      tag_11\n      0x04\n      dup1\n      calldatasize\n      sub\n      dup2\n      add\n      swap1\n      tag_12\n      swap2\n      swap1\n      tag_13\n      jump\t// in\n    tag_12:\n      tag_14\n      jump\t// in\n    tag_11:\n      mload(0x40)\n      tag_15\n      swap2\n      swap1\n      tag_16\n      jump\t// in\n    tag_15:\n      mload(0x40)\n      dup1\n      swap2\n      sub\n      swap1\n      return\n        /* \"contracts/ToToken-stud.sol\":140:226  function addingToken_stud_address(address ) public returns(address[] memory){\r... */\n    tag_8:\n        /* \"contracts/ToToken-stud.sol\":199:215  address[] memory */\n      0x60\n        /* \"contracts/ToToken-stud.sol\":140:226  function addingToken_stud_address(address ) public returns(address[] memory){\r... */\n      swap2\n      swap1\n      pop\n      jump\t// out\n        /* \"contracts/ToToken-stud.sol\":90:131  address[] public Token_stud_address_array */\n    tag_14:\n      0x00\n      dup2\n      dup2\n      sload\n      dup2\n      lt\n      tag_18\n      jumpi\n      0x00\n      dup1\n      revert\n    tag_18:\n      swap1\n      0x00\n      mstore\n      keccak256(0x00, 0x20)\n      add\n      0x00\n      swap2\n      pop\n      sload\n      swap1\n      0x0100\n      exp\n      swap1\n      div\n      0xffffffffffffffffffffffffffffffffffffffff\n      and\n      dup2\n      jump\t// out\n        /* \"#utility.yul\":7:146   */\n    tag_21:\n        /* \"#utility.yul\":53:58   */\n      0x00\n        /* \"#utility.yul\":91:97   */\n      dup2\n        /* \"#utility.yul\":78:98   */\n      calldataload\n        /* \"#utility.yul\":69:98   */\n      swap1\n      pop\n        /* \"#utility.yul\":107:140   */\n      tag_23\n        /* \"#utility.yul\":134:139   */\n      dup2\n        /* \"#utility.yul\":107:140   */\n      tag_24\n      jump\t// in\n    tag_23:\n        /* \"#utility.yul\":7:146   */\n      swap3\n      swap2\n      pop\n      pop\n      jump\t// out\n        /* \"#utility.yul\":152:291   */\n    tag_25:\n        /* \"#utility.yul\":198:203   */\n      0x00\n        /* \"#utility.yul\":236:242   */\n      dup2\n        /* \"#utility.yul\":223:243   */\n      calldataload\n        /* \"#utility.yul\":214:243   */\n      swap1\n      pop\n        /* \"#utility.yul\":252:285   */\n      tag_27\n        /* \"#utility.yul\":279:284   */\n      dup2\n        /* \"#utility.yul\":252:285   */\n      tag_28\n      jump\t// in\n    tag_27:\n        /* \"#utility.yul\":152:291   */\n      swap3\n      swap2\n      pop\n      pop\n      jump\t// out\n        /* \"#utility.yul\":297:626   */\n    tag_7:\n        /* \"#utility.yul\":356:362   */\n      0x00\n        /* \"#utility.yul\":405:407   */\n      0x20\n        /* \"#utility.yul\":393:402   */\n      dup3\n        /* \"#utility.yul\":384:391   */\n      dup5\n        /* \"#utility.yul\":380:403   */\n      sub\n        /* \"#utility.yul\":376:408   */\n      slt\n        /* \"#utility.yul\":373:492   */\n      iszero\n      tag_30\n      jumpi\n        /* \"#utility.yul\":411:490   */\n      tag_31\n      tag_32\n      jump\t// in\n    tag_31:\n        /* \"#utility.yul\":373:492   */\n    tag_30:\n        /* \"#utility.yul\":531:532   */\n      0x00\n        /* \"#utility.yul\":556:609   */\n      tag_33\n        /* \"#utility.yul\":601:608   */\n      dup5\n        /* \"#utility.yul\":592:598   */\n      dup3\n        /* \"#utility.yul\":581:590   */\n      dup6\n        /* \"#utility.yul\":577:599   */\n      add\n        /* \"#utility.yul\":556:609   */\n      tag_21\n      jump\t// in\n    tag_33:\n        /* \"#utility.yul\":546:609   */\n      swap2\n      pop\n        /* \"#utility.yul\":502:619   */\n      pop\n        /* \"#utility.yul\":297:626   */\n      swap3\n      swap2\n      pop\n      pop\n      jump\t// out\n        /* \"#utility.yul\":632:961   */\n    tag_13:\n        /* \"#utility.yul\":691:697   */\n      0x00\n        /* \"#utility.yul\":740:742   */\n      0x20\n        /* \"#utility.yul\":728:737   */\n      dup3\n        /* \"#utility.yul\":719:726   */\n      dup5\n        /* \"#utility.yul\":715:738   */\n      sub\n        /* \"#utility.yul\":711:743   */\n      slt\n        /* \"#utility.yul\":708:827   */\n      iszero\n      tag_35\n      jumpi\n        /* \"#utility.yul\":746:825   */\n      tag_36\n      tag_32\n      jump\t// in\n    tag_36:\n        /* \"#utility.yul\":708:827   */\n    tag_35:\n        /* \"#utility.yul\":866:867   */\n      0x00\n        /* \"#utility.yul\":891:944   */\n      tag_37\n        /* \"#utility.yul\":936:943   */\n      dup5\n        /* \"#utility.yul\":927:933   */\n      dup3\n        /* \"#utility.yul\":916:925   */\n      dup6\n        /* \"#utility.yul\":912:934   */\n      add\n        /* \"#utility.yul\":891:944   */\n      tag_25\n      jump\t// in\n    tag_37:\n        /* \"#utility.yul\":881:944   */\n      swap2\n      pop\n        /* \"#utility.yul\":837:954   */\n      pop\n        /* \"#utility.yul\":632:961   */\n      swap3\n      swap2\n      pop\n      pop\n      jump\t// out\n        /* \"#utility.yul\":967:1146   */\n    tag_38:\n        /* \"#utility.yul\":1036:1046   */\n      0x00\n        /* \"#utility.yul\":1057:1103   */\n      tag_40\n        /* \"#utility.yul\":1099:1102   */\n      dup4\n        /* \"#utility.yul\":1091:1097   */\n      dup4\n        /* \"#utility.yul\":1057:1103   */\n      tag_41\n      jump\t// in\n    tag_40:\n        /* \"#utility.yul\":1135:1139   */\n      0x20\n        /* \"#utility.yul\":1130:1133   */\n      dup4\n        /* \"#utility.yul\":1126:1140   */\n      add\n        /* \"#utility.yul\":1112:1140   */\n      swap1\n      pop\n        /* \"#utility.yul\":967:1146   */\n      swap3\n      swap2\n      pop\n      pop\n      jump\t// out\n        /* \"#utility.yul\":1152:1260   */\n    tag_41:\n        /* \"#utility.yul\":1229:1253   */\n      tag_43\n        /* \"#utility.yul\":1247:1252   */\n      dup2\n        /* \"#utility.yul\":1229:1253   */\n      tag_44\n      jump\t// in\n    tag_43:\n        /* \"#utility.yul\":1224:1227   */\n      dup3\n        /* \"#utility.yul\":1217:1254   */\n      mstore\n        /* \"#utility.yul\":1152:1260   */\n      pop\n      pop\n      jump\t// out\n        /* \"#utility.yul\":1266:1384   */\n    tag_45:\n        /* \"#utility.yul\":1353:1377   */\n      tag_47\n        /* \"#utility.yul\":1371:1376   */\n      dup2\n        /* \"#utility.yul\":1353:1377   */\n      tag_44\n      jump\t// in\n    tag_47:\n        /* \"#utility.yul\":1348:1351   */\n      dup3\n        /* \"#utility.yul\":1341:1378   */\n      mstore\n        /* \"#utility.yul\":1266:1384   */\n      pop\n      pop\n      jump\t// out\n        /* \"#utility.yul\":1420:2152   */\n    tag_48:\n        /* \"#utility.yul\":1539:1542   */\n      0x00\n        /* \"#utility.yul\":1568:1622   */\n      tag_50\n        /* \"#utility.yul\":1616:1621   */\n      dup3\n        /* \"#utility.yul\":1568:1622   */\n      tag_51\n      jump\t// in\n    tag_50:\n        /* \"#utility.yul\":1638:1724   */\n      tag_52\n        /* \"#utility.yul\":1717:1723   */\n      dup2\n        /* \"#utility.yul\":1712:1715   */\n      dup6\n        /* \"#utility.yul\":1638:1724   */\n      tag_53\n      jump\t// in\n    tag_52:\n        /* \"#utility.yul\":1631:1724   */\n      swap4\n      pop\n        /* \"#utility.yul\":1748:1804   */\n      tag_54\n        /* \"#utility.yul\":1798:1803   */\n      dup4\n        /* \"#utility.yul\":1748:1804   */\n      tag_55\n      jump\t// in\n    tag_54:\n        /* \"#utility.yul\":1827:1834   */\n      dup1\n        /* \"#utility.yul\":1858:1859   */\n      0x00\n        /* \"#utility.yul\":1843:2127   */\n    tag_56:\n        /* \"#utility.yul\":1868:1874   */\n      dup4\n        /* \"#utility.yul\":1865:1866   */\n      dup2\n        /* \"#utility.yul\":1862:1875   */\n      lt\n        /* \"#utility.yul\":1843:2127   */\n      iszero\n      tag_58\n      jumpi\n        /* \"#utility.yul\":1944:1950   */\n      dup2\n        /* \"#utility.yul\":1938:1951   */\n      mload\n        /* \"#utility.yul\":1971:2034   */\n      tag_59\n        /* \"#utility.yul\":2030:2033   */\n      dup9\n        /* \"#utility.yul\":2015:2028   */\n      dup3\n        /* \"#utility.yul\":1971:2034   */\n      tag_38\n      jump\t// in\n    tag_59:\n        /* \"#utility.yul\":1964:2034   */\n      swap8\n      pop\n        /* \"#utility.yul\":2057:2117   */\n      tag_60\n        /* \"#utility.yul\":2110:2116   */\n      dup4\n        /* \"#utility.yul\":2057:2117   */\n      tag_61\n      jump\t// in\n    tag_60:\n        /* \"#utility.yul\":2047:2117   */\n      swap3\n      pop\n        /* \"#utility.yul\":1903:2127   */\n      pop\n        /* \"#utility.yul\":1890:1891   */\n      0x01\n        /* \"#utility.yul\":1887:1888   */\n      dup2\n        /* \"#utility.yul\":1883:1892   */\n      add\n        /* \"#utility.yul\":1878:1892   */\n      swap1\n      pop\n        /* \"#utility.yul\":1843:2127   */\n      jump(tag_56)\n    tag_58:\n        /* \"#utility.yul\":1847:1861   */\n      pop\n        /* \"#utility.yul\":2143:2146   */\n      dup6\n        /* \"#utility.yul\":2136:2146   */\n      swap4\n      pop\n        /* \"#utility.yul\":1544:2152   */\n      pop\n      pop\n      pop\n        /* \"#utility.yul\":1420:2152   */\n      swap3\n      swap2\n      pop\n      pop\n      jump\t// out\n        /* \"#utility.yul\":2158:2380   */\n    tag_16:\n        /* \"#utility.yul\":2251:2255   */\n      0x00\n        /* \"#utility.yul\":2289:2291   */\n      0x20\n        /* \"#utility.yul\":2278:2287   */\n      dup3\n        /* \"#utility.yul\":2274:2292   */\n      add\n        /* \"#utility.yul\":2266:2292   */\n      swap1\n      pop\n        /* \"#utility.yul\":2302:2373   */\n      tag_63\n        /* \"#utility.yul\":2370:2371   */\n      0x00\n        /* \"#utility.yul\":2359:2368   */\n      dup4\n        /* \"#utility.yul\":2355:2372   */\n      add\n        /* \"#utility.yul\":2346:2352   */\n      dup5\n        /* \"#utility.yul\":2302:2373   */\n      tag_45\n      jump\t// in\n    tag_63:\n        /* \"#utility.yul\":2158:2380   */\n      swap3\n      swap2\n      pop\n      pop\n      jump\t// out\n        /* \"#utility.yul\":2386:2759   */\n    tag_10:\n        /* \"#utility.yul\":2529:2533   */\n      0x00\n        /* \"#utility.yul\":2567:2569   */\n      0x20\n        /* \"#utility.yul\":2556:2565   */\n      dup3\n        /* \"#utility.yul\":2552:2570   */\n      add\n        /* \"#utility.yul\":2544:2570   */\n      swap1\n      pop\n        /* \"#utility.yul\":2616:2625   */\n      dup2\n        /* \"#utility.yul\":2610:2614   */\n      dup2\n        /* \"#utility.yul\":2606:2626   */\n      sub\n        /* \"#utility.yul\":2602:2603   */\n      0x00\n        /* \"#utility.yul\":2591:2600   */\n      dup4\n        /* \"#utility.yul\":2587:2604   */\n      add\n        /* \"#utility.yul\":2580:2627   */\n      mstore\n        /* \"#utility.yul\":2644:2752   */\n      tag_65\n        /* \"#utility.yul\":2747:2751   */\n      dup2\n        /* \"#utility.yul\":2738:2744   */\n      dup5\n        /* \"#utility.yul\":2644:2752   */\n      tag_48\n      jump\t// in\n    tag_65:\n        /* \"#utility.yul\":2636:2752   */\n      swap1\n      pop\n        /* \"#utility.yul\":2386:2759   */\n      swap3\n      swap2\n      pop\n      pop\n      jump\t// out\n        /* \"#utility.yul\":2846:2978   */\n    tag_55:\n        /* \"#utility.yul\":2913:2917   */\n      0x00\n        /* \"#utility.yul\":2936:2939   */\n      dup2\n        /* \"#utility.yul\":2928:2939   */\n      swap1\n      pop\n        /* \"#utility.yul\":2966:2970   */\n      0x20\n        /* \"#utility.yul\":2961:2964   */\n      dup3\n        /* \"#utility.yul\":2957:2971   */\n      add\n        /* \"#utility.yul\":2949:2971   */\n      swap1\n      pop\n        /* \"#utility.yul\":2846:2978   */\n      swap2\n      swap1\n      pop\n      jump\t// out\n        /* \"#utility.yul\":2984:3098   */\n    tag_51:\n        /* \"#utility.yul\":3051:3057   */\n      0x00\n        /* \"#utility.yul\":3085:3090   */\n      dup2\n        /* \"#utility.yul\":3079:3091   */\n      mload\n        /* \"#utility.yul\":3069:3091   */\n      swap1\n      pop\n        /* \"#utility.yul\":2984:3098   */\n      swap2\n      swap1\n      pop\n      jump\t// out\n        /* \"#utility.yul\":3104:3217   */\n    tag_61:\n        /* \"#utility.yul\":3174:3178   */\n      0x00\n        /* \"#utility.yul\":3206:3210   */\n      0x20\n        /* \"#utility.yul\":3201:3204   */\n      dup3\n        /* \"#utility.yul\":3197:3211   */\n      add\n        /* \"#utility.yul\":3189:3211   */\n      swap1\n      pop\n        /* \"#utility.yul\":3104:3217   */\n      swap2\n      swap1\n      pop\n      jump\t// out\n        /* \"#utility.yul\":3223:3407   */\n    tag_53:\n        /* \"#utility.yul\":3322:3333   */\n      0x00\n        /* \"#utility.yul\":3356:3362   */\n      dup3\n        /* \"#utility.yul\":3351:3354   */\n      dup3\n        /* \"#utility.yul\":3344:3363   */\n      mstore\n        /* \"#utility.yul\":3396:3400   */\n      0x20\n        /* \"#utility.yul\":3391:3394   */\n      dup3\n        /* \"#utility.yul\":3387:3401   */\n      add\n        /* \"#utility.yul\":3372:3401   */\n      swap1\n      pop\n        /* \"#utility.yul\":3223:3407   */\n      swap3\n      swap2\n      pop\n      pop\n      jump\t// out\n        /* \"#utility.yul\":3413:3509   */\n    tag_44:\n        /* \"#utility.yul\":3450:3457   */\n      0x00\n        /* \"#utility.yul\":3479:3503   */\n      tag_73\n        /* \"#utility.yul\":3497:3502   */\n      dup3\n        /* \"#utility.yul\":3479:3503   */\n      tag_74\n      jump\t// in\n    tag_73:\n        /* \"#utility.yul\":3468:3503   */\n      swap1\n      pop\n        /* \"#utility.yul\":3413:3509   */\n      swap2\n      swap1\n      pop\n      jump\t// out\n        /* \"#utility.yul\":3515:3641   */\n    tag_74:\n        /* \"#utility.yul\":3552:3559   */\n      0x00\n        /* \"#utility.yul\":3592:3634   */\n      0xffffffffffffffffffffffffffffffffffffffff\n        /* \"#utility.yul\":3585:3590   */\n      dup3\n        /* \"#utility.yul\":3581:3635   */\n      and\n        /* \"#utility.yul\":3570:3635   */\n      swap1\n      pop\n        /* \"#utility.yul\":3515:3641   */\n      swap2\n      swap1\n      pop\n      jump\t// out\n        /* \"#utility.yul\":3647:3724   */\n    tag_76:\n        /* \"#utility.yul\":3684:3691   */\n      0x00\n        /* \"#utility.yul\":3713:3718   */\n      dup2\n        /* \"#utility.yul\":3702:3718   */\n      swap1\n      pop\n        /* \"#utility.yul\":3647:3724   */\n      swap2\n      swap1\n      pop\n      jump\t// out\n        /* \"#utility.yul\":3853:3970   */\n    tag_32:\n        /* \"#utility.yul\":3962:3963   */\n      0x00\n        /* \"#utility.yul\":3959:3960   */\n      dup1\n        /* \"#utility.yul\":3952:3964   */\n      revert\n        /* \"#utility.yul\":3976:4098   */\n    tag_24:\n        /* \"#utility.yul\":4049:4073   */\n      tag_82\n        /* \"#utility.yul\":4067:4072   */\n      dup2\n        /* \"#utility.yul\":4049:4073   */\n      tag_44\n      jump\t// in\n    tag_82:\n        /* \"#utility.yul\":4042:4047   */\n      dup2\n        /* \"#utility.yul\":4039:4074   */\n      eq\n        /* \"#utility.yul\":4029:4092   */\n      tag_83\n      jumpi\n        /* \"#utility.yul\":4088:4089   */\n      0x00\n        /* \"#utility.yul\":4085:4086   */\n      dup1\n        /* \"#utility.yul\":4078:4090   */\n      revert\n        /* \"#utility.yul\":4029:4092   */\n    tag_83:\n        /* \"#utility.yul\":3976:4098   */\n      pop\n      jump\t// out\n        /* \"#utility.yul\":4104:4226   */\n    tag_28:\n        /* \"#utility.yul\":4177:4201   */\n      tag_85\n        /* \"#utility.yul\":4195:4200   */\n      dup2\n        /* \"#utility.yul\":4177:4201   */\n      tag_76\n      jump\t// in\n    tag_85:\n        /* \"#utility.yul\":4170:4175   */\n      dup2\n        /* \"#utility.yul\":4167:4202   */\n      eq\n        /* \"#utility.yul\":4157:4220   */\n      tag_86\n      jumpi\n        /* \"#utility.yul\":4216:4217   */\n      0x00\n        /* \"#utility.yul\":4213:4214   */\n      dup1\n        /* \"#utility.yul\":4206:4218   */\n      revert\n        /* \"#utility.yul\":4157:4220   */\n    tag_86:\n        /* \"#utility.yul\":4104:4226   */\n      pop\n      jump\t// out\n\n    auxdata: 0xa2646970667358221220dfd306041297a2424ce87c433323897ab68b599ce948fd27551b9a65f12260f064736f6c63430008070033\n}\n",
				"bytecode": {
					"linkReferences": {},
					"object": "608060405234801561001057600080fd5b50610314806100206000396000f3fe608060405234801561001057600080fd5b50600436106100365760003560e01c80631baa032c1461003b578063649ecbde1461006b575b600080fd5b6100556004803603810190610050919061010b565b61009b565b6040516100629190610214565b60405180910390f35b61008560048036038101906100809190610138565b6100a2565b60405161009291906101f9565b60405180910390f35b6060919050565b600081815481106100b257600080fd5b906000526020600020016000915054906101000a900473ffffffffffffffffffffffffffffffffffffffff1681565b6000813590506100f0816102b0565b92915050565b600081359050610105816102c7565b92915050565b600060208284031215610121576101206102ab565b5b600061012f848285016100e1565b91505092915050565b60006020828403121561014e5761014d6102ab565b5b600061015c848285016100f6565b91505092915050565b6000610171838361017d565b60208301905092915050565b6101868161026f565b82525050565b6101958161026f565b82525050565b60006101a682610246565b6101b0818561025e565b93506101bb83610236565b8060005b838110156101ec5781516101d38882610165565b97506101de83610251565b9250506001810190506101bf565b5085935050505092915050565b600060208201905061020e600083018461018c565b92915050565b6000602082019050818103600083015261022e818461019b565b905092915050565b6000819050602082019050919050565b600081519050919050565b6000602082019050919050565b600082825260208201905092915050565b600061027a82610281565b9050919050565b600073ffffffffffffffffffffffffffffffffffffffff82169050919050565b6000819050919050565b600080fd5b6102b98161026f565b81146102c457600080fd5b50565b6102d0816102a1565b81146102db57600080fd5b5056fea2646970667358221220dfd306041297a2424ce87c433323897ab68b599ce948fd27551b9a65f12260f064736f6c63430008070033",
					"opcodes": "PUSH1 0x80 PUSH1 0x40 MSTORE CALLVALUE DUP1 ISZERO PUSH2 0x10 JUMPI PUSH1 0x0 DUP1 REVERT JUMPDEST POP PUSH2 0x314 DUP1 PUSH2 0x20 PUSH1 0x0 CODECOPY PUSH1 0x0 RETURN INVALID PUSH1 0x80 PUSH1 0x40 MSTORE CALLVALUE DUP1 ISZERO PUSH2 0x10 JUMPI PUSH1 0x0 DUP1 REVERT JUMPDEST POP PUSH1 0x4 CALLDATASIZE LT PUSH2 0x36 JUMPI PUSH1 0x0 CALLDATALOAD PUSH1 0xE0 SHR DUP1 PUSH4 0x1BAA032C EQ PUSH2 0x3B JUMPI DUP1 PUSH4 0x649ECBDE EQ PUSH2 0x6B JUMPI JUMPDEST PUSH1 0x0 DUP1 REVERT JUMPDEST PUSH2 0x55 PUSH1 0x4 DUP1 CALLDATASIZE SUB DUP2 ADD SWAP1 PUSH2 0x50 SWAP2 SWAP1 PUSH2 0x10B JUMP JUMPDEST PUSH2 0x9B JUMP JUMPDEST PUSH1 0x40 MLOAD PUSH2 0x62 SWAP2 SWAP1 PUSH2 0x214 JUMP JUMPDEST PUSH1 0x40 MLOAD DUP1 SWAP2 SUB SWAP1 RETURN JUMPDEST PUSH2 0x85 PUSH1 0x4 DUP1 CALLDATASIZE SUB DUP2 ADD SWAP1 PUSH2 0x80 SWAP2 SWAP1 PUSH2 0x138 JUMP JUMPDEST PUSH2 0xA2 JUMP JUMPDEST PUSH1 0x40 MLOAD PUSH2 0x92 SWAP2 SWAP1 PUSH2 0x1F9 JUMP JUMPDEST PUSH1 0x40 MLOAD DUP1 SWAP2 SUB SWAP1 RETURN JUMPDEST PUSH1 0x60 SWAP2 SWAP1 POP JUMP JUMPDEST PUSH1 0x0 DUP2 DUP2 SLOAD DUP2 LT PUSH2 0xB2 JUMPI PUSH1 0x0 DUP1 REVERT JUMPDEST SWAP1 PUSH1 0x0 MSTORE PUSH1 0x20 PUSH1 0x0 KECCAK256 ADD PUSH1 0x0 SWAP2 POP SLOAD SWAP1 PUSH2 0x100 EXP SWAP1 DIV PUSH20 0xFFFFFFFFFFFFFFFFFFFFFFFFFFFFFFFFFFFFFFFF AND DUP2 JUMP JUMPDEST PUSH1 0x0 DUP2 CALLDATALOAD SWAP1 POP PUSH2 0xF0 DUP2 PUSH2 0x2B0 JUMP JUMPDEST SWAP3 SWAP2 POP POP JUMP JUMPDEST PUSH1 0x0 DUP2 CALLDATALOAD SWAP1 POP PUSH2 0x105 DUP2 PUSH2 0x2C7 JUMP JUMPDEST SWAP3 SWAP2 POP POP JUMP JUMPDEST PUSH1 0x0 PUSH1 0x20 DUP3 DUP5 SUB SLT ISZERO PUSH2 0x121 JUMPI PUSH2 0x120 PUSH2 0x2AB JUMP JUMPDEST JUMPDEST PUSH1 0x0 PUSH2 0x12F DUP5 DUP3 DUP6 ADD PUSH2 0xE1 JUMP JUMPDEST SWAP2 POP POP SWAP3 SWAP2 POP POP JUMP JUMPDEST PUSH1 0x0 PUSH1 0x20 DUP3 DUP5 SUB SLT ISZERO PUSH2 0x14E JUMPI PUSH2 0x14D PUSH2 0x2AB JUMP JUMPDEST JUMPDEST PUSH1 0x0 PUSH2 0x15C DUP5 DUP3 DUP6 ADD PUSH2 0xF6 JUMP JUMPDEST SWAP2 POP POP SWAP3 SWAP2 POP POP JUMP JUMPDEST PUSH1 0x0 PUSH2 0x171 DUP4 DUP4 PUSH2 0x17D JUMP JUMPDEST PUSH1 0x20 DUP4 ADD SWAP1 POP SWAP3 SWAP2 POP POP JUMP JUMPDEST PUSH2 0x186 DUP2 PUSH2 0x26F JUMP JUMPDEST DUP3 MSTORE POP POP JUMP JUMPDEST PUSH2 0x195 DUP2 PUSH2 0x26F JUMP JUMPDEST DUP3 MSTORE POP POP JUMP JUMPDEST PUSH1 0x0 PUSH2 0x1A6 DUP3 PUSH2 0x246 JUMP JUMPDEST PUSH2 0x1B0 DUP2 DUP6 PUSH2 0x25E JUMP JUMPDEST SWAP4 POP PUSH2 0x1BB DUP4 PUSH2 0x236 JUMP JUMPDEST DUP1 PUSH1 0x0 JUMPDEST DUP4 DUP2 LT ISZERO PUSH2 0x1EC JUMPI DUP2 MLOAD PUSH2 0x1D3 DUP9 DUP3 PUSH2 0x165 JUMP JUMPDEST SWAP8 POP PUSH2 0x1DE DUP4 PUSH2 0x251 JUMP JUMPDEST SWAP3 POP POP PUSH1 0x1 DUP2 ADD SWAP1 POP PUSH2 0x1BF JUMP JUMPDEST POP DUP6 SWAP4 POP POP POP POP SWAP3 SWAP2 POP POP JUMP JUMPDEST PUSH1 0x0 PUSH1 0x20 DUP3 ADD SWAP1 POP PUSH2 0x20E PUSH1 0x0 DUP4 ADD DUP5 PUSH2 0x18C JUMP JUMPDEST SWAP3 SWAP2 POP POP JUMP JUMPDEST PUSH1 0x0 PUSH1 0x20 DUP3 ADD SWAP1 POP DUP2 DUP2 SUB PUSH1 0x0 DUP4 ADD MSTORE PUSH2 0x22E DUP2 DUP5 PUSH2 0x19B JUMP JUMPDEST SWAP1 POP SWAP3 SWAP2 POP POP JUMP JUMPDEST PUSH1 0x0 DUP2 SWAP1 POP PUSH1 0x20 DUP3 ADD SWAP1 POP SWAP2 SWAP1 POP JUMP JUMPDEST PUSH1 0x0 DUP2 MLOAD SWAP1 POP SWAP2 SWAP1 POP JUMP JUMPDEST PUSH1 0x0 PUSH1 0x20 DUP3 ADD SWAP1 POP SWAP2 SWAP1 POP JUMP JUMPDEST PUSH1 0x0 DUP3 DUP3 MSTORE PUSH1 0x20 DUP3 ADD SWAP1 POP SWAP3 SWAP2 POP POP JUMP JUMPDEST PUSH1 0x0 PUSH2 0x27A DUP3 PUSH2 0x281 JUMP JUMPDEST SWAP1 POP SWAP2 SWAP1 POP JUMP JUMPDEST PUSH1 0x0 PUSH20 0xFFFFFFFFFFFFFFFFFFFFFFFFFFFFFFFFFFFFFFFF DUP3 AND SWAP1 POP SWAP2 SWAP1 POP JUMP JUMPDEST PUSH1 0x0 DUP2 SWAP1 POP SWAP2 SWAP1 POP JUMP JUMPDEST PUSH1 0x0 DUP1 REVERT JUMPDEST PUSH2 0x2B9 DUP2 PUSH2 0x26F JUMP JUMPDEST DUP2 EQ PUSH2 0x2C4 JUMPI PUSH1 0x0 DUP1 REVERT JUMPDEST POP JUMP JUMPDEST PUSH2 0x2D0 DUP2 PUSH2 0x2A1 JUMP JUMPDEST DUP2 EQ PUSH2 0x2DB JUMPI PUSH1 0x0 DUP1 REVERT JUMPDEST POP JUMP INVALID LOG2 PUSH5 0x6970667358 0x22 SLT KECCAK256 0xDF 0xD3 MOD DIV SLT SWAP8 LOG2 TIMESTAMP 0x4C 0xE8 PUSH29 0x433323897AB68B599CE948FD27551B9A65F12260F064736F6C63430008 SMOD STOP CALLER "
				},
				"gasEstimates": {
					"creation": {
						"codeDepositCost": "157600",
						"executionCost": "202",
						"totalCost": "157802"
					},
					"external": {
						"Token_stud_address_array(uint256)": "4956",
						"addingToken_stud_address(address)": "infinite"
					}
				},
				"methodIdentifiers": {
					"Token_stud_address_array(uint256)": "649ecbde",
					"addingToken_stud_address(address)": "1baa032c"
				}
			},
			"storageLayout": {
				"storage": [
					{
						"astId": 4,
						"contract": "contracts/ToToken-stud.sol:ToToken_stud",
						"label": "Token_stud_address_array",
						"offset": 0,
						"slot": "0",
						"type": "t_array(t_address)dyn_storage"
					}
				],
				"types": {
					"t_address": {
						"encoding": "inplace",
						"label": "address",
						"numberOfBytes": "20"
					},
					"t_array(t_address)dyn_storage": {
						"base": "t_address",
						"encoding": "dynamic_array",
						"label": "address[]",
						"numberOfBytes": "32"
					}
				}
			},
			"userdoc": {
				"kind": "user",
				"methods": {},
				"version": 1
			}
		}
	}
}