{
	"contracts/TokenStudents.sol": {
		"TokenStudents": {
			"abi": [
				{
					"inputs": [
						{
							"internalType": "address",
							"name": "_administratorAddress",
							"type": "address"
						}
					],
					"stateMutability": "nonpayable",
					"type": "constructor"
				},
				{
					"inputs": [
						{
							"internalType": "address",
							"name": "_newRewardAddress",
							"type": "address"
						}
					],
					"name": "addRewards",
					"outputs": [],
					"stateMutability": "nonpayable",
					"type": "function"
				},
				{
					"inputs": [],
					"name": "administrator",
					"outputs": [
						{
							"internalType": "address",
							"name": "",
							"type": "address"
						}
					],
					"stateMutability": "view",
					"type": "function"
				},
				{
					"inputs": [
						{
							"internalType": "address",
							"name": "checkAddress",
							"type": "address"
						}
					],
					"name": "checkStudent",
					"outputs": [
						{
							"internalType": "bool",
							"name": "",
							"type": "bool"
						}
					],
					"stateMutability": "view",
					"type": "function"
				},
				{
					"inputs": [
						{
							"internalType": "address",
							"name": "",
							"type": "address"
						}
					],
					"name": "idCardMap",
					"outputs": [
						{
							"internalType": "uint256",
							"name": "",
							"type": "uint256"
						}
					],
					"stateMutability": "view",
					"type": "function"
				},
				{
					"inputs": [
						{
							"internalType": "address",
							"name": "_newAddress",
							"type": "address"
						},
						{
							"internalType": "uint256",
							"name": "_currentYear",
							"type": "uint256"
						}
					],
					"name": "issueIdCard",
					"outputs": [],
					"stateMutability": "nonpayable",
					"type": "function"
				},
				{
					"inputs": [
						{
							"internalType": "address",
							"name": "_studentAddress",
							"type": "address"
						},
						{
							"internalType": "uint256",
							"name": "_tokensNumber",
							"type": "uint256"
						}
					],
					"name": "issueTokens",
					"outputs": [],
					"stateMutability": "nonpayable",
					"type": "function"
				},
				{
					"inputs": [
						{
							"internalType": "address",
							"name": "_whereToPay",
							"type": "address"
						},
						{
							"internalType": "uint256",
							"name": "_howMuchPay",
							"type": "uint256"
						}
					],
					"name": "payToStudent",
					"outputs": [],
					"stateMutability": "payable",
					"type": "function"
				},
				{
					"inputs": [
						{
							"internalType": "address",
							"name": "_whereToPay",
							"type": "address"
						},
						{
							"internalType": "uint256",
							"name": "_howMuchPay",
							"type": "uint256"
						}
					],
					"name": "payToVendor",
					"outputs": [],
					"stateMutability": "payable",
					"type": "function"
				},
				{
					"inputs": [
						{
							"internalType": "address",
							"name": "_removeRewardAddress",
							"type": "address"
						}
					],
					"name": "removeRewards",
					"outputs": [],
					"stateMutability": "nonpayable",
					"type": "function"
				},
				{
					"inputs": [
						{
							"internalType": "uint256",
							"name": "",
							"type": "uint256"
						}
					],
					"name": "rewardsArray",
					"outputs": [
						{
							"internalType": "address",
							"name": "",
							"type": "address"
						}
					],
					"stateMutability": "view",
					"type": "function"
				},
				{
					"inputs": [],
					"name": "rewardsArrayLength",
					"outputs": [
						{
							"internalType": "uint256",
							"name": "",
							"type": "uint256"
						}
					],
					"stateMutability": "view",
					"type": "function"
				},
				{
					"inputs": [
						{
							"internalType": "address",
							"name": "",
							"type": "address"
						}
					],
					"name": "yearMap",
					"outputs": [
						{
							"internalType": "uint256",
							"name": "",
							"type": "uint256"
						}
					],
					"stateMutability": "view",
					"type": "function"
				}
			],
			"devdoc": {
				"kind": "dev",
				"methods": {},
				"version": 1
			},
			"evm": {
				"assembly": "    /* \"contracts/TokenStudents.sol\":60:4010  contract TokenStudents {\r... */\n  mstore(0x40, 0xc0)\n    /* \"contracts/TokenStudents.sol\":90:218  constructor (address _administratorAddress){\r... */\n  callvalue\n  dup1\n  iszero\n  tag_1\n  jumpi\n  0x00\n  dup1\n  revert\ntag_1:\n  pop\n  mload(0x40)\n  sub(codesize, bytecodeSize)\n  dup1\n  bytecodeSize\n  dup4\n  codecopy\n  dup2\n  dup2\n  add\n  0x40\n  mstore\n  dup2\n  add\n  swap1\n  tag_2\n  swap2\n  swap1\n  tag_3\n  jump\t// in\ntag_2:\n    /* \"contracts/TokenStudents.sol\":152:162  msg.sender */\n  caller\n    /* \"contracts/TokenStudents.sol\":144:162  admin = msg.sender */\n  0xffffffffffffffffffffffffffffffffffffffff\n  and\n  0x80\n  dup2\n  0xffffffffffffffffffffffffffffffffffffffff\n  and\n  0x60\n  shl\n  dup2\n  mstore\n  pop\n  pop\n    /* \"contracts/TokenStudents.sol\":189:210  _administratorAddress */\n  dup1\n    /* \"contracts/TokenStudents.sol\":173:210  administrator = _administratorAddress */\n  0xffffffffffffffffffffffffffffffffffffffff\n  and\n  0xa0\n  dup2\n  0xffffffffffffffffffffffffffffffffffffffff\n  and\n  0x60\n  shl\n  dup2\n  mstore\n  pop\n  pop\n    /* \"contracts/TokenStudents.sol\":90:218  constructor (address _administratorAddress){\r... */\n  pop\n    /* \"contracts/TokenStudents.sol\":60:4010  contract TokenStudents {\r... */\n  jump(tag_6)\n    /* \"#utility.yul\":7:150   */\ntag_8:\n    /* \"#utility.yul\":64:69   */\n  0x00\n    /* \"#utility.yul\":95:101   */\n  dup2\n    /* \"#utility.yul\":89:102   */\n  mload\n    /* \"#utility.yul\":80:102   */\n  swap1\n  pop\n    /* \"#utility.yul\":111:144   */\n  tag_10\n    /* \"#utility.yul\":138:143   */\n  dup2\n    /* \"#utility.yul\":111:144   */\n  tag_11\n  jump\t// in\ntag_10:\n    /* \"#utility.yul\":7:150   */\n  swap3\n  swap2\n  pop\n  pop\n  jump\t// out\n    /* \"#utility.yul\":156:507   */\ntag_3:\n    /* \"#utility.yul\":226:232   */\n  0x00\n    /* \"#utility.yul\":275:277   */\n  0x20\n    /* \"#utility.yul\":263:272   */\n  dup3\n    /* \"#utility.yul\":254:261   */\n  dup5\n    /* \"#utility.yul\":250:273   */\n  sub\n    /* \"#utility.yul\":246:278   */\n  slt\n    /* \"#utility.yul\":243:362   */\n  iszero\n  tag_13\n  jumpi\n    /* \"#utility.yul\":281:360   */\n  tag_14\n  tag_15\n  jump\t// in\ntag_14:\n    /* \"#utility.yul\":243:362   */\ntag_13:\n    /* \"#utility.yul\":401:402   */\n  0x00\n    /* \"#utility.yul\":426:490   */\n  tag_16\n    /* \"#utility.yul\":482:489   */\n  dup5\n    /* \"#utility.yul\":473:479   */\n  dup3\n    /* \"#utility.yul\":462:471   */\n  dup6\n    /* \"#utility.yul\":458:480   */\n  add\n    /* \"#utility.yul\":426:490   */\n  tag_8\n  jump\t// in\ntag_16:\n    /* \"#utility.yul\":416:490   */\n  swap2\n  pop\n    /* \"#utility.yul\":372:500   */\n  pop\n    /* \"#utility.yul\":156:507   */\n  swap3\n  swap2\n  pop\n  pop\n  jump\t// out\n    /* \"#utility.yul\":594:690   */\ntag_19:\n    /* \"#utility.yul\":631:638   */\n  0x00\n    /* \"#utility.yul\":660:684   */\n  tag_21\n    /* \"#utility.yul\":678:683   */\n  dup3\n    /* \"#utility.yul\":660:684   */\n  tag_22\n  jump\t// in\ntag_21:\n    /* \"#utility.yul\":649:684   */\n  swap1\n  pop\n    /* \"#utility.yul\":594:690   */\n  swap2\n  swap1\n  pop\n  jump\t// out\n    /* \"#utility.yul\":696:822   */\ntag_22:\n    /* \"#utility.yul\":733:740   */\n  0x00\n    /* \"#utility.yul\":773:815   */\n  0xffffffffffffffffffffffffffffffffffffffff\n    /* \"#utility.yul\":766:771   */\n  dup3\n    /* \"#utility.yul\":762:816   */\n  and\n    /* \"#utility.yul\":751:816   */\n  swap1\n  pop\n    /* \"#utility.yul\":696:822   */\n  swap2\n  swap1\n  pop\n  jump\t// out\n    /* \"#utility.yul\":951:1068   */\ntag_15:\n    /* \"#utility.yul\":1060:1061   */\n  0x00\n    /* \"#utility.yul\":1057:1058   */\n  dup1\n    /* \"#utility.yul\":1050:1062   */\n  revert\n    /* \"#utility.yul\":1074:1196   */\ntag_11:\n    /* \"#utility.yul\":1147:1171   */\n  tag_28\n    /* \"#utility.yul\":1165:1170   */\n  dup2\n    /* \"#utility.yul\":1147:1171   */\n  tag_19\n  jump\t// in\ntag_28:\n    /* \"#utility.yul\":1140:1145   */\n  dup2\n    /* \"#utility.yul\":1137:1172   */\n  eq\n    /* \"#utility.yul\":1127:1190   */\n  tag_29\n  jumpi\n    /* \"#utility.yul\":1186:1187   */\n  0x00\n    /* \"#utility.yul\":1183:1184   */\n  dup1\n    /* \"#utility.yul\":1176:1188   */\n  revert\n    /* \"#utility.yul\":1127:1190   */\ntag_29:\n    /* \"#utility.yul\":1074:1196   */\n  pop\n  jump\t// out\n    /* \"contracts/TokenStudents.sol\":60:4010  contract TokenStudents {\r... */\ntag_6:\n  shr(0x60, mload(0x80))\n  shr(0x60, mload(0xa0))\n  codecopy(0x00, dataOffset(sub_0), dataSize(sub_0))\n  0x00\n  assignImmutable(\"0x57014f1e5f1d53e43fa40624186159531d6372d1ab8f40ec7882845ca66de31d\")\n  0x00\n  assignImmutable(\"0x8fd0324b6a5df169e0aa0c7938ef0034d0e971a998f91b36eba211882d3617b1\")\n  return(0x00, dataSize(sub_0))\nstop\n\nsub_0: assembly {\n        /* \"contracts/TokenStudents.sol\":60:4010  contract TokenStudents {\r... */\n      mstore(0x40, 0x80)\n      jumpi(tag_1, lt(calldatasize, 0x04))\n      shr(0xe0, calldataload(0x00))\n      dup1\n      0xcec95abd\n      gt\n      tag_14\n      jumpi\n      dup1\n      0xcec95abd\n      eq\n      tag_8\n      jumpi\n      dup1\n      0xe73b49b4\n      eq\n      tag_9\n      jumpi\n      dup1\n      0xeb2ea054\n      eq\n      tag_10\n      jumpi\n      dup1\n      0xef203825\n      eq\n      tag_11\n      jumpi\n      dup1\n      0xf481345a\n      eq\n      tag_12\n      jumpi\n      dup1\n      0xf53d0a8e\n      eq\n      tag_13\n      jumpi\n      jump(tag_1)\n    tag_14:\n      dup1\n      0x07bb67b6\n      eq\n      tag_2\n      jumpi\n      dup1\n      0x475a9fa9\n      eq\n      tag_3\n      jumpi\n      dup1\n      0x4bc8dd1f\n      eq\n      tag_4\n      jumpi\n      dup1\n      0x532950f4\n      eq\n      tag_5\n      jumpi\n      dup1\n      0x9dfb3381\n      eq\n      tag_6\n      jumpi\n      dup1\n      0xba32fdca\n      eq\n      tag_7\n      jumpi\n    tag_1:\n      0x00\n      dup1\n      revert\n        /* \"contracts/TokenStudents.sol\":505:546  mapping(address => uint) public idCardMap */\n    tag_2:\n      callvalue\n      dup1\n      iszero\n      tag_15\n      jumpi\n      0x00\n      dup1\n      revert\n    tag_15:\n      pop\n      tag_16\n      0x04\n      dup1\n      calldatasize\n      sub\n      dup2\n      add\n      swap1\n      tag_17\n      swap2\n      swap1\n      tag_18\n      jump\t// in\n    tag_17:\n      tag_19\n      jump\t// in\n    tag_16:\n      mload(0x40)\n      tag_20\n      swap2\n      swap1\n      tag_21\n      jump\t// in\n    tag_20:\n      mload(0x40)\n      dup1\n      swap2\n      sub\n      swap1\n      return\n        /* \"contracts/TokenStudents.sol\":900:1156  function issueTokens(address _studentAddress, uint _tokensNumber) public onlyAdmin{ \r... */\n    tag_3:\n      callvalue\n      dup1\n      iszero\n      tag_22\n      jumpi\n      0x00\n      dup1\n      revert\n    tag_22:\n      pop\n      tag_23\n      0x04\n      dup1\n      calldatasize\n      sub\n      dup2\n      add\n      swap1\n      tag_24\n      swap2\n      swap1\n      tag_25\n      jump\t// in\n    tag_24:\n      tag_26\n      jump\t// in\n    tag_23:\n      stop\n        /* \"contracts/TokenStudents.sol\":2107:2453  function payToVendor(address _whereToPay, uint _howMuchPay) public payable {\r... */\n    tag_4:\n      tag_27\n      0x04\n      dup1\n      calldatasize\n      sub\n      dup2\n      add\n      swap1\n      tag_28\n      swap2\n      swap1\n      tag_25\n      jump\t// in\n    tag_28:\n      tag_29\n      jump\t// in\n    tag_27:\n      stop\n        /* \"contracts/TokenStudents.sol\":1199:1228  address[] public rewardsArray */\n    tag_5:\n      callvalue\n      dup1\n      iszero\n      tag_30\n      jumpi\n      0x00\n      dup1\n      revert\n    tag_30:\n      pop\n      tag_31\n      0x04\n      dup1\n      calldatasize\n      sub\n      dup2\n      add\n      swap1\n      tag_32\n      swap2\n      swap1\n      tag_33\n      jump\t// in\n    tag_32:\n      tag_34\n      jump\t// in\n    tag_31:\n      mload(0x40)\n      tag_35\n      swap2\n      swap1\n      tag_36\n      jump\t// in\n    tag_35:\n      mload(0x40)\n      dup1\n      swap2\n      sub\n      swap1\n      return\n        /* \"contracts/TokenStudents.sol\":1477:1807  function removeRewards(address _removeRewardAddress) public onlyAdministrator{\r... */\n    tag_6:\n      callvalue\n      dup1\n      iszero\n      tag_37\n      jumpi\n      0x00\n      dup1\n      revert\n    tag_37:\n      pop\n      tag_38\n      0x04\n      dup1\n      calldatasize\n      sub\n      dup2\n      add\n      swap1\n      tag_39\n      swap2\n      swap1\n      tag_18\n      jump\t// in\n    tag_39:\n      tag_40\n      jump\t// in\n    tag_38:\n      stop\n        /* \"contracts/TokenStudents.sol\":1237:1337  function rewardsArrayLength() public view returns(uint){\r... */\n    tag_7:\n      callvalue\n      dup1\n      iszero\n      tag_41\n      jumpi\n      0x00\n      dup1\n      revert\n    tag_41:\n      pop\n      tag_42\n      tag_43\n      jump\t// in\n    tag_42:\n      mload(0x40)\n      tag_44\n      swap2\n      swap1\n      tag_21\n      jump\t// in\n    tag_44:\n      mload(0x40)\n      dup1\n      swap2\n      sub\n      swap1\n      return\n        /* \"contracts/TokenStudents.sol\":2461:3198  function payToStudent(address _whereToPay, uint _howMuchPay) public payable {\r... */\n    tag_8:\n      tag_45\n      0x04\n      dup1\n      calldatasize\n      sub\n      dup2\n      add\n      swap1\n      tag_46\n      swap2\n      swap1\n      tag_25\n      jump\t// in\n    tag_46:\n      tag_47\n      jump\t// in\n    tag_45:\n      stop\n        /* \"contracts/TokenStudents.sol\":1345:1471  function addRewards(address _newRewardAddress) public onlyAdministrator{\r... */\n    tag_9:\n      callvalue\n      dup1\n      iszero\n      tag_48\n      jumpi\n      0x00\n      dup1\n      revert\n    tag_48:\n      pop\n      tag_49\n      0x04\n      dup1\n      calldatasize\n      sub\n      dup2\n      add\n      swap1\n      tag_50\n      swap2\n      swap1\n      tag_18\n      jump\t// in\n    tag_50:\n      tag_51\n      jump\t// in\n    tag_49:\n      stop\n        /* \"contracts/TokenStudents.sol\":601:769  function issueIdCard(address _newAddress, uint _currentYear) public onlyAdmin{\r... */\n    tag_10:\n      callvalue\n      dup1\n      iszero\n      tag_52\n      jumpi\n      0x00\n      dup1\n      revert\n    tag_52:\n      pop\n      tag_53\n      0x04\n      dup1\n      calldatasize\n      sub\n      dup2\n      add\n      swap1\n      tag_54\n      swap2\n      swap1\n      tag_25\n      jump\t// in\n    tag_54:\n      tag_55\n      jump\t// in\n    tag_53:\n      stop\n        /* \"contracts/TokenStudents.sol\":553:592  mapping(address => uint) public yearMap */\n    tag_11:\n      callvalue\n      dup1\n      iszero\n      tag_56\n      jumpi\n      0x00\n      dup1\n      revert\n    tag_56:\n      pop\n      tag_57\n      0x04\n      dup1\n      calldatasize\n      sub\n      dup2\n      add\n      swap1\n      tag_58\n      swap2\n      swap1\n      tag_18\n      jump\t// in\n    tag_58:\n      tag_59\n      jump\t// in\n    tag_57:\n      mload(0x40)\n      tag_60\n      swap2\n      swap1\n      tag_21\n      jump\t// in\n    tag_60:\n      mload(0x40)\n      dup1\n      swap2\n      sub\n      swap1\n      return\n        /* \"contracts/TokenStudents.sol\":1840:2099  function checkStudent(address checkAddress) public view returns(bool){    //doubt what is value of not existing address?\r... */\n    tag_12:\n      callvalue\n      dup1\n      iszero\n      tag_61\n      jumpi\n      0x00\n      dup1\n      revert\n    tag_61:\n      pop\n      tag_62\n      0x04\n      dup1\n      calldatasize\n      sub\n      dup2\n      add\n      swap1\n      tag_63\n      swap2\n      swap1\n      tag_18\n      jump\t// in\n    tag_63:\n      tag_64\n      jump\t// in\n    tag_62:\n      mload(0x40)\n      tag_65\n      swap2\n      swap1\n      tag_66\n      jump\t// in\n    tag_65:\n      mload(0x40)\n      dup1\n      swap2\n      sub\n      swap1\n      return\n        /* \"contracts/TokenStudents.sol\":849:887  address public immutable administrator */\n    tag_13:\n      callvalue\n      dup1\n      iszero\n      tag_67\n      jumpi\n      0x00\n      dup1\n      revert\n    tag_67:\n      pop\n      tag_68\n      tag_69\n      jump\t// in\n    tag_68:\n      mload(0x40)\n      tag_70\n      swap2\n      swap1\n      tag_36\n      jump\t// in\n    tag_70:\n      mload(0x40)\n      dup1\n      swap2\n      sub\n      swap1\n      return\n        /* \"contracts/TokenStudents.sol\":505:546  mapping(address => uint) public idCardMap */\n    tag_19:\n      mstore(0x20, 0x00)\n      dup1\n      0x00\n      mstore\n      keccak256(0x00, 0x40)\n      0x00\n      swap2\n      pop\n      swap1\n      pop\n      sload\n      dup2\n      jump\t// out\n        /* \"contracts/TokenStudents.sol\":900:1156  function issueTokens(address _studentAddress, uint _tokensNumber) public onlyAdmin{ \r... */\n    tag_26:\n        /* \"contracts/TokenStudents.sol\":275:280  admin */\n      immutable(\"0x8fd0324b6a5df169e0aa0c7938ef0034d0e971a998f91b36eba211882d3617b1\")\n        /* \"contracts/TokenStudents.sol\":261:280  msg.sender == admin */\n      0xffffffffffffffffffffffffffffffffffffffff\n      and\n        /* \"contracts/TokenStudents.sol\":261:271  msg.sender */\n      caller\n        /* \"contracts/TokenStudents.sol\":261:280  msg.sender == admin */\n      0xffffffffffffffffffffffffffffffffffffffff\n      and\n      eq\n        /* \"contracts/TokenStudents.sol\":253:312  require(msg.sender == admin, \"Sorry! only admin can issue\") */\n      tag_72\n      jumpi\n      mload(0x40)\n      0x08c379a000000000000000000000000000000000000000000000000000000000\n      dup2\n      mstore\n      0x04\n      add\n      tag_73\n      swap1\n      tag_74\n      jump\t// in\n    tag_73:\n      mload(0x40)\n      dup1\n      swap2\n      sub\n      swap1\n      revert\n    tag_72:\n        /* \"contracts/TokenStudents.sol\":1030:1034  true */\n      0x01\n        /* \"contracts/TokenStudents.sol\":997:1034  checkStudent(_studentAddress) == true */\n      iszero\n      iszero\n        /* \"contracts/TokenStudents.sol\":997:1026  checkStudent(_studentAddress) */\n      tag_76\n        /* \"contracts/TokenStudents.sol\":1010:1025  _studentAddress */\n      dup4\n        /* \"contracts/TokenStudents.sol\":997:1009  checkStudent */\n      tag_64\n        /* \"contracts/TokenStudents.sol\":997:1026  checkStudent(_studentAddress) */\n      jump\t// in\n    tag_76:\n        /* \"contracts/TokenStudents.sol\":997:1034  checkStudent(_studentAddress) == true */\n      iszero\n      iszero\n      eq\n        /* \"contracts/TokenStudents.sol\":994:1149  if(checkStudent(_studentAddress) == true){\r... */\n      iszero\n      tag_77\n      jumpi\n        /* \"contracts/TokenStudents.sol\":1080:1093  _tokensNumber */\n      dup1\n        /* \"contracts/TokenStudents.sol\":1050:1059  idCardMap */\n      0x00\n        /* \"contracts/TokenStudents.sol\":1050:1076  idCardMap[_studentAddress] */\n      dup1\n        /* \"contracts/TokenStudents.sol\":1060:1075  _studentAddress */\n      dup5\n        /* \"contracts/TokenStudents.sol\":1050:1076  idCardMap[_studentAddress] */\n      0xffffffffffffffffffffffffffffffffffffffff\n      and\n      0xffffffffffffffffffffffffffffffffffffffff\n      and\n      dup2\n      mstore\n      0x20\n      add\n      swap1\n      dup2\n      mstore\n      0x20\n      add\n      0x00\n      keccak256\n      0x00\n        /* \"contracts/TokenStudents.sol\":1050:1093  idCardMap[_studentAddress] += _tokensNumber */\n      dup3\n      dup3\n      sload\n      tag_78\n      swap2\n      swap1\n      tag_79\n      jump\t// in\n    tag_78:\n      swap3\n      pop\n      pop\n      dup2\n      swap1\n      sstore\n      pop\n        /* \"contracts/TokenStudents.sol\":994:1149  if(checkStudent(_studentAddress) == true){\r... */\n    tag_77:\n        /* \"contracts/TokenStudents.sol\":900:1156  function issueTokens(address _studentAddress, uint _tokensNumber) public onlyAdmin{ \r... */\n      pop\n      pop\n      jump\t// out\n        /* \"contracts/TokenStudents.sol\":2107:2453  function payToVendor(address _whereToPay, uint _howMuchPay) public payable {\r... */\n    tag_29:\n        /* \"contracts/TokenStudents.sol\":2240:2241  0 */\n      0x00\n        /* \"contracts/TokenStudents.sol\":2225:2236  _howMuchPay */\n      dup2\n        /* \"contracts/TokenStudents.sol\":2201:2210  idCardMap */\n      0x00\n        /* \"contracts/TokenStudents.sol\":2201:2222  idCardMap[msg.sender] */\n      dup1\n        /* \"contracts/TokenStudents.sol\":2211:2221  msg.sender */\n      caller\n        /* \"contracts/TokenStudents.sol\":2201:2222  idCardMap[msg.sender] */\n      0xffffffffffffffffffffffffffffffffffffffff\n      and\n      0xffffffffffffffffffffffffffffffffffffffff\n      and\n      dup2\n      mstore\n      0x20\n      add\n      swap1\n      dup2\n      mstore\n      0x20\n      add\n      0x00\n      keccak256\n      sload\n        /* \"contracts/TokenStudents.sol\":2201:2236  idCardMap[msg.sender] - _howMuchPay */\n      tag_81\n      swap2\n      swap1\n      tag_82\n      jump\t// in\n    tag_81:\n        /* \"contracts/TokenStudents.sol\":2201:2241  idCardMap[msg.sender] - _howMuchPay >= 0 */\n      lt\n      iszero\n        /* \"contracts/TokenStudents.sol\":2193:2262  require(idCardMap[msg.sender] - _howMuchPay >= 0,\"not enough tokens\") */\n      tag_83\n      jumpi\n      mload(0x40)\n      0x08c379a000000000000000000000000000000000000000000000000000000000\n      dup2\n      mstore\n      0x04\n      add\n      tag_84\n      swap1\n      tag_85\n      jump\t// in\n    tag_84:\n      mload(0x40)\n      dup1\n      swap2\n      sub\n      swap1\n      revert\n    tag_83:\n        /* \"contracts/TokenStudents.sol\":2277:2283  uint i */\n      0x00\n        /* \"contracts/TokenStudents.sol\":2273:2446  for(uint i=0 ; i<rewardsArray.length ; i++){\r... */\n    tag_86:\n        /* \"contracts/TokenStudents.sol\":2290:2302  rewardsArray */\n      0x02\n        /* \"contracts/TokenStudents.sol\":2290:2309  rewardsArray.length */\n      dup1\n      sload\n      swap1\n      pop\n        /* \"contracts/TokenStudents.sol\":2288:2289  i */\n      dup2\n        /* \"contracts/TokenStudents.sol\":2288:2309  i<rewardsArray.length */\n      lt\n        /* \"contracts/TokenStudents.sol\":2273:2446  for(uint i=0 ; i<rewardsArray.length ; i++){\r... */\n      iszero\n      tag_87\n      jumpi\n        /* \"contracts/TokenStudents.sol\":2349:2361  rewardsArray */\n      0x02\n        /* \"contracts/TokenStudents.sol\":2362:2363  i */\n      dup2\n        /* \"contracts/TokenStudents.sol\":2349:2364  rewardsArray[i] */\n      dup2\n      sload\n      dup2\n      lt\n      tag_89\n      jumpi\n      tag_90\n      tag_91\n      jump\t// in\n    tag_90:\n    tag_89:\n      swap1\n      0x00\n      mstore\n      keccak256(0x00, 0x20)\n      add\n      0x00\n      swap1\n      sload\n      swap1\n      0x0100\n      exp\n      swap1\n      div\n      0xffffffffffffffffffffffffffffffffffffffff\n      and\n        /* \"contracts/TokenStudents.sol\":2334:2364  _whereToPay == rewardsArray[i] */\n      0xffffffffffffffffffffffffffffffffffffffff\n      and\n        /* \"contracts/TokenStudents.sol\":2334:2345  _whereToPay */\n      dup4\n        /* \"contracts/TokenStudents.sol\":2334:2364  _whereToPay == rewardsArray[i] */\n      0xffffffffffffffffffffffffffffffffffffffff\n      and\n      eq\n        /* \"contracts/TokenStudents.sol\":2331:2435  if(_whereToPay == rewardsArray[i]){\r... */\n      iszero\n      tag_93\n      jumpi\n        /* \"contracts/TokenStudents.sol\":2408:2419  _howMuchPay */\n      dup2\n        /* \"contracts/TokenStudents.sol\":2383:2392  idCardMap */\n      0x00\n        /* \"contracts/TokenStudents.sol\":2383:2404  idCardMap[msg.sender] */\n      dup1\n        /* \"contracts/TokenStudents.sol\":2393:2403  msg.sender */\n      caller\n        /* \"contracts/TokenStudents.sol\":2383:2404  idCardMap[msg.sender] */\n      0xffffffffffffffffffffffffffffffffffffffff\n      and\n      0xffffffffffffffffffffffffffffffffffffffff\n      and\n      dup2\n      mstore\n      0x20\n      add\n      swap1\n      dup2\n      mstore\n      0x20\n      add\n      0x00\n      keccak256\n      0x00\n        /* \"contracts/TokenStudents.sol\":2383:2419  idCardMap[msg.sender] -= _howMuchPay */\n      dup3\n      dup3\n      sload\n      tag_94\n      swap2\n      swap1\n      tag_82\n      jump\t// in\n    tag_94:\n      swap3\n      pop\n      pop\n      dup2\n      swap1\n      sstore\n      pop\n        /* \"contracts/TokenStudents.sol\":2331:2435  if(_whereToPay == rewardsArray[i]){\r... */\n    tag_93:\n        /* \"contracts/TokenStudents.sol\":2312:2315  i++ */\n      dup1\n      dup1\n      tag_95\n      swap1\n      tag_96\n      jump\t// in\n    tag_95:\n      swap2\n      pop\n      pop\n        /* \"contracts/TokenStudents.sol\":2273:2446  for(uint i=0 ; i<rewardsArray.length ; i++){\r... */\n      jump(tag_86)\n    tag_87:\n      pop\n        /* \"contracts/TokenStudents.sol\":2107:2453  function payToVendor(address _whereToPay, uint _howMuchPay) public payable {\r... */\n      pop\n      pop\n      jump\t// out\n        /* \"contracts/TokenStudents.sol\":1199:1228  address[] public rewardsArray */\n    tag_34:\n      0x02\n      dup2\n      dup2\n      sload\n      dup2\n      lt\n      tag_97\n      jumpi\n      0x00\n      dup1\n      revert\n    tag_97:\n      swap1\n      0x00\n      mstore\n      keccak256(0x00, 0x20)\n      add\n      0x00\n      swap2\n      pop\n      sload\n      swap1\n      0x0100\n      exp\n      swap1\n      div\n      0xffffffffffffffffffffffffffffffffffffffff\n      and\n      dup2\n      jump\t// out\n        /* \"contracts/TokenStudents.sol\":1477:1807  function removeRewards(address _removeRewardAddress) public onlyAdministrator{\r... */\n    tag_40:\n        /* \"contracts/TokenStudents.sol\":397:410  administrator */\n      immutable(\"0x57014f1e5f1d53e43fa40624186159531d6372d1ab8f40ec7882845ca66de31d\")\n        /* \"contracts/TokenStudents.sol\":383:410  msg.sender == administrator */\n      0xffffffffffffffffffffffffffffffffffffffff\n      and\n        /* \"contracts/TokenStudents.sol\":383:393  msg.sender */\n      caller\n        /* \"contracts/TokenStudents.sol\":383:410  msg.sender == administrator */\n      0xffffffffffffffffffffffffffffffffffffffff\n      and\n      eq\n        /* \"contracts/TokenStudents.sol\":375:451  require(msg.sender == administrator, \"Sorry! only administrator can modify\") */\n      tag_100\n      jumpi\n      mload(0x40)\n      0x08c379a000000000000000000000000000000000000000000000000000000000\n      dup2\n      mstore\n      0x04\n      add\n      tag_101\n      swap1\n      tag_102\n      jump\t// in\n    tag_101:\n      mload(0x40)\n      dup1\n      swap2\n      sub\n      swap1\n      revert\n    tag_100:\n        /* \"contracts/TokenStudents.sol\":1569:1575  uint i */\n      0x00\n        /* \"contracts/TokenStudents.sol\":1565:1800  for(uint i=0; i<rewardsArray.length; i++){\r... */\n    tag_104:\n        /* \"contracts/TokenStudents.sol\":1581:1593  rewardsArray */\n      0x02\n        /* \"contracts/TokenStudents.sol\":1581:1600  rewardsArray.length */\n      dup1\n      sload\n      swap1\n      pop\n        /* \"contracts/TokenStudents.sol\":1579:1580  i */\n      dup2\n        /* \"contracts/TokenStudents.sol\":1579:1600  i<rewardsArray.length */\n      lt\n        /* \"contracts/TokenStudents.sol\":1565:1800  for(uint i=0; i<rewardsArray.length; i++){\r... */\n      iszero\n      tag_105\n      jumpi\n        /* \"contracts/TokenStudents.sol\":1643:1663  _removeRewardAddress */\n      dup2\n        /* \"contracts/TokenStudents.sol\":1624:1663  rewardsArray[i] == _removeRewardAddress */\n      0xffffffffffffffffffffffffffffffffffffffff\n      and\n        /* \"contracts/TokenStudents.sol\":1624:1636  rewardsArray */\n      0x02\n        /* \"contracts/TokenStudents.sol\":1637:1638  i */\n      dup3\n        /* \"contracts/TokenStudents.sol\":1624:1639  rewardsArray[i] */\n      dup2\n      sload\n      dup2\n      lt\n      tag_107\n      jumpi\n      tag_108\n      tag_91\n      jump\t// in\n    tag_108:\n    tag_107:\n      swap1\n      0x00\n      mstore\n      keccak256(0x00, 0x20)\n      add\n      0x00\n      swap1\n      sload\n      swap1\n      0x0100\n      exp\n      swap1\n      div\n      0xffffffffffffffffffffffffffffffffffffffff\n      and\n        /* \"contracts/TokenStudents.sol\":1624:1663  rewardsArray[i] == _removeRewardAddress */\n      0xffffffffffffffffffffffffffffffffffffffff\n      and\n      eq\n        /* \"contracts/TokenStudents.sol\":1621:1789  if(rewardsArray[i] == _removeRewardAddress){\r... */\n      iszero\n      tag_110\n      jumpi\n        /* \"contracts/TokenStudents.sol\":1701:1713  rewardsArray */\n      0x02\n        /* \"contracts/TokenStudents.sol\":1734:1735  1 */\n      0x01\n        /* \"contracts/TokenStudents.sol\":1714:1726  rewardsArray */\n      0x02\n        /* \"contracts/TokenStudents.sol\":1714:1733  rewardsArray.length */\n      dup1\n      sload\n      swap1\n      pop\n        /* \"contracts/TokenStudents.sol\":1714:1735  rewardsArray.length-1 */\n      tag_111\n      swap2\n      swap1\n      tag_82\n      jump\t// in\n    tag_111:\n        /* \"contracts/TokenStudents.sol\":1701:1736  rewardsArray[rewardsArray.length-1] */\n      dup2\n      sload\n      dup2\n      lt\n      tag_112\n      jumpi\n      tag_113\n      tag_91\n      jump\t// in\n    tag_113:\n    tag_112:\n      swap1\n      0x00\n      mstore\n      keccak256(0x00, 0x20)\n      add\n      0x00\n      swap1\n      sload\n      swap1\n      0x0100\n      exp\n      swap1\n      div\n      0xffffffffffffffffffffffffffffffffffffffff\n      and\n        /* \"contracts/TokenStudents.sol\":1683:1695  rewardsArray */\n      0x02\n        /* \"contracts/TokenStudents.sol\":1696:1697  i */\n      dup3\n        /* \"contracts/TokenStudents.sol\":1683:1698  rewardsArray[i] */\n      dup2\n      sload\n      dup2\n      lt\n      tag_115\n      jumpi\n      tag_116\n      tag_91\n      jump\t// in\n    tag_116:\n    tag_115:\n      swap1\n      0x00\n      mstore\n      keccak256(0x00, 0x20)\n      add\n      0x00\n        /* \"contracts/TokenStudents.sol\":1683:1736  rewardsArray[i] = rewardsArray[rewardsArray.length-1] */\n      0x0100\n      exp\n      dup2\n      sload\n      dup2\n      0xffffffffffffffffffffffffffffffffffffffff\n      mul\n      not\n      and\n      swap1\n      dup4\n      0xffffffffffffffffffffffffffffffffffffffff\n      and\n      mul\n      or\n      swap1\n      sstore\n      pop\n        /* \"contracts/TokenStudents.sol\":1755:1767  rewardsArray */\n      0x02\n        /* \"contracts/TokenStudents.sol\":1755:1773  rewardsArray.pop() */\n      dup1\n      sload\n      dup1\n      tag_118\n      jumpi\n      tag_119\n      tag_120\n      jump\t// in\n    tag_119:\n    tag_118:\n      0x01\n      swap1\n      sub\n      dup2\n      dup2\n      swap1\n      0x00\n      mstore\n      keccak256(0x00, 0x20)\n      add\n      exp(0x0100, 0x00)\n      dup2\n      sload\n      swap1\n      0xffffffffffffffffffffffffffffffffffffffff\n      mul\n      not\n      and\n      swap1\n      sstore\n      swap1\n      sstore\n        /* \"contracts/TokenStudents.sol\":1621:1789  if(rewardsArray[i] == _removeRewardAddress){\r... */\n    tag_110:\n        /* \"contracts/TokenStudents.sol\":1602:1605  i++ */\n      dup1\n      dup1\n      tag_122\n      swap1\n      tag_96\n      jump\t// in\n    tag_122:\n      swap2\n      pop\n      pop\n        /* \"contracts/TokenStudents.sol\":1565:1800  for(uint i=0; i<rewardsArray.length; i++){\r... */\n      jump(tag_104)\n    tag_105:\n      pop\n        /* \"contracts/TokenStudents.sol\":1477:1807  function removeRewards(address _removeRewardAddress) public onlyAdministrator{\r... */\n      pop\n      jump\t// out\n        /* \"contracts/TokenStudents.sol\":1237:1337  function rewardsArrayLength() public view returns(uint){\r... */\n    tag_43:\n        /* \"contracts/TokenStudents.sol\":1287:1291  uint */\n      0x00\n        /* \"contracts/TokenStudents.sol\":1310:1322  rewardsArray */\n      0x02\n        /* \"contracts/TokenStudents.sol\":1310:1329  rewardsArray.length */\n      dup1\n      sload\n      swap1\n      pop\n        /* \"contracts/TokenStudents.sol\":1303:1329  return rewardsArray.length */\n      swap1\n      pop\n        /* \"contracts/TokenStudents.sol\":1237:1337  function rewardsArrayLength() public view returns(uint){\r... */\n      swap1\n      jump\t// out\n        /* \"contracts/TokenStudents.sol\":2461:3198  function payToStudent(address _whereToPay, uint _howMuchPay) public payable {\r... */\n    tag_47:\n        /* \"contracts/TokenStudents.sol\":2595:2596  0 */\n      0x00\n        /* \"contracts/TokenStudents.sol\":2580:2591  _howMuchPay */\n      dup2\n        /* \"contracts/TokenStudents.sol\":2556:2565  idCardMap */\n      0x00\n        /* \"contracts/TokenStudents.sol\":2556:2577  idCardMap[msg.sender] */\n      dup1\n        /* \"contracts/TokenStudents.sol\":2566:2576  msg.sender */\n      caller\n        /* \"contracts/TokenStudents.sol\":2556:2577  idCardMap[msg.sender] */\n      0xffffffffffffffffffffffffffffffffffffffff\n      and\n      0xffffffffffffffffffffffffffffffffffffffff\n      and\n      dup2\n      mstore\n      0x20\n      add\n      swap1\n      dup2\n      mstore\n      0x20\n      add\n      0x00\n      keccak256\n      sload\n        /* \"contracts/TokenStudents.sol\":2556:2591  idCardMap[msg.sender] - _howMuchPay */\n      tag_125\n      swap2\n      swap1\n      tag_82\n      jump\t// in\n    tag_125:\n        /* \"contracts/TokenStudents.sol\":2556:2596  idCardMap[msg.sender] - _howMuchPay >= 0 */\n      lt\n      iszero\n        /* \"contracts/TokenStudents.sol\":2548:2617  require(idCardMap[msg.sender] - _howMuchPay >= 0,\"not enough tokens\") */\n      tag_126\n      jumpi\n      mload(0x40)\n      0x08c379a000000000000000000000000000000000000000000000000000000000\n      dup2\n      mstore\n      0x04\n      add\n      tag_127\n      swap1\n      tag_85\n      jump\t// in\n    tag_127:\n      mload(0x40)\n      dup1\n      swap2\n      sub\n      swap1\n      revert\n    tag_126:\n        /* \"contracts/TokenStudents.sol\":2660:2664  true */\n      0x01\n        /* \"contracts/TokenStudents.sol\":2631:2664  checkStudent(_whereToPay) == true */\n      iszero\n      iszero\n        /* \"contracts/TokenStudents.sol\":2631:2656  checkStudent(_whereToPay) */\n      tag_128\n        /* \"contracts/TokenStudents.sol\":2644:2655  _whereToPay */\n      dup4\n        /* \"contracts/TokenStudents.sol\":2631:2643  checkStudent */\n      tag_64\n        /* \"contracts/TokenStudents.sol\":2631:2656  checkStudent(_whereToPay) */\n      jump\t// in\n    tag_128:\n        /* \"contracts/TokenStudents.sol\":2631:2664  checkStudent(_whereToPay) == true */\n      iszero\n      iszero\n      eq\n        /* \"contracts/TokenStudents.sol\":2628:3191  if(checkStudent(_whereToPay) == true){\r... */\n      iszero\n      tag_129\n      jumpi\n        /* \"contracts/TokenStudents.sol\":2707:2714  yearMap */\n      0x01\n        /* \"contracts/TokenStudents.sol\":2707:2726  yearMap[msg.sender] */\n      0x00\n        /* \"contracts/TokenStudents.sol\":2715:2725  msg.sender */\n      caller\n        /* \"contracts/TokenStudents.sol\":2707:2726  yearMap[msg.sender] */\n      0xffffffffffffffffffffffffffffffffffffffff\n      and\n      0xffffffffffffffffffffffffffffffffffffffff\n      and\n      dup2\n      mstore\n      0x20\n      add\n      swap1\n      dup2\n      mstore\n      0x20\n      add\n      0x00\n      keccak256\n      sload\n        /* \"contracts/TokenStudents.sol\":2683:2690  yearMap */\n      0x01\n        /* \"contracts/TokenStudents.sol\":2683:2703  yearMap[_whereToPay] */\n      0x00\n        /* \"contracts/TokenStudents.sol\":2691:2702  _whereToPay */\n      dup5\n        /* \"contracts/TokenStudents.sol\":2683:2703  yearMap[_whereToPay] */\n      0xffffffffffffffffffffffffffffffffffffffff\n      and\n      0xffffffffffffffffffffffffffffffffffffffff\n      and\n      dup2\n      mstore\n      0x20\n      add\n      swap1\n      dup2\n      mstore\n      0x20\n      add\n      0x00\n      keccak256\n      sload\n        /* \"contracts/TokenStudents.sol\":2683:2726  yearMap[_whereToPay] != yearMap[msg.sender] */\n      eq\n        /* \"contracts/TokenStudents.sol\":2680:3180  if(yearMap[_whereToPay] != yearMap[msg.sender]){\r... */\n      tag_130\n      jumpi\n        /* \"contracts/TokenStudents.sol\":2771:2782  _howMuchPay */\n      dup1\n        /* \"contracts/TokenStudents.sol\":2746:2755  idCardMap */\n      0x00\n        /* \"contracts/TokenStudents.sol\":2746:2767  idCardMap[msg.sender] */\n      dup1\n        /* \"contracts/TokenStudents.sol\":2756:2766  msg.sender */\n      caller\n        /* \"contracts/TokenStudents.sol\":2746:2767  idCardMap[msg.sender] */\n      0xffffffffffffffffffffffffffffffffffffffff\n      and\n      0xffffffffffffffffffffffffffffffffffffffff\n      and\n      dup2\n      mstore\n      0x20\n      add\n      swap1\n      dup2\n      mstore\n      0x20\n      add\n      0x00\n      keccak256\n      0x00\n        /* \"contracts/TokenStudents.sol\":2746:2782  idCardMap[msg.sender] -= _howMuchPay */\n      dup3\n      dup3\n      sload\n      tag_131\n      swap2\n      swap1\n      tag_82\n      jump\t// in\n    tag_131:\n      swap3\n      pop\n      pop\n      dup2\n      swap1\n      sstore\n      pop\n        /* \"contracts/TokenStudents.sol\":2849:2850  4 */\n      0x04\n        /* \"contracts/TokenStudents.sol\":2834:2845  _howMuchPay */\n      dup2\n        /* \"contracts/TokenStudents.sol\":2830:2831  3 */\n      0x03\n        /* \"contracts/TokenStudents.sol\":2830:2845  3 * _howMuchPay */\n      tag_132\n      swap2\n      swap1\n      tag_133\n      jump\t// in\n    tag_132:\n        /* \"contracts/TokenStudents.sol\":2828:2850  ( 3 * _howMuchPay) / 4 */\n      tag_134\n      swap2\n      swap1\n      tag_135\n      jump\t// in\n    tag_134:\n        /* \"contracts/TokenStudents.sol\":2801:2810  idCardMap */\n      0x00\n        /* \"contracts/TokenStudents.sol\":2801:2823  idCardMap[_whereToPay] */\n      dup1\n        /* \"contracts/TokenStudents.sol\":2811:2822  _whereToPay */\n      dup5\n        /* \"contracts/TokenStudents.sol\":2801:2823  idCardMap[_whereToPay] */\n      0xffffffffffffffffffffffffffffffffffffffff\n      and\n      0xffffffffffffffffffffffffffffffffffffffff\n      and\n      dup2\n      mstore\n      0x20\n      add\n      swap1\n      dup2\n      mstore\n      0x20\n      add\n      0x00\n      keccak256\n      0x00\n        /* \"contracts/TokenStudents.sol\":2801:2851  idCardMap[_whereToPay] += (( 3 * _howMuchPay) / 4) */\n      dup3\n      dup3\n      sload\n      tag_136\n      swap2\n      swap1\n      tag_79\n      jump\t// in\n    tag_136:\n      swap3\n      pop\n      pop\n      dup2\n      swap1\n      sstore\n      pop\n        /* \"contracts/TokenStudents.sol\":2680:3180  if(yearMap[_whereToPay] != yearMap[msg.sender]){\r... */\n      jump(tag_137)\n    tag_130:\n        /* \"contracts/TokenStudents.sol\":2973:2980  yearMap */\n      0x01\n        /* \"contracts/TokenStudents.sol\":2973:2992  yearMap[msg.sender] */\n      0x00\n        /* \"contracts/TokenStudents.sol\":2981:2991  msg.sender */\n      caller\n        /* \"contracts/TokenStudents.sol\":2973:2992  yearMap[msg.sender] */\n      0xffffffffffffffffffffffffffffffffffffffff\n      and\n      0xffffffffffffffffffffffffffffffffffffffff\n      and\n      dup2\n      mstore\n      0x20\n      add\n      swap1\n      dup2\n      mstore\n      0x20\n      add\n      0x00\n      keccak256\n      sload\n        /* \"contracts/TokenStudents.sol\":2949:2956  yearMap */\n      0x01\n        /* \"contracts/TokenStudents.sol\":2949:2969  yearMap[_whereToPay] */\n      0x00\n        /* \"contracts/TokenStudents.sol\":2957:2968  _whereToPay */\n      dup5\n        /* \"contracts/TokenStudents.sol\":2949:2969  yearMap[_whereToPay] */\n      0xffffffffffffffffffffffffffffffffffffffff\n      and\n      0xffffffffffffffffffffffffffffffffffffffff\n      and\n      dup2\n      mstore\n      0x20\n      add\n      swap1\n      dup2\n      mstore\n      0x20\n      add\n      0x00\n      keccak256\n      sload\n        /* \"contracts/TokenStudents.sol\":2949:2992  yearMap[_whereToPay] == yearMap[msg.sender] */\n      eq\n        /* \"contracts/TokenStudents.sol\":2946:3180  if(yearMap[_whereToPay] == yearMap[msg.sender]){\r... */\n      iszero\n      tag_138\n      jumpi\n        /* \"contracts/TokenStudents.sol\":3037:3048  _howMuchPay */\n      dup1\n        /* \"contracts/TokenStudents.sol\":3012:3021  idCardMap */\n      0x00\n        /* \"contracts/TokenStudents.sol\":3012:3033  idCardMap[msg.sender] */\n      dup1\n        /* \"contracts/TokenStudents.sol\":3022:3032  msg.sender */\n      caller\n        /* \"contracts/TokenStudents.sol\":3012:3033  idCardMap[msg.sender] */\n      0xffffffffffffffffffffffffffffffffffffffff\n      and\n      0xffffffffffffffffffffffffffffffffffffffff\n      and\n      dup2\n      mstore\n      0x20\n      add\n      swap1\n      dup2\n      mstore\n      0x20\n      add\n      0x00\n      keccak256\n      0x00\n        /* \"contracts/TokenStudents.sol\":3012:3048  idCardMap[msg.sender] -= _howMuchPay */\n      dup3\n      dup3\n      sload\n      tag_139\n      swap2\n      swap1\n      tag_82\n      jump\t// in\n    tag_139:\n      swap3\n      pop\n      pop\n      dup2\n      swap1\n      sstore\n      pop\n        /* \"contracts/TokenStudents.sol\":3093:3104  _howMuchPay */\n      dup1\n        /* \"contracts/TokenStudents.sol\":3067:3076  idCardMap */\n      0x00\n        /* \"contracts/TokenStudents.sol\":3067:3089  idCardMap[_whereToPay] */\n      dup1\n        /* \"contracts/TokenStudents.sol\":3077:3088  _whereToPay */\n      dup5\n        /* \"contracts/TokenStudents.sol\":3067:3089  idCardMap[_whereToPay] */\n      0xffffffffffffffffffffffffffffffffffffffff\n      and\n      0xffffffffffffffffffffffffffffffffffffffff\n      and\n      dup2\n      mstore\n      0x20\n      add\n      swap1\n      dup2\n      mstore\n      0x20\n      add\n      0x00\n      keccak256\n      0x00\n        /* \"contracts/TokenStudents.sol\":3067:3104  idCardMap[_whereToPay] += _howMuchPay */\n      dup3\n      dup3\n      sload\n      tag_140\n      swap2\n      swap1\n      tag_79\n      jump\t// in\n    tag_140:\n      swap3\n      pop\n      pop\n      dup2\n      swap1\n      sstore\n      pop\n        /* \"contracts/TokenStudents.sol\":2946:3180  if(yearMap[_whereToPay] == yearMap[msg.sender]){\r... */\n    tag_138:\n        /* \"contracts/TokenStudents.sol\":2680:3180  if(yearMap[_whereToPay] != yearMap[msg.sender]){\r... */\n    tag_137:\n        /* \"contracts/TokenStudents.sol\":2628:3191  if(checkStudent(_whereToPay) == true){\r... */\n    tag_129:\n        /* \"contracts/TokenStudents.sol\":2461:3198  function payToStudent(address _whereToPay, uint _howMuchPay) public payable {\r... */\n      pop\n      pop\n      jump\t// out\n        /* \"contracts/TokenStudents.sol\":1345:1471  function addRewards(address _newRewardAddress) public onlyAdministrator{\r... */\n    tag_51:\n        /* \"contracts/TokenStudents.sol\":397:410  administrator */\n      immutable(\"0x57014f1e5f1d53e43fa40624186159531d6372d1ab8f40ec7882845ca66de31d\")\n        /* \"contracts/TokenStudents.sol\":383:410  msg.sender == administrator */\n      0xffffffffffffffffffffffffffffffffffffffff\n      and\n        /* \"contracts/TokenStudents.sol\":383:393  msg.sender */\n      caller\n        /* \"contracts/TokenStudents.sol\":383:410  msg.sender == administrator */\n      0xffffffffffffffffffffffffffffffffffffffff\n      and\n      eq\n        /* \"contracts/TokenStudents.sol\":375:451  require(msg.sender == administrator, \"Sorry! only administrator can modify\") */\n      tag_142\n      jumpi\n      mload(0x40)\n      0x08c379a000000000000000000000000000000000000000000000000000000000\n      dup2\n      mstore\n      0x04\n      add\n      tag_143\n      swap1\n      tag_102\n      jump\t// in\n    tag_143:\n      mload(0x40)\n      dup1\n      swap2\n      sub\n      swap1\n      revert\n    tag_142:\n        /* \"contracts/TokenStudents.sol\":1427:1439  rewardsArray */\n      0x02\n        /* \"contracts/TokenStudents.sol\":1445:1462  _newRewardAddress */\n      dup2\n        /* \"contracts/TokenStudents.sol\":1427:1463  rewardsArray.push(_newRewardAddress) */\n      swap1\n      dup1\n      0x01\n      dup2\n      sload\n      add\n      dup1\n      dup3\n      sstore\n      dup1\n      swap2\n      pop\n      pop\n      0x01\n      swap1\n      sub\n      swap1\n      0x00\n      mstore\n      keccak256(0x00, 0x20)\n      add\n      0x00\n      swap1\n      swap2\n      swap1\n      swap2\n      swap1\n      swap2\n      0x0100\n      exp\n      dup2\n      sload\n      dup2\n      0xffffffffffffffffffffffffffffffffffffffff\n      mul\n      not\n      and\n      swap1\n      dup4\n      0xffffffffffffffffffffffffffffffffffffffff\n      and\n      mul\n      or\n      swap1\n      sstore\n      pop\n        /* \"contracts/TokenStudents.sol\":1345:1471  function addRewards(address _newRewardAddress) public onlyAdministrator{\r... */\n      pop\n      jump\t// out\n        /* \"contracts/TokenStudents.sol\":601:769  function issueIdCard(address _newAddress, uint _currentYear) public onlyAdmin{\r... */\n    tag_55:\n        /* \"contracts/TokenStudents.sol\":275:280  admin */\n      immutable(\"0x8fd0324b6a5df169e0aa0c7938ef0034d0e971a998f91b36eba211882d3617b1\")\n        /* \"contracts/TokenStudents.sol\":261:280  msg.sender == admin */\n      0xffffffffffffffffffffffffffffffffffffffff\n      and\n        /* \"contracts/TokenStudents.sol\":261:271  msg.sender */\n      caller\n        /* \"contracts/TokenStudents.sol\":261:280  msg.sender == admin */\n      0xffffffffffffffffffffffffffffffffffffffff\n      and\n      eq\n        /* \"contracts/TokenStudents.sol\":253:312  require(msg.sender == admin, \"Sorry! only admin can issue\") */\n      tag_147\n      jumpi\n      mload(0x40)\n      0x08c379a000000000000000000000000000000000000000000000000000000000\n      dup2\n      mstore\n      0x04\n      add\n      tag_148\n      swap1\n      tag_74\n      jump\t// in\n    tag_148:\n      mload(0x40)\n      dup1\n      swap2\n      sub\n      swap1\n      revert\n    tag_147:\n        /* \"contracts/TokenStudents.sol\":714:715  0 */\n      0x00\n        /* \"contracts/TokenStudents.sol\":689:698  idCardMap */\n      dup1\n        /* \"contracts/TokenStudents.sol\":689:711  idCardMap[_newAddress] */\n      0x00\n        /* \"contracts/TokenStudents.sol\":699:710  _newAddress */\n      dup5\n        /* \"contracts/TokenStudents.sol\":689:711  idCardMap[_newAddress] */\n      0xffffffffffffffffffffffffffffffffffffffff\n      and\n      0xffffffffffffffffffffffffffffffffffffffff\n      and\n      dup2\n      mstore\n      0x20\n      add\n      swap1\n      dup2\n      mstore\n      0x20\n      add\n      0x00\n      keccak256\n        /* \"contracts/TokenStudents.sol\":689:715  idCardMap[_newAddress] = 0 */\n      dup2\n      swap1\n      sstore\n      pop\n        /* \"contracts/TokenStudents.sol\":749:761  _currentYear */\n      dup1\n        /* \"contracts/TokenStudents.sol\":726:733  yearMap */\n      0x01\n        /* \"contracts/TokenStudents.sol\":726:746  yearMap[_newAddress] */\n      0x00\n        /* \"contracts/TokenStudents.sol\":734:745  _newAddress */\n      dup5\n        /* \"contracts/TokenStudents.sol\":726:746  yearMap[_newAddress] */\n      0xffffffffffffffffffffffffffffffffffffffff\n      and\n      0xffffffffffffffffffffffffffffffffffffffff\n      and\n      dup2\n      mstore\n      0x20\n      add\n      swap1\n      dup2\n      mstore\n      0x20\n      add\n      0x00\n      keccak256\n        /* \"contracts/TokenStudents.sol\":726:761  yearMap[_newAddress] = _currentYear */\n      dup2\n      swap1\n      sstore\n      pop\n        /* \"contracts/TokenStudents.sol\":601:769  function issueIdCard(address _newAddress, uint _currentYear) public onlyAdmin{\r... */\n      pop\n      pop\n      jump\t// out\n        /* \"contracts/TokenStudents.sol\":553:592  mapping(address => uint) public yearMap */\n    tag_59:\n      mstore(0x20, 0x01)\n      dup1\n      0x00\n      mstore\n      keccak256(0x00, 0x40)\n      0x00\n      swap2\n      pop\n      swap1\n      pop\n      sload\n      dup2\n      jump\t// out\n        /* \"contracts/TokenStudents.sol\":1840:2099  function checkStudent(address checkAddress) public view returns(bool){    //doubt what is value of not existing address?\r... */\n    tag_64:\n        /* \"contracts/TokenStudents.sol\":1904:1908  bool */\n      0x00\n        /* \"contracts/TokenStudents.sol\":1997:1998  0 */\n      dup1\n        /* \"contracts/TokenStudents.sol\":1973:1980  yearMap */\n      0x01\n        /* \"contracts/TokenStudents.sol\":1973:1994  yearMap[checkAddress] */\n      0x00\n        /* \"contracts/TokenStudents.sol\":1981:1993  checkAddress */\n      dup5\n        /* \"contracts/TokenStudents.sol\":1973:1994  yearMap[checkAddress] */\n      0xffffffffffffffffffffffffffffffffffffffff\n      and\n      0xffffffffffffffffffffffffffffffffffffffff\n      and\n      dup2\n      mstore\n      0x20\n      add\n      swap1\n      dup2\n      mstore\n      0x20\n      add\n      0x00\n      keccak256\n      sload\n        /* \"contracts/TokenStudents.sol\":1973:1998  yearMap[checkAddress] > 0 */\n      gt\n        /* \"contracts/TokenStudents.sol\":1970:2092  if(yearMap[checkAddress] > 0) {\r... */\n      iszero\n      tag_151\n      jumpi\n        /* \"contracts/TokenStudents.sol\":2022:2026  true */\n      0x01\n        /* \"contracts/TokenStudents.sol\":2015:2026  return true */\n      swap1\n      pop\n      jump(tag_150)\n        /* \"contracts/TokenStudents.sol\":1970:2092  if(yearMap[checkAddress] > 0) {\r... */\n    tag_151:\n        /* \"contracts/TokenStudents.sol\":2075:2080  false */\n      0x00\n        /* \"contracts/TokenStudents.sol\":2068:2080  return false */\n      swap1\n      pop\n        /* \"contracts/TokenStudents.sol\":1840:2099  function checkStudent(address checkAddress) public view returns(bool){    //doubt what is value of not existing address?\r... */\n    tag_150:\n      swap2\n      swap1\n      pop\n      jump\t// out\n        /* \"contracts/TokenStudents.sol\":849:887  address public immutable administrator */\n    tag_69:\n      immutable(\"0x57014f1e5f1d53e43fa40624186159531d6372d1ab8f40ec7882845ca66de31d\")\n      dup2\n      jump\t// out\n        /* \"#utility.yul\":7:146   */\n    tag_154:\n        /* \"#utility.yul\":53:58   */\n      0x00\n        /* \"#utility.yul\":91:97   */\n      dup2\n        /* \"#utility.yul\":78:98   */\n      calldataload\n        /* \"#utility.yul\":69:98   */\n      swap1\n      pop\n        /* \"#utility.yul\":107:140   */\n      tag_156\n        /* \"#utility.yul\":134:139   */\n      dup2\n        /* \"#utility.yul\":107:140   */\n      tag_157\n      jump\t// in\n    tag_156:\n        /* \"#utility.yul\":7:146   */\n      swap3\n      swap2\n      pop\n      pop\n      jump\t// out\n        /* \"#utility.yul\":152:291   */\n    tag_158:\n        /* \"#utility.yul\":198:203   */\n      0x00\n        /* \"#utility.yul\":236:242   */\n      dup2\n        /* \"#utility.yul\":223:243   */\n      calldataload\n        /* \"#utility.yul\":214:243   */\n      swap1\n      pop\n        /* \"#utility.yul\":252:285   */\n      tag_160\n        /* \"#utility.yul\":279:284   */\n      dup2\n        /* \"#utility.yul\":252:285   */\n      tag_161\n      jump\t// in\n    tag_160:\n        /* \"#utility.yul\":152:291   */\n      swap3\n      swap2\n      pop\n      pop\n      jump\t// out\n        /* \"#utility.yul\":297:626   */\n    tag_18:\n        /* \"#utility.yul\":356:362   */\n      0x00\n        /* \"#utility.yul\":405:407   */\n      0x20\n        /* \"#utility.yul\":393:402   */\n      dup3\n        /* \"#utility.yul\":384:391   */\n      dup5\n        /* \"#utility.yul\":380:403   */\n      sub\n        /* \"#utility.yul\":376:408   */\n      slt\n        /* \"#utility.yul\":373:492   */\n      iszero\n      tag_163\n      jumpi\n        /* \"#utility.yul\":411:490   */\n      tag_164\n      tag_165\n      jump\t// in\n    tag_164:\n        /* \"#utility.yul\":373:492   */\n    tag_163:\n        /* \"#utility.yul\":531:532   */\n      0x00\n        /* \"#utility.yul\":556:609   */\n      tag_166\n        /* \"#utility.yul\":601:608   */\n      dup5\n        /* \"#utility.yul\":592:598   */\n      dup3\n        /* \"#utility.yul\":581:590   */\n      dup6\n        /* \"#utility.yul\":577:599   */\n      add\n        /* \"#utility.yul\":556:609   */\n      tag_154\n      jump\t// in\n    tag_166:\n        /* \"#utility.yul\":546:609   */\n      swap2\n      pop\n        /* \"#utility.yul\":502:619   */\n      pop\n        /* \"#utility.yul\":297:626   */\n      swap3\n      swap2\n      pop\n      pop\n      jump\t// out\n        /* \"#utility.yul\":632:1106   */\n    tag_25:\n        /* \"#utility.yul\":700:706   */\n      0x00\n        /* \"#utility.yul\":708:714   */\n      dup1\n        /* \"#utility.yul\":757:759   */\n      0x40\n        /* \"#utility.yul\":745:754   */\n      dup4\n        /* \"#utility.yul\":736:743   */\n      dup6\n        /* \"#utility.yul\":732:755   */\n      sub\n        /* \"#utility.yul\":728:760   */\n      slt\n        /* \"#utility.yul\":725:844   */\n      iszero\n      tag_168\n      jumpi\n        /* \"#utility.yul\":763:842   */\n      tag_169\n      tag_165\n      jump\t// in\n    tag_169:\n        /* \"#utility.yul\":725:844   */\n    tag_168:\n        /* \"#utility.yul\":883:884   */\n      0x00\n        /* \"#utility.yul\":908:961   */\n      tag_170\n        /* \"#utility.yul\":953:960   */\n      dup6\n        /* \"#utility.yul\":944:950   */\n      dup3\n        /* \"#utility.yul\":933:942   */\n      dup7\n        /* \"#utility.yul\":929:951   */\n      add\n        /* \"#utility.yul\":908:961   */\n      tag_154\n      jump\t// in\n    tag_170:\n        /* \"#utility.yul\":898:961   */\n      swap3\n      pop\n        /* \"#utility.yul\":854:971   */\n      pop\n        /* \"#utility.yul\":1010:1012   */\n      0x20\n        /* \"#utility.yul\":1036:1089   */\n      tag_171\n        /* \"#utility.yul\":1081:1088   */\n      dup6\n        /* \"#utility.yul\":1072:1078   */\n      dup3\n        /* \"#utility.yul\":1061:1070   */\n      dup7\n        /* \"#utility.yul\":1057:1079   */\n      add\n        /* \"#utility.yul\":1036:1089   */\n      tag_158\n      jump\t// in\n    tag_171:\n        /* \"#utility.yul\":1026:1089   */\n      swap2\n      pop\n        /* \"#utility.yul\":981:1099   */\n      pop\n        /* \"#utility.yul\":632:1106   */\n      swap3\n      pop\n      swap3\n      swap1\n      pop\n      jump\t// out\n        /* \"#utility.yul\":1112:1441   */\n    tag_33:\n        /* \"#utility.yul\":1171:1177   */\n      0x00\n        /* \"#utility.yul\":1220:1222   */\n      0x20\n        /* \"#utility.yul\":1208:1217   */\n      dup3\n        /* \"#utility.yul\":1199:1206   */\n      dup5\n        /* \"#utility.yul\":1195:1218   */\n      sub\n        /* \"#utility.yul\":1191:1223   */\n      slt\n        /* \"#utility.yul\":1188:1307   */\n      iszero\n      tag_173\n      jumpi\n        /* \"#utility.yul\":1226:1305   */\n      tag_174\n      tag_165\n      jump\t// in\n    tag_174:\n        /* \"#utility.yul\":1188:1307   */\n    tag_173:\n        /* \"#utility.yul\":1346:1347   */\n      0x00\n        /* \"#utility.yul\":1371:1424   */\n      tag_175\n        /* \"#utility.yul\":1416:1423   */\n      dup5\n        /* \"#utility.yul\":1407:1413   */\n      dup3\n        /* \"#utility.yul\":1396:1405   */\n      dup6\n        /* \"#utility.yul\":1392:1414   */\n      add\n        /* \"#utility.yul\":1371:1424   */\n      tag_158\n      jump\t// in\n    tag_175:\n        /* \"#utility.yul\":1361:1424   */\n      swap2\n      pop\n        /* \"#utility.yul\":1317:1434   */\n      pop\n        /* \"#utility.yul\":1112:1441   */\n      swap3\n      swap2\n      pop\n      pop\n      jump\t// out\n        /* \"#utility.yul\":1447:1565   */\n    tag_176:\n        /* \"#utility.yul\":1534:1558   */\n      tag_178\n        /* \"#utility.yul\":1552:1557   */\n      dup2\n        /* \"#utility.yul\":1534:1558   */\n      tag_179\n      jump\t// in\n    tag_178:\n        /* \"#utility.yul\":1529:1532   */\n      dup3\n        /* \"#utility.yul\":1522:1559   */\n      mstore\n        /* \"#utility.yul\":1447:1565   */\n      pop\n      pop\n      jump\t// out\n        /* \"#utility.yul\":1571:1680   */\n    tag_180:\n        /* \"#utility.yul\":1652:1673   */\n      tag_182\n        /* \"#utility.yul\":1667:1672   */\n      dup2\n        /* \"#utility.yul\":1652:1673   */\n      tag_183\n      jump\t// in\n    tag_182:\n        /* \"#utility.yul\":1647:1650   */\n      dup3\n        /* \"#utility.yul\":1640:1674   */\n      mstore\n        /* \"#utility.yul\":1571:1680   */\n      pop\n      pop\n      jump\t// out\n        /* \"#utility.yul\":1686:2052   */\n    tag_184:\n        /* \"#utility.yul\":1828:1831   */\n      0x00\n        /* \"#utility.yul\":1849:1916   */\n      tag_186\n        /* \"#utility.yul\":1913:1915   */\n      0x11\n        /* \"#utility.yul\":1908:1911   */\n      dup4\n        /* \"#utility.yul\":1849:1916   */\n      tag_187\n      jump\t// in\n    tag_186:\n        /* \"#utility.yul\":1842:1916   */\n      swap2\n      pop\n        /* \"#utility.yul\":1925:2018   */\n      tag_188\n        /* \"#utility.yul\":2014:2017   */\n      dup3\n        /* \"#utility.yul\":1925:2018   */\n      tag_189\n      jump\t// in\n    tag_188:\n        /* \"#utility.yul\":2043:2045   */\n      0x20\n        /* \"#utility.yul\":2038:2041   */\n      dup3\n        /* \"#utility.yul\":2034:2046   */\n      add\n        /* \"#utility.yul\":2027:2046   */\n      swap1\n      pop\n        /* \"#utility.yul\":1686:2052   */\n      swap2\n      swap1\n      pop\n      jump\t// out\n        /* \"#utility.yul\":2058:2424   */\n    tag_190:\n        /* \"#utility.yul\":2200:2203   */\n      0x00\n        /* \"#utility.yul\":2221:2288   */\n      tag_192\n        /* \"#utility.yul\":2285:2287   */\n      0x24\n        /* \"#utility.yul\":2280:2283   */\n      dup4\n        /* \"#utility.yul\":2221:2288   */\n      tag_187\n      jump\t// in\n    tag_192:\n        /* \"#utility.yul\":2214:2288   */\n      swap2\n      pop\n        /* \"#utility.yul\":2297:2390   */\n      tag_193\n        /* \"#utility.yul\":2386:2389   */\n      dup3\n        /* \"#utility.yul\":2297:2390   */\n      tag_194\n      jump\t// in\n    tag_193:\n        /* \"#utility.yul\":2415:2417   */\n      0x40\n        /* \"#utility.yul\":2410:2413   */\n      dup3\n        /* \"#utility.yul\":2406:2418   */\n      add\n        /* \"#utility.yul\":2399:2418   */\n      swap1\n      pop\n        /* \"#utility.yul\":2058:2424   */\n      swap2\n      swap1\n      pop\n      jump\t// out\n        /* \"#utility.yul\":2430:2796   */\n    tag_195:\n        /* \"#utility.yul\":2572:2575   */\n      0x00\n        /* \"#utility.yul\":2593:2660   */\n      tag_197\n        /* \"#utility.yul\":2657:2659   */\n      0x1b\n        /* \"#utility.yul\":2652:2655   */\n      dup4\n        /* \"#utility.yul\":2593:2660   */\n      tag_187\n      jump\t// in\n    tag_197:\n        /* \"#utility.yul\":2586:2660   */\n      swap2\n      pop\n        /* \"#utility.yul\":2669:2762   */\n      tag_198\n        /* \"#utility.yul\":2758:2761   */\n      dup3\n        /* \"#utility.yul\":2669:2762   */\n      tag_199\n      jump\t// in\n    tag_198:\n        /* \"#utility.yul\":2787:2789   */\n      0x20\n        /* \"#utility.yul\":2782:2785   */\n      dup3\n        /* \"#utility.yul\":2778:2790   */\n      add\n        /* \"#utility.yul\":2771:2790   */\n      swap1\n      pop\n        /* \"#utility.yul\":2430:2796   */\n      swap2\n      swap1\n      pop\n      jump\t// out\n        /* \"#utility.yul\":2802:2920   */\n    tag_200:\n        /* \"#utility.yul\":2889:2913   */\n      tag_202\n        /* \"#utility.yul\":2907:2912   */\n      dup2\n        /* \"#utility.yul\":2889:2913   */\n      tag_203\n      jump\t// in\n    tag_202:\n        /* \"#utility.yul\":2884:2887   */\n      dup3\n        /* \"#utility.yul\":2877:2914   */\n      mstore\n        /* \"#utility.yul\":2802:2920   */\n      pop\n      pop\n      jump\t// out\n        /* \"#utility.yul\":2926:3148   */\n    tag_36:\n        /* \"#utility.yul\":3019:3023   */\n      0x00\n        /* \"#utility.yul\":3057:3059   */\n      0x20\n        /* \"#utility.yul\":3046:3055   */\n      dup3\n        /* \"#utility.yul\":3042:3060   */\n      add\n        /* \"#utility.yul\":3034:3060   */\n      swap1\n      pop\n        /* \"#utility.yul\":3070:3141   */\n      tag_205\n        /* \"#utility.yul\":3138:3139   */\n      0x00\n        /* \"#utility.yul\":3127:3136   */\n      dup4\n        /* \"#utility.yul\":3123:3140   */\n      add\n        /* \"#utility.yul\":3114:3120   */\n      dup5\n        /* \"#utility.yul\":3070:3141   */\n      tag_176\n      jump\t// in\n    tag_205:\n        /* \"#utility.yul\":2926:3148   */\n      swap3\n      swap2\n      pop\n      pop\n      jump\t// out\n        /* \"#utility.yul\":3154:3364   */\n    tag_66:\n        /* \"#utility.yul\":3241:3245   */\n      0x00\n        /* \"#utility.yul\":3279:3281   */\n      0x20\n        /* \"#utility.yul\":3268:3277   */\n      dup3\n        /* \"#utility.yul\":3264:3282   */\n      add\n        /* \"#utility.yul\":3256:3282   */\n      swap1\n      pop\n        /* \"#utility.yul\":3292:3357   */\n      tag_207\n        /* \"#utility.yul\":3354:3355   */\n      0x00\n        /* \"#utility.yul\":3343:3352   */\n      dup4\n        /* \"#utility.yul\":3339:3356   */\n      add\n        /* \"#utility.yul\":3330:3336   */\n      dup5\n        /* \"#utility.yul\":3292:3357   */\n      tag_180\n      jump\t// in\n    tag_207:\n        /* \"#utility.yul\":3154:3364   */\n      swap3\n      swap2\n      pop\n      pop\n      jump\t// out\n        /* \"#utility.yul\":3370:3789   */\n    tag_85:\n        /* \"#utility.yul\":3536:3540   */\n      0x00\n        /* \"#utility.yul\":3574:3576   */\n      0x20\n        /* \"#utility.yul\":3563:3572   */\n      dup3\n        /* \"#utility.yul\":3559:3577   */\n      add\n        /* \"#utility.yul\":3551:3577   */\n      swap1\n      pop\n        /* \"#utility.yul\":3623:3632   */\n      dup2\n        /* \"#utility.yul\":3617:3621   */\n      dup2\n        /* \"#utility.yul\":3613:3633   */\n      sub\n        /* \"#utility.yul\":3609:3610   */\n      0x00\n        /* \"#utility.yul\":3598:3607   */\n      dup4\n        /* \"#utility.yul\":3594:3611   */\n      add\n        /* \"#utility.yul\":3587:3634   */\n      mstore\n        /* \"#utility.yul\":3651:3782   */\n      tag_209\n        /* \"#utility.yul\":3777:3781   */\n      dup2\n        /* \"#utility.yul\":3651:3782   */\n      tag_184\n      jump\t// in\n    tag_209:\n        /* \"#utility.yul\":3643:3782   */\n      swap1\n      pop\n        /* \"#utility.yul\":3370:3789   */\n      swap2\n      swap1\n      pop\n      jump\t// out\n        /* \"#utility.yul\":3795:4214   */\n    tag_102:\n        /* \"#utility.yul\":3961:3965   */\n      0x00\n        /* \"#utility.yul\":3999:4001   */\n      0x20\n        /* \"#utility.yul\":3988:3997   */\n      dup3\n        /* \"#utility.yul\":3984:4002   */\n      add\n        /* \"#utility.yul\":3976:4002   */\n      swap1\n      pop\n        /* \"#utility.yul\":4048:4057   */\n      dup2\n        /* \"#utility.yul\":4042:4046   */\n      dup2\n        /* \"#utility.yul\":4038:4058   */\n      sub\n        /* \"#utility.yul\":4034:4035   */\n      0x00\n        /* \"#utility.yul\":4023:4032   */\n      dup4\n        /* \"#utility.yul\":4019:4036   */\n      add\n        /* \"#utility.yul\":4012:4059   */\n      mstore\n        /* \"#utility.yul\":4076:4207   */\n      tag_211\n        /* \"#utility.yul\":4202:4206   */\n      dup2\n        /* \"#utility.yul\":4076:4207   */\n      tag_190\n      jump\t// in\n    tag_211:\n        /* \"#utility.yul\":4068:4207   */\n      swap1\n      pop\n        /* \"#utility.yul\":3795:4214   */\n      swap2\n      swap1\n      pop\n      jump\t// out\n        /* \"#utility.yul\":4220:4639   */\n    tag_74:\n        /* \"#utility.yul\":4386:4390   */\n      0x00\n        /* \"#utility.yul\":4424:4426   */\n      0x20\n        /* \"#utility.yul\":4413:4422   */\n      dup3\n        /* \"#utility.yul\":4409:4427   */\n      add\n        /* \"#utility.yul\":4401:4427   */\n      swap1\n      pop\n        /* \"#utility.yul\":4473:4482   */\n      dup2\n        /* \"#utility.yul\":4467:4471   */\n      dup2\n        /* \"#utility.yul\":4463:4483   */\n      sub\n        /* \"#utility.yul\":4459:4460   */\n      0x00\n        /* \"#utility.yul\":4448:4457   */\n      dup4\n        /* \"#utility.yul\":4444:4461   */\n      add\n        /* \"#utility.yul\":4437:4484   */\n      mstore\n        /* \"#utility.yul\":4501:4632   */\n      tag_213\n        /* \"#utility.yul\":4627:4631   */\n      dup2\n        /* \"#utility.yul\":4501:4632   */\n      tag_195\n      jump\t// in\n    tag_213:\n        /* \"#utility.yul\":4493:4632   */\n      swap1\n      pop\n        /* \"#utility.yul\":4220:4639   */\n      swap2\n      swap1\n      pop\n      jump\t// out\n        /* \"#utility.yul\":4645:4867   */\n    tag_21:\n        /* \"#utility.yul\":4738:4742   */\n      0x00\n        /* \"#utility.yul\":4776:4778   */\n      0x20\n        /* \"#utility.yul\":4765:4774   */\n      dup3\n        /* \"#utility.yul\":4761:4779   */\n      add\n        /* \"#utility.yul\":4753:4779   */\n      swap1\n      pop\n        /* \"#utility.yul\":4789:4860   */\n      tag_215\n        /* \"#utility.yul\":4857:4858   */\n      0x00\n        /* \"#utility.yul\":4846:4855   */\n      dup4\n        /* \"#utility.yul\":4842:4859   */\n      add\n        /* \"#utility.yul\":4833:4839   */\n      dup5\n        /* \"#utility.yul\":4789:4860   */\n      tag_200\n      jump\t// in\n    tag_215:\n        /* \"#utility.yul\":4645:4867   */\n      swap3\n      swap2\n      pop\n      pop\n      jump\t// out\n        /* \"#utility.yul\":4954:5123   */\n    tag_187:\n        /* \"#utility.yul\":5038:5049   */\n      0x00\n        /* \"#utility.yul\":5072:5078   */\n      dup3\n        /* \"#utility.yul\":5067:5070   */\n      dup3\n        /* \"#utility.yul\":5060:5079   */\n      mstore\n        /* \"#utility.yul\":5112:5116   */\n      0x20\n        /* \"#utility.yul\":5107:5110   */\n      dup3\n        /* \"#utility.yul\":5103:5117   */\n      add\n        /* \"#utility.yul\":5088:5117   */\n      swap1\n      pop\n        /* \"#utility.yul\":4954:5123   */\n      swap3\n      swap2\n      pop\n      pop\n      jump\t// out\n        /* \"#utility.yul\":5129:5434   */\n    tag_79:\n        /* \"#utility.yul\":5169:5172   */\n      0x00\n        /* \"#utility.yul\":5188:5208   */\n      tag_220\n        /* \"#utility.yul\":5206:5207   */\n      dup3\n        /* \"#utility.yul\":5188:5208   */\n      tag_203\n      jump\t// in\n    tag_220:\n        /* \"#utility.yul\":5183:5208   */\n      swap2\n      pop\n        /* \"#utility.yul\":5222:5242   */\n      tag_221\n        /* \"#utility.yul\":5240:5241   */\n      dup4\n        /* \"#utility.yul\":5222:5242   */\n      tag_203\n      jump\t// in\n    tag_221:\n        /* \"#utility.yul\":5217:5242   */\n      swap3\n      pop\n        /* \"#utility.yul\":5376:5377   */\n      dup3\n        /* \"#utility.yul\":5308:5374   */\n      0xffffffffffffffffffffffffffffffffffffffffffffffffffffffffffffffff\n        /* \"#utility.yul\":5304:5378   */\n      sub\n        /* \"#utility.yul\":5301:5302   */\n      dup3\n        /* \"#utility.yul\":5298:5379   */\n      gt\n        /* \"#utility.yul\":5295:5402   */\n      iszero\n      tag_222\n      jumpi\n        /* \"#utility.yul\":5382:5400   */\n      tag_223\n      tag_224\n      jump\t// in\n    tag_223:\n        /* \"#utility.yul\":5295:5402   */\n    tag_222:\n        /* \"#utility.yul\":5426:5427   */\n      dup3\n        /* \"#utility.yul\":5423:5424   */\n      dup3\n        /* \"#utility.yul\":5419:5428   */\n      add\n        /* \"#utility.yul\":5412:5428   */\n      swap1\n      pop\n        /* \"#utility.yul\":5129:5434   */\n      swap3\n      swap2\n      pop\n      pop\n      jump\t// out\n        /* \"#utility.yul\":5440:5625   */\n    tag_135:\n        /* \"#utility.yul\":5480:5481   */\n      0x00\n        /* \"#utility.yul\":5497:5517   */\n      tag_226\n        /* \"#utility.yul\":5515:5516   */\n      dup3\n        /* \"#utility.yul\":5497:5517   */\n      tag_203\n      jump\t// in\n    tag_226:\n        /* \"#utility.yul\":5492:5517   */\n      swap2\n      pop\n        /* \"#utility.yul\":5531:5551   */\n      tag_227\n        /* \"#utility.yul\":5549:5550   */\n      dup4\n        /* \"#utility.yul\":5531:5551   */\n      tag_203\n      jump\t// in\n    tag_227:\n        /* \"#utility.yul\":5526:5551   */\n      swap3\n      pop\n        /* \"#utility.yul\":5570:5571   */\n      dup3\n        /* \"#utility.yul\":5560:5595   */\n      tag_228\n      jumpi\n        /* \"#utility.yul\":5575:5593   */\n      tag_229\n      tag_230\n      jump\t// in\n    tag_229:\n        /* \"#utility.yul\":5560:5595   */\n    tag_228:\n        /* \"#utility.yul\":5617:5618   */\n      dup3\n        /* \"#utility.yul\":5614:5615   */\n      dup3\n        /* \"#utility.yul\":5610:5619   */\n      div\n        /* \"#utility.yul\":5605:5619   */\n      swap1\n      pop\n        /* \"#utility.yul\":5440:5625   */\n      swap3\n      swap2\n      pop\n      pop\n      jump\t// out\n        /* \"#utility.yul\":5631:5979   */\n    tag_133:\n        /* \"#utility.yul\":5671:5678   */\n      0x00\n        /* \"#utility.yul\":5694:5714   */\n      tag_232\n        /* \"#utility.yul\":5712:5713   */\n      dup3\n        /* \"#utility.yul\":5694:5714   */\n      tag_203\n      jump\t// in\n    tag_232:\n        /* \"#utility.yul\":5689:5714   */\n      swap2\n      pop\n        /* \"#utility.yul\":5728:5748   */\n      tag_233\n        /* \"#utility.yul\":5746:5747   */\n      dup4\n        /* \"#utility.yul\":5728:5748   */\n      tag_203\n      jump\t// in\n    tag_233:\n        /* \"#utility.yul\":5723:5748   */\n      swap3\n      pop\n        /* \"#utility.yul\":5916:5917   */\n      dup2\n        /* \"#utility.yul\":5848:5914   */\n      0xffffffffffffffffffffffffffffffffffffffffffffffffffffffffffffffff\n        /* \"#utility.yul\":5844:5918   */\n      div\n        /* \"#utility.yul\":5841:5842   */\n      dup4\n        /* \"#utility.yul\":5838:5919   */\n      gt\n        /* \"#utility.yul\":5833:5834   */\n      dup3\n        /* \"#utility.yul\":5826:5835   */\n      iszero\n        /* \"#utility.yul\":5819:5836   */\n      iszero\n        /* \"#utility.yul\":5815:5920   */\n      and\n        /* \"#utility.yul\":5812:5943   */\n      iszero\n      tag_234\n      jumpi\n        /* \"#utility.yul\":5923:5941   */\n      tag_235\n      tag_224\n      jump\t// in\n    tag_235:\n        /* \"#utility.yul\":5812:5943   */\n    tag_234:\n        /* \"#utility.yul\":5971:5972   */\n      dup3\n        /* \"#utility.yul\":5968:5969   */\n      dup3\n        /* \"#utility.yul\":5964:5973   */\n      mul\n        /* \"#utility.yul\":5953:5973   */\n      swap1\n      pop\n        /* \"#utility.yul\":5631:5979   */\n      swap3\n      swap2\n      pop\n      pop\n      jump\t// out\n        /* \"#utility.yul\":5985:6176   */\n    tag_82:\n        /* \"#utility.yul\":6025:6029   */\n      0x00\n        /* \"#utility.yul\":6045:6065   */\n      tag_237\n        /* \"#utility.yul\":6063:6064   */\n      dup3\n        /* \"#utility.yul\":6045:6065   */\n      tag_203\n      jump\t// in\n    tag_237:\n        /* \"#utility.yul\":6040:6065   */\n      swap2\n      pop\n        /* \"#utility.yul\":6079:6099   */\n      tag_238\n        /* \"#utility.yul\":6097:6098   */\n      dup4\n        /* \"#utility.yul\":6079:6099   */\n      tag_203\n      jump\t// in\n    tag_238:\n        /* \"#utility.yul\":6074:6099   */\n      swap3\n      pop\n        /* \"#utility.yul\":6118:6119   */\n      dup3\n        /* \"#utility.yul\":6115:6116   */\n      dup3\n        /* \"#utility.yul\":6112:6120   */\n      lt\n        /* \"#utility.yul\":6109:6143   */\n      iszero\n      tag_239\n      jumpi\n        /* \"#utility.yul\":6123:6141   */\n      tag_240\n      tag_224\n      jump\t// in\n    tag_240:\n        /* \"#utility.yul\":6109:6143   */\n    tag_239:\n        /* \"#utility.yul\":6168:6169   */\n      dup3\n        /* \"#utility.yul\":6165:6166   */\n      dup3\n        /* \"#utility.yul\":6161:6170   */\n      sub\n        /* \"#utility.yul\":6153:6170   */\n      swap1\n      pop\n        /* \"#utility.yul\":5985:6176   */\n      swap3\n      swap2\n      pop\n      pop\n      jump\t// out\n        /* \"#utility.yul\":6182:6278   */\n    tag_179:\n        /* \"#utility.yul\":6219:6226   */\n      0x00\n        /* \"#utility.yul\":6248:6272   */\n      tag_242\n        /* \"#utility.yul\":6266:6271   */\n      dup3\n        /* \"#utility.yul\":6248:6272   */\n      tag_243\n      jump\t// in\n    tag_242:\n        /* \"#utility.yul\":6237:6272   */\n      swap1\n      pop\n        /* \"#utility.yul\":6182:6278   */\n      swap2\n      swap1\n      pop\n      jump\t// out\n        /* \"#utility.yul\":6284:6374   */\n    tag_183:\n        /* \"#utility.yul\":6318:6325   */\n      0x00\n        /* \"#utility.yul\":6361:6366   */\n      dup2\n        /* \"#utility.yul\":6354:6367   */\n      iszero\n        /* \"#utility.yul\":6347:6368   */\n      iszero\n        /* \"#utility.yul\":6336:6368   */\n      swap1\n      pop\n        /* \"#utility.yul\":6284:6374   */\n      swap2\n      swap1\n      pop\n      jump\t// out\n        /* \"#utility.yul\":6380:6506   */\n    tag_243:\n        /* \"#utility.yul\":6417:6424   */\n      0x00\n        /* \"#utility.yul\":6457:6499   */\n      0xffffffffffffffffffffffffffffffffffffffff\n        /* \"#utility.yul\":6450:6455   */\n      dup3\n        /* \"#utility.yul\":6446:6500   */\n      and\n        /* \"#utility.yul\":6435:6500   */\n      swap1\n      pop\n        /* \"#utility.yul\":6380:6506   */\n      swap2\n      swap1\n      pop\n      jump\t// out\n        /* \"#utility.yul\":6512:6589   */\n    tag_203:\n        /* \"#utility.yul\":6549:6556   */\n      0x00\n        /* \"#utility.yul\":6578:6583   */\n      dup2\n        /* \"#utility.yul\":6567:6583   */\n      swap1\n      pop\n        /* \"#utility.yul\":6512:6589   */\n      swap2\n      swap1\n      pop\n      jump\t// out\n        /* \"#utility.yul\":6595:6828   */\n    tag_96:\n        /* \"#utility.yul\":6634:6637   */\n      0x00\n        /* \"#utility.yul\":6657:6681   */\n      tag_248\n        /* \"#utility.yul\":6675:6680   */\n      dup3\n        /* \"#utility.yul\":6657:6681   */\n      tag_203\n      jump\t// in\n    tag_248:\n        /* \"#utility.yul\":6648:6681   */\n      swap2\n      pop\n        /* \"#utility.yul\":6703:6769   */\n      0xffffffffffffffffffffffffffffffffffffffffffffffffffffffffffffffff\n        /* \"#utility.yul\":6696:6701   */\n      dup3\n        /* \"#utility.yul\":6693:6770   */\n      eq\n        /* \"#utility.yul\":6690:6793   */\n      iszero\n      tag_249\n      jumpi\n        /* \"#utility.yul\":6773:6791   */\n      tag_250\n      tag_224\n      jump\t// in\n    tag_250:\n        /* \"#utility.yul\":6690:6793   */\n    tag_249:\n        /* \"#utility.yul\":6820:6821   */\n      0x01\n        /* \"#utility.yul\":6813:6818   */\n      dup3\n        /* \"#utility.yul\":6809:6822   */\n      add\n        /* \"#utility.yul\":6802:6822   */\n      swap1\n      pop\n        /* \"#utility.yul\":6595:6828   */\n      swap2\n      swap1\n      pop\n      jump\t// out\n        /* \"#utility.yul\":6834:7014   */\n    tag_224:\n        /* \"#utility.yul\":6882:6959   */\n      0x4e487b7100000000000000000000000000000000000000000000000000000000\n        /* \"#utility.yul\":6879:6880   */\n      0x00\n        /* \"#utility.yul\":6872:6960   */\n      mstore\n        /* \"#utility.yul\":6979:6983   */\n      0x11\n        /* \"#utility.yul\":6976:6977   */\n      0x04\n        /* \"#utility.yul\":6969:6984   */\n      mstore\n        /* \"#utility.yul\":7003:7007   */\n      0x24\n        /* \"#utility.yul\":7000:7001   */\n      0x00\n        /* \"#utility.yul\":6993:7008   */\n      revert\n        /* \"#utility.yul\":7020:7200   */\n    tag_230:\n        /* \"#utility.yul\":7068:7145   */\n      0x4e487b7100000000000000000000000000000000000000000000000000000000\n        /* \"#utility.yul\":7065:7066   */\n      0x00\n        /* \"#utility.yul\":7058:7146   */\n      mstore\n        /* \"#utility.yul\":7165:7169   */\n      0x12\n        /* \"#utility.yul\":7162:7163   */\n      0x04\n        /* \"#utility.yul\":7155:7170   */\n      mstore\n        /* \"#utility.yul\":7189:7193   */\n      0x24\n        /* \"#utility.yul\":7186:7187   */\n      0x00\n        /* \"#utility.yul\":7179:7194   */\n      revert\n        /* \"#utility.yul\":7206:7386   */\n    tag_120:\n        /* \"#utility.yul\":7254:7331   */\n      0x4e487b7100000000000000000000000000000000000000000000000000000000\n        /* \"#utility.yul\":7251:7252   */\n      0x00\n        /* \"#utility.yul\":7244:7332   */\n      mstore\n        /* \"#utility.yul\":7351:7355   */\n      0x31\n        /* \"#utility.yul\":7348:7349   */\n      0x04\n        /* \"#utility.yul\":7341:7356   */\n      mstore\n        /* \"#utility.yul\":7375:7379   */\n      0x24\n        /* \"#utility.yul\":7372:7373   */\n      0x00\n        /* \"#utility.yul\":7365:7380   */\n      revert\n        /* \"#utility.yul\":7392:7572   */\n    tag_91:\n        /* \"#utility.yul\":7440:7517   */\n      0x4e487b7100000000000000000000000000000000000000000000000000000000\n        /* \"#utility.yul\":7437:7438   */\n      0x00\n        /* \"#utility.yul\":7430:7518   */\n      mstore\n        /* \"#utility.yul\":7537:7541   */\n      0x32\n        /* \"#utility.yul\":7534:7535   */\n      0x04\n        /* \"#utility.yul\":7527:7542   */\n      mstore\n        /* \"#utility.yul\":7561:7565   */\n      0x24\n        /* \"#utility.yul\":7558:7559   */\n      0x00\n        /* \"#utility.yul\":7551:7566   */\n      revert\n        /* \"#utility.yul\":7701:7818   */\n    tag_165:\n        /* \"#utility.yul\":7810:7811   */\n      0x00\n        /* \"#utility.yul\":7807:7808   */\n      dup1\n        /* \"#utility.yul\":7800:7812   */\n      revert\n        /* \"#utility.yul\":7824:7991   */\n    tag_189:\n        /* \"#utility.yul\":7964:7983   */\n      0x6e6f7420656e6f75676820746f6b656e73000000000000000000000000000000\n        /* \"#utility.yul\":7960:7961   */\n      0x00\n        /* \"#utility.yul\":7952:7958   */\n      dup3\n        /* \"#utility.yul\":7948:7962   */\n      add\n        /* \"#utility.yul\":7941:7984   */\n      mstore\n        /* \"#utility.yul\":7824:7991   */\n      pop\n      jump\t// out\n        /* \"#utility.yul\":7997:8220   */\n    tag_194:\n        /* \"#utility.yul\":8137:8171   */\n      0x536f72727921206f6e6c792061646d696e6973747261746f722063616e206d6f\n        /* \"#utility.yul\":8133:8134   */\n      0x00\n        /* \"#utility.yul\":8125:8131   */\n      dup3\n        /* \"#utility.yul\":8121:8135   */\n      add\n        /* \"#utility.yul\":8114:8172   */\n      mstore\n        /* \"#utility.yul\":8206:8212   */\n      0x6469667900000000000000000000000000000000000000000000000000000000\n        /* \"#utility.yul\":8201:8203   */\n      0x20\n        /* \"#utility.yul\":8193:8199   */\n      dup3\n        /* \"#utility.yul\":8189:8204   */\n      add\n        /* \"#utility.yul\":8182:8213   */\n      mstore\n        /* \"#utility.yul\":7997:8220   */\n      pop\n      jump\t// out\n        /* \"#utility.yul\":8226:8403   */\n    tag_199:\n        /* \"#utility.yul\":8366:8395   */\n      0x536f72727921206f6e6c792061646d696e2063616e2069737375650000000000\n        /* \"#utility.yul\":8362:8363   */\n      0x00\n        /* \"#utility.yul\":8354:8360   */\n      dup3\n        /* \"#utility.yul\":8350:8364   */\n      add\n        /* \"#utility.yul\":8343:8396   */\n      mstore\n        /* \"#utility.yul\":8226:8403   */\n      pop\n      jump\t// out\n        /* \"#utility.yul\":8409:8531   */\n    tag_157:\n        /* \"#utility.yul\":8482:8506   */\n      tag_262\n        /* \"#utility.yul\":8500:8505   */\n      dup2\n        /* \"#utility.yul\":8482:8506   */\n      tag_179\n      jump\t// in\n    tag_262:\n        /* \"#utility.yul\":8475:8480   */\n      dup2\n        /* \"#utility.yul\":8472:8507   */\n      eq\n        /* \"#utility.yul\":8462:8525   */\n      tag_263\n      jumpi\n        /* \"#utility.yul\":8521:8522   */\n      0x00\n        /* \"#utility.yul\":8518:8519   */\n      dup1\n        /* \"#utility.yul\":8511:8523   */\n      revert\n        /* \"#utility.yul\":8462:8525   */\n    tag_263:\n        /* \"#utility.yul\":8409:8531   */\n      pop\n      jump\t// out\n        /* \"#utility.yul\":8537:8659   */\n    tag_161:\n        /* \"#utility.yul\":8610:8634   */\n      tag_265\n        /* \"#utility.yul\":8628:8633   */\n      dup2\n        /* \"#utility.yul\":8610:8634   */\n      tag_203\n      jump\t// in\n    tag_265:\n        /* \"#utility.yul\":8603:8608   */\n      dup2\n        /* \"#utility.yul\":8600:8635   */\n      eq\n        /* \"#utility.yul\":8590:8653   */\n      tag_266\n      jumpi\n        /* \"#utility.yul\":8649:8650   */\n      0x00\n        /* \"#utility.yul\":8646:8647   */\n      dup1\n        /* \"#utility.yul\":8639:8651   */\n      revert\n        /* \"#utility.yul\":8590:8653   */\n    tag_266:\n        /* \"#utility.yul\":8537:8659   */\n      pop\n      jump\t// out\n\n    auxdata: 0xa2646970667358221220e8c7483ef63c6af1891c124e5a031ff5deb4e7eb0bc5958599c6307e52045b8564736f6c63430008070033\n}\n",
				"bytecode": {
					"linkReferences": {},
					"object": "60c06040523480156200001157600080fd5b50604051620014a7380380620014a78339818101604052810190620000379190620000c3565b3373ffffffffffffffffffffffffffffffffffffffff1660808173ffffffffffffffffffffffffffffffffffffffff1660601b815250508073ffffffffffffffffffffffffffffffffffffffff1660a08173ffffffffffffffffffffffffffffffffffffffff1660601b815250505062000148565b600081519050620000bd816200012e565b92915050565b600060208284031215620000dc57620000db62000129565b5b6000620000ec84828501620000ac565b91505092915050565b6000620001028262000109565b9050919050565b600073ffffffffffffffffffffffffffffffffffffffff82169050919050565b600080fd5b6200013981620000f5565b81146200014557600080fd5b50565b60805160601c60a05160601c61131e62000189600039600081816105a501528181610af20152610d740152600081816102ec0152610be6015261131e6000f3fe6080604052600436106100a75760003560e01c8063cec95abd11610064578063cec95abd146101bf578063e73b49b4146101db578063eb2ea05414610204578063ef2038251461022d578063f481345a1461026a578063f53d0a8e146102a7576100a7565b806307bb67b6146100ac578063475a9fa9146100e95780634bc8dd1f14610112578063532950f41461012e5780639dfb33811461016b578063ba32fdca14610194575b600080fd5b3480156100b857600080fd5b506100d360048036038101906100ce9190610dc0565b6102d2565b6040516100e09190610f86565b60405180910390f35b3480156100f557600080fd5b50610110600480360381019061010b9190610ded565b6102ea565b005b61012c60048036038101906101279190610ded565b6103e7565b005b34801561013a57600080fd5b5061015560048036038101906101509190610e2d565b610564565b6040516101629190610ef0565b60405180910390f35b34801561017757600080fd5b50610192600480360381019061018d9190610dc0565b6105a3565b005b3480156101a057600080fd5b506101a96107be565b6040516101b69190610f86565b60405180910390f35b6101d960048036038101906101d49190610ded565b6107cb565b005b3480156101e757600080fd5b5061020260048036038101906101fd9190610dc0565b610af0565b005b34801561021057600080fd5b5061022b60048036038101906102269190610ded565b610be4565b005b34801561023957600080fd5b50610254600480360381019061024f9190610dc0565b610cfe565b6040516102619190610f86565b60405180910390f35b34801561027657600080fd5b50610291600480360381019061028c9190610dc0565b610d16565b60405161029e9190610f0b565b60405180910390f35b3480156102b357600080fd5b506102bc610d72565b6040516102c99190610ef0565b60405180910390f35b60006020528060005260406000206000915090505481565b7f000000000000000000000000000000000000000000000000000000000000000073ffffffffffffffffffffffffffffffffffffffff163373ffffffffffffffffffffffffffffffffffffffff1614610378576040517f08c379a000000000000000000000000000000000000000000000000000000000815260040161036f90610f66565b60405180910390fd5b6001151561038583610d16565b151514156103e357806000808473ffffffffffffffffffffffffffffffffffffffff1673ffffffffffffffffffffffffffffffffffffffff16815260200190815260200160002060008282546103db9190610fb2565b925050819055505b5050565b6000816000803373ffffffffffffffffffffffffffffffffffffffff1673ffffffffffffffffffffffffffffffffffffffff168152602001908152602001600020546104339190611093565b1015610474576040517f08c379a000000000000000000000000000000000000000000000000000000000815260040161046b90610f26565b60405180910390fd5b60005b60028054905081101561055f5760028181548110610498576104976111e5565b5b9060005260206000200160009054906101000a900473ffffffffffffffffffffffffffffffffffffffff1673ffffffffffffffffffffffffffffffffffffffff168373ffffffffffffffffffffffffffffffffffffffff16141561054c57816000803373ffffffffffffffffffffffffffffffffffffffff1673ffffffffffffffffffffffffffffffffffffffff16815260200190815260200160002060008282546105449190611093565b925050819055505b80806105579061110f565b915050610477565b505050565b6002818154811061057457600080fd5b906000526020600020016000915054906101000a900473ffffffffffffffffffffffffffffffffffffffff1681565b7f000000000000000000000000000000000000000000000000000000000000000073ffffffffffffffffffffffffffffffffffffffff163373ffffffffffffffffffffffffffffffffffffffff1614610631576040517f08c379a000000000000000000000000000000000000000000000000000000000815260040161062890610f46565b60405180910390fd5b60005b6002805490508110156107ba578173ffffffffffffffffffffffffffffffffffffffff166002828154811061066c5761066b6111e5565b5b9060005260206000200160009054906101000a900473ffffffffffffffffffffffffffffffffffffffff1673ffffffffffffffffffffffffffffffffffffffff1614156107a757600260016002805490506106c79190611093565b815481106106d8576106d76111e5565b5b9060005260206000200160009054906101000a900473ffffffffffffffffffffffffffffffffffffffff1660028281548110610717576107166111e5565b5b9060005260206000200160006101000a81548173ffffffffffffffffffffffffffffffffffffffff021916908373ffffffffffffffffffffffffffffffffffffffff1602179055506002805480610771576107706111b6565b5b6001900381819060005260206000200160006101000a81549073ffffffffffffffffffffffffffffffffffffffff021916905590555b80806107b29061110f565b915050610634565b5050565b6000600280549050905090565b6000816000803373ffffffffffffffffffffffffffffffffffffffff1673ffffffffffffffffffffffffffffffffffffffff168152602001908152602001600020546108179190611093565b1015610858576040517f08c379a000000000000000000000000000000000000000000000000000000000815260040161084f90610f26565b60405180910390fd5b6001151561086583610d16565b15151415610aec57600160003373ffffffffffffffffffffffffffffffffffffffff1673ffffffffffffffffffffffffffffffffffffffff16815260200190815260200160002054600160008473ffffffffffffffffffffffffffffffffffffffff1673ffffffffffffffffffffffffffffffffffffffff16815260200190815260200160002054146109b957806000803373ffffffffffffffffffffffffffffffffffffffff1673ffffffffffffffffffffffffffffffffffffffff16815260200190815260200160002060008282546109409190611093565b9250508190555060048160036109569190611039565b6109609190611008565b6000808473ffffffffffffffffffffffffffffffffffffffff1673ffffffffffffffffffffffffffffffffffffffff16815260200190815260200160002060008282546109ad9190610fb2565b92505081905550610aeb565b600160003373ffffffffffffffffffffffffffffffffffffffff1673ffffffffffffffffffffffffffffffffffffffff16815260200190815260200160002054600160008473ffffffffffffffffffffffffffffffffffffffff1673ffffffffffffffffffffffffffffffffffffffff168152602001908152602001600020541415610aea57806000803373ffffffffffffffffffffffffffffffffffffffff1673ffffffffffffffffffffffffffffffffffffffff1681526020019081526020016000206000828254610a8d9190611093565b92505081905550806000808473ffffffffffffffffffffffffffffffffffffffff1673ffffffffffffffffffffffffffffffffffffffff1681526020019081526020016000206000828254610ae29190610fb2565b925050819055505b5b5b5050565b7f000000000000000000000000000000000000000000000000000000000000000073ffffffffffffffffffffffffffffffffffffffff163373ffffffffffffffffffffffffffffffffffffffff1614610b7e576040517f08c379a0000000000000000000000000000000000000000000000000000000008152600401610b7590610f46565b60405180910390fd5b6002819080600181540180825580915050600190039060005260206000200160009091909190916101000a81548173ffffffffffffffffffffffffffffffffffffffff021916908373ffffffffffffffffffffffffffffffffffffffff16021790555050565b7f000000000000000000000000000000000000000000000000000000000000000073ffffffffffffffffffffffffffffffffffffffff163373ffffffffffffffffffffffffffffffffffffffff1614610c72576040517f08c379a0000000000000000000000000000000000000000000000000000000008152600401610c6990610f66565b60405180910390fd5b60008060008473ffffffffffffffffffffffffffffffffffffffff1673ffffffffffffffffffffffffffffffffffffffff1681526020019081526020016000208190555080600160008473ffffffffffffffffffffffffffffffffffffffff1673ffffffffffffffffffffffffffffffffffffffff168152602001908152602001600020819055505050565b60016020528060005260406000206000915090505481565b600080600160008473ffffffffffffffffffffffffffffffffffffffff1673ffffffffffffffffffffffffffffffffffffffff168152602001908152602001600020541115610d685760019050610d6d565b600090505b919050565b7f000000000000000000000000000000000000000000000000000000000000000081565b600081359050610da5816112ba565b92915050565b600081359050610dba816112d1565b92915050565b600060208284031215610dd657610dd5611214565b5b6000610de484828501610d96565b91505092915050565b60008060408385031215610e0457610e03611214565b5b6000610e1285828601610d96565b9250506020610e2385828601610dab565b9150509250929050565b600060208284031215610e4357610e42611214565b5b6000610e5184828501610dab565b91505092915050565b610e63816110c7565b82525050565b610e72816110d9565b82525050565b6000610e85601183610fa1565b9150610e9082611219565b602082019050919050565b6000610ea8602483610fa1565b9150610eb382611242565b604082019050919050565b6000610ecb601b83610fa1565b9150610ed682611291565b602082019050919050565b610eea81611105565b82525050565b6000602082019050610f056000830184610e5a565b92915050565b6000602082019050610f206000830184610e69565b92915050565b60006020820190508181036000830152610f3f81610e78565b9050919050565b60006020820190508181036000830152610f5f81610e9b565b9050919050565b60006020820190508181036000830152610f7f81610ebe565b9050919050565b6000602082019050610f9b6000830184610ee1565b92915050565b600082825260208201905092915050565b6000610fbd82611105565b9150610fc883611105565b9250827fffffffffffffffffffffffffffffffffffffffffffffffffffffffffffffffff03821115610ffd57610ffc611158565b5b828201905092915050565b600061101382611105565b915061101e83611105565b92508261102e5761102d611187565b5b828204905092915050565b600061104482611105565b915061104f83611105565b9250817fffffffffffffffffffffffffffffffffffffffffffffffffffffffffffffffff048311821515161561108857611087611158565b5b828202905092915050565b600061109e82611105565b91506110a983611105565b9250828210156110bc576110bb611158565b5b828203905092915050565b60006110d2826110e5565b9050919050565b60008115159050919050565b600073ffffffffffffffffffffffffffffffffffffffff82169050919050565b6000819050919050565b600061111a82611105565b91507fffffffffffffffffffffffffffffffffffffffffffffffffffffffffffffffff82141561114d5761114c611158565b5b600182019050919050565b7f4e487b7100000000000000000000000000000000000000000000000000000000600052601160045260246000fd5b7f4e487b7100000000000000000000000000000000000000000000000000000000600052601260045260246000fd5b7f4e487b7100000000000000000000000000000000000000000000000000000000600052603160045260246000fd5b7f4e487b7100000000000000000000000000000000000000000000000000000000600052603260045260246000fd5b600080fd5b7f6e6f7420656e6f75676820746f6b656e73000000000000000000000000000000600082015250565b7f536f72727921206f6e6c792061646d696e6973747261746f722063616e206d6f60008201527f6469667900000000000000000000000000000000000000000000000000000000602082015250565b7f536f72727921206f6e6c792061646d696e2063616e2069737375650000000000600082015250565b6112c3816110c7565b81146112ce57600080fd5b50565b6112da81611105565b81146112e557600080fd5b5056fea2646970667358221220e8c7483ef63c6af1891c124e5a031ff5deb4e7eb0bc5958599c6307e52045b8564736f6c63430008070033",
					"opcodes": "PUSH1 0xC0 PUSH1 0x40 MSTORE CALLVALUE DUP1 ISZERO PUSH3 0x11 JUMPI PUSH1 0x0 DUP1 REVERT JUMPDEST POP PUSH1 0x40 MLOAD PUSH3 0x14A7 CODESIZE SUB DUP1 PUSH3 0x14A7 DUP4 CODECOPY DUP2 DUP2 ADD PUSH1 0x40 MSTORE DUP2 ADD SWAP1 PUSH3 0x37 SWAP2 SWAP1 PUSH3 0xC3 JUMP JUMPDEST CALLER PUSH20 0xFFFFFFFFFFFFFFFFFFFFFFFFFFFFFFFFFFFFFFFF AND PUSH1 0x80 DUP2 PUSH20 0xFFFFFFFFFFFFFFFFFFFFFFFFFFFFFFFFFFFFFFFF AND PUSH1 0x60 SHL DUP2 MSTORE POP POP DUP1 PUSH20 0xFFFFFFFFFFFFFFFFFFFFFFFFFFFFFFFFFFFFFFFF AND PUSH1 0xA0 DUP2 PUSH20 0xFFFFFFFFFFFFFFFFFFFFFFFFFFFFFFFFFFFFFFFF AND PUSH1 0x60 SHL DUP2 MSTORE POP POP POP PUSH3 0x148 JUMP JUMPDEST PUSH1 0x0 DUP2 MLOAD SWAP1 POP PUSH3 0xBD DUP2 PUSH3 0x12E JUMP JUMPDEST SWAP3 SWAP2 POP POP JUMP JUMPDEST PUSH1 0x0 PUSH1 0x20 DUP3 DUP5 SUB SLT ISZERO PUSH3 0xDC JUMPI PUSH3 0xDB PUSH3 0x129 JUMP JUMPDEST JUMPDEST PUSH1 0x0 PUSH3 0xEC DUP5 DUP3 DUP6 ADD PUSH3 0xAC JUMP JUMPDEST SWAP2 POP POP SWAP3 SWAP2 POP POP JUMP JUMPDEST PUSH1 0x0 PUSH3 0x102 DUP3 PUSH3 0x109 JUMP JUMPDEST SWAP1 POP SWAP2 SWAP1 POP JUMP JUMPDEST PUSH1 0x0 PUSH20 0xFFFFFFFFFFFFFFFFFFFFFFFFFFFFFFFFFFFFFFFF DUP3 AND SWAP1 POP SWAP2 SWAP1 POP JUMP JUMPDEST PUSH1 0x0 DUP1 REVERT JUMPDEST PUSH3 0x139 DUP2 PUSH3 0xF5 JUMP JUMPDEST DUP2 EQ PUSH3 0x145 JUMPI PUSH1 0x0 DUP1 REVERT JUMPDEST POP JUMP JUMPDEST PUSH1 0x80 MLOAD PUSH1 0x60 SHR PUSH1 0xA0 MLOAD PUSH1 0x60 SHR PUSH2 0x131E PUSH3 0x189 PUSH1 0x0 CODECOPY PUSH1 0x0 DUP2 DUP2 PUSH2 0x5A5 ADD MSTORE DUP2 DUP2 PUSH2 0xAF2 ADD MSTORE PUSH2 0xD74 ADD MSTORE PUSH1 0x0 DUP2 DUP2 PUSH2 0x2EC ADD MSTORE PUSH2 0xBE6 ADD MSTORE PUSH2 0x131E PUSH1 0x0 RETURN INVALID PUSH1 0x80 PUSH1 0x40 MSTORE PUSH1 0x4 CALLDATASIZE LT PUSH2 0xA7 JUMPI PUSH1 0x0 CALLDATALOAD PUSH1 0xE0 SHR DUP1 PUSH4 0xCEC95ABD GT PUSH2 0x64 JUMPI DUP1 PUSH4 0xCEC95ABD EQ PUSH2 0x1BF JUMPI DUP1 PUSH4 0xE73B49B4 EQ PUSH2 0x1DB JUMPI DUP1 PUSH4 0xEB2EA054 EQ PUSH2 0x204 JUMPI DUP1 PUSH4 0xEF203825 EQ PUSH2 0x22D JUMPI DUP1 PUSH4 0xF481345A EQ PUSH2 0x26A JUMPI DUP1 PUSH4 0xF53D0A8E EQ PUSH2 0x2A7 JUMPI PUSH2 0xA7 JUMP JUMPDEST DUP1 PUSH4 0x7BB67B6 EQ PUSH2 0xAC JUMPI DUP1 PUSH4 0x475A9FA9 EQ PUSH2 0xE9 JUMPI DUP1 PUSH4 0x4BC8DD1F EQ PUSH2 0x112 JUMPI DUP1 PUSH4 0x532950F4 EQ PUSH2 0x12E JUMPI DUP1 PUSH4 0x9DFB3381 EQ PUSH2 0x16B JUMPI DUP1 PUSH4 0xBA32FDCA EQ PUSH2 0x194 JUMPI JUMPDEST PUSH1 0x0 DUP1 REVERT JUMPDEST CALLVALUE DUP1 ISZERO PUSH2 0xB8 JUMPI PUSH1 0x0 DUP1 REVERT JUMPDEST POP PUSH2 0xD3 PUSH1 0x4 DUP1 CALLDATASIZE SUB DUP2 ADD SWAP1 PUSH2 0xCE SWAP2 SWAP1 PUSH2 0xDC0 JUMP JUMPDEST PUSH2 0x2D2 JUMP JUMPDEST PUSH1 0x40 MLOAD PUSH2 0xE0 SWAP2 SWAP1 PUSH2 0xF86 JUMP JUMPDEST PUSH1 0x40 MLOAD DUP1 SWAP2 SUB SWAP1 RETURN JUMPDEST CALLVALUE DUP1 ISZERO PUSH2 0xF5 JUMPI PUSH1 0x0 DUP1 REVERT JUMPDEST POP PUSH2 0x110 PUSH1 0x4 DUP1 CALLDATASIZE SUB DUP2 ADD SWAP1 PUSH2 0x10B SWAP2 SWAP1 PUSH2 0xDED JUMP JUMPDEST PUSH2 0x2EA JUMP JUMPDEST STOP JUMPDEST PUSH2 0x12C PUSH1 0x4 DUP1 CALLDATASIZE SUB DUP2 ADD SWAP1 PUSH2 0x127 SWAP2 SWAP1 PUSH2 0xDED JUMP JUMPDEST PUSH2 0x3E7 JUMP JUMPDEST STOP JUMPDEST CALLVALUE DUP1 ISZERO PUSH2 0x13A JUMPI PUSH1 0x0 DUP1 REVERT JUMPDEST POP PUSH2 0x155 PUSH1 0x4 DUP1 CALLDATASIZE SUB DUP2 ADD SWAP1 PUSH2 0x150 SWAP2 SWAP1 PUSH2 0xE2D JUMP JUMPDEST PUSH2 0x564 JUMP JUMPDEST PUSH1 0x40 MLOAD PUSH2 0x162 SWAP2 SWAP1 PUSH2 0xEF0 JUMP JUMPDEST PUSH1 0x40 MLOAD DUP1 SWAP2 SUB SWAP1 RETURN JUMPDEST CALLVALUE DUP1 ISZERO PUSH2 0x177 JUMPI PUSH1 0x0 DUP1 REVERT JUMPDEST POP PUSH2 0x192 PUSH1 0x4 DUP1 CALLDATASIZE SUB DUP2 ADD SWAP1 PUSH2 0x18D SWAP2 SWAP1 PUSH2 0xDC0 JUMP JUMPDEST PUSH2 0x5A3 JUMP JUMPDEST STOP JUMPDEST CALLVALUE DUP1 ISZERO PUSH2 0x1A0 JUMPI PUSH1 0x0 DUP1 REVERT JUMPDEST POP PUSH2 0x1A9 PUSH2 0x7BE JUMP JUMPDEST PUSH1 0x40 MLOAD PUSH2 0x1B6 SWAP2 SWAP1 PUSH2 0xF86 JUMP JUMPDEST PUSH1 0x40 MLOAD DUP1 SWAP2 SUB SWAP1 RETURN JUMPDEST PUSH2 0x1D9 PUSH1 0x4 DUP1 CALLDATASIZE SUB DUP2 ADD SWAP1 PUSH2 0x1D4 SWAP2 SWAP1 PUSH2 0xDED JUMP JUMPDEST PUSH2 0x7CB JUMP JUMPDEST STOP JUMPDEST CALLVALUE DUP1 ISZERO PUSH2 0x1E7 JUMPI PUSH1 0x0 DUP1 REVERT JUMPDEST POP PUSH2 0x202 PUSH1 0x4 DUP1 CALLDATASIZE SUB DUP2 ADD SWAP1 PUSH2 0x1FD SWAP2 SWAP1 PUSH2 0xDC0 JUMP JUMPDEST PUSH2 0xAF0 JUMP JUMPDEST STOP JUMPDEST CALLVALUE DUP1 ISZERO PUSH2 0x210 JUMPI PUSH1 0x0 DUP1 REVERT JUMPDEST POP PUSH2 0x22B PUSH1 0x4 DUP1 CALLDATASIZE SUB DUP2 ADD SWAP1 PUSH2 0x226 SWAP2 SWAP1 PUSH2 0xDED JUMP JUMPDEST PUSH2 0xBE4 JUMP JUMPDEST STOP JUMPDEST CALLVALUE DUP1 ISZERO PUSH2 0x239 JUMPI PUSH1 0x0 DUP1 REVERT JUMPDEST POP PUSH2 0x254 PUSH1 0x4 DUP1 CALLDATASIZE SUB DUP2 ADD SWAP1 PUSH2 0x24F SWAP2 SWAP1 PUSH2 0xDC0 JUMP JUMPDEST PUSH2 0xCFE JUMP JUMPDEST PUSH1 0x40 MLOAD PUSH2 0x261 SWAP2 SWAP1 PUSH2 0xF86 JUMP JUMPDEST PUSH1 0x40 MLOAD DUP1 SWAP2 SUB SWAP1 RETURN JUMPDEST CALLVALUE DUP1 ISZERO PUSH2 0x276 JUMPI PUSH1 0x0 DUP1 REVERT JUMPDEST POP PUSH2 0x291 PUSH1 0x4 DUP1 CALLDATASIZE SUB DUP2 ADD SWAP1 PUSH2 0x28C SWAP2 SWAP1 PUSH2 0xDC0 JUMP JUMPDEST PUSH2 0xD16 JUMP JUMPDEST PUSH1 0x40 MLOAD PUSH2 0x29E SWAP2 SWAP1 PUSH2 0xF0B JUMP JUMPDEST PUSH1 0x40 MLOAD DUP1 SWAP2 SUB SWAP1 RETURN JUMPDEST CALLVALUE DUP1 ISZERO PUSH2 0x2B3 JUMPI PUSH1 0x0 DUP1 REVERT JUMPDEST POP PUSH2 0x2BC PUSH2 0xD72 JUMP JUMPDEST PUSH1 0x40 MLOAD PUSH2 0x2C9 SWAP2 SWAP1 PUSH2 0xEF0 JUMP JUMPDEST PUSH1 0x40 MLOAD DUP1 SWAP2 SUB SWAP1 RETURN JUMPDEST PUSH1 0x0 PUSH1 0x20 MSTORE DUP1 PUSH1 0x0 MSTORE PUSH1 0x40 PUSH1 0x0 KECCAK256 PUSH1 0x0 SWAP2 POP SWAP1 POP SLOAD DUP2 JUMP JUMPDEST PUSH32 0x0 PUSH20 0xFFFFFFFFFFFFFFFFFFFFFFFFFFFFFFFFFFFFFFFF AND CALLER PUSH20 0xFFFFFFFFFFFFFFFFFFFFFFFFFFFFFFFFFFFFFFFF AND EQ PUSH2 0x378 JUMPI PUSH1 0x40 MLOAD PUSH32 0x8C379A000000000000000000000000000000000000000000000000000000000 DUP2 MSTORE PUSH1 0x4 ADD PUSH2 0x36F SWAP1 PUSH2 0xF66 JUMP JUMPDEST PUSH1 0x40 MLOAD DUP1 SWAP2 SUB SWAP1 REVERT JUMPDEST PUSH1 0x1 ISZERO ISZERO PUSH2 0x385 DUP4 PUSH2 0xD16 JUMP JUMPDEST ISZERO ISZERO EQ ISZERO PUSH2 0x3E3 JUMPI DUP1 PUSH1 0x0 DUP1 DUP5 PUSH20 0xFFFFFFFFFFFFFFFFFFFFFFFFFFFFFFFFFFFFFFFF AND PUSH20 0xFFFFFFFFFFFFFFFFFFFFFFFFFFFFFFFFFFFFFFFF AND DUP2 MSTORE PUSH1 0x20 ADD SWAP1 DUP2 MSTORE PUSH1 0x20 ADD PUSH1 0x0 KECCAK256 PUSH1 0x0 DUP3 DUP3 SLOAD PUSH2 0x3DB SWAP2 SWAP1 PUSH2 0xFB2 JUMP JUMPDEST SWAP3 POP POP DUP2 SWAP1 SSTORE POP JUMPDEST POP POP JUMP JUMPDEST PUSH1 0x0 DUP2 PUSH1 0x0 DUP1 CALLER PUSH20 0xFFFFFFFFFFFFFFFFFFFFFFFFFFFFFFFFFFFFFFFF AND PUSH20 0xFFFFFFFFFFFFFFFFFFFFFFFFFFFFFFFFFFFFFFFF AND DUP2 MSTORE PUSH1 0x20 ADD SWAP1 DUP2 MSTORE PUSH1 0x20 ADD PUSH1 0x0 KECCAK256 SLOAD PUSH2 0x433 SWAP2 SWAP1 PUSH2 0x1093 JUMP JUMPDEST LT ISZERO PUSH2 0x474 JUMPI PUSH1 0x40 MLOAD PUSH32 0x8C379A000000000000000000000000000000000000000000000000000000000 DUP2 MSTORE PUSH1 0x4 ADD PUSH2 0x46B SWAP1 PUSH2 0xF26 JUMP JUMPDEST PUSH1 0x40 MLOAD DUP1 SWAP2 SUB SWAP1 REVERT JUMPDEST PUSH1 0x0 JUMPDEST PUSH1 0x2 DUP1 SLOAD SWAP1 POP DUP2 LT ISZERO PUSH2 0x55F JUMPI PUSH1 0x2 DUP2 DUP2 SLOAD DUP2 LT PUSH2 0x498 JUMPI PUSH2 0x497 PUSH2 0x11E5 JUMP JUMPDEST JUMPDEST SWAP1 PUSH1 0x0 MSTORE PUSH1 0x20 PUSH1 0x0 KECCAK256 ADD PUSH1 0x0 SWAP1 SLOAD SWAP1 PUSH2 0x100 EXP SWAP1 DIV PUSH20 0xFFFFFFFFFFFFFFFFFFFFFFFFFFFFFFFFFFFFFFFF AND PUSH20 0xFFFFFFFFFFFFFFFFFFFFFFFFFFFFFFFFFFFFFFFF AND DUP4 PUSH20 0xFFFFFFFFFFFFFFFFFFFFFFFFFFFFFFFFFFFFFFFF AND EQ ISZERO PUSH2 0x54C JUMPI DUP2 PUSH1 0x0 DUP1 CALLER PUSH20 0xFFFFFFFFFFFFFFFFFFFFFFFFFFFFFFFFFFFFFFFF AND PUSH20 0xFFFFFFFFFFFFFFFFFFFFFFFFFFFFFFFFFFFFFFFF AND DUP2 MSTORE PUSH1 0x20 ADD SWAP1 DUP2 MSTORE PUSH1 0x20 ADD PUSH1 0x0 KECCAK256 PUSH1 0x0 DUP3 DUP3 SLOAD PUSH2 0x544 SWAP2 SWAP1 PUSH2 0x1093 JUMP JUMPDEST SWAP3 POP POP DUP2 SWAP1 SSTORE POP JUMPDEST DUP1 DUP1 PUSH2 0x557 SWAP1 PUSH2 0x110F JUMP JUMPDEST SWAP2 POP POP PUSH2 0x477 JUMP JUMPDEST POP POP POP JUMP JUMPDEST PUSH1 0x2 DUP2 DUP2 SLOAD DUP2 LT PUSH2 0x574 JUMPI PUSH1 0x0 DUP1 REVERT JUMPDEST SWAP1 PUSH1 0x0 MSTORE PUSH1 0x20 PUSH1 0x0 KECCAK256 ADD PUSH1 0x0 SWAP2 POP SLOAD SWAP1 PUSH2 0x100 EXP SWAP1 DIV PUSH20 0xFFFFFFFFFFFFFFFFFFFFFFFFFFFFFFFFFFFFFFFF AND DUP2 JUMP JUMPDEST PUSH32 0x0 PUSH20 0xFFFFFFFFFFFFFFFFFFFFFFFFFFFFFFFFFFFFFFFF AND CALLER PUSH20 0xFFFFFFFFFFFFFFFFFFFFFFFFFFFFFFFFFFFFFFFF AND EQ PUSH2 0x631 JUMPI PUSH1 0x40 MLOAD PUSH32 0x8C379A000000000000000000000000000000000000000000000000000000000 DUP2 MSTORE PUSH1 0x4 ADD PUSH2 0x628 SWAP1 PUSH2 0xF46 JUMP JUMPDEST PUSH1 0x40 MLOAD DUP1 SWAP2 SUB SWAP1 REVERT JUMPDEST PUSH1 0x0 JUMPDEST PUSH1 0x2 DUP1 SLOAD SWAP1 POP DUP2 LT ISZERO PUSH2 0x7BA JUMPI DUP2 PUSH20 0xFFFFFFFFFFFFFFFFFFFFFFFFFFFFFFFFFFFFFFFF AND PUSH1 0x2 DUP3 DUP2 SLOAD DUP2 LT PUSH2 0x66C JUMPI PUSH2 0x66B PUSH2 0x11E5 JUMP JUMPDEST JUMPDEST SWAP1 PUSH1 0x0 MSTORE PUSH1 0x20 PUSH1 0x0 KECCAK256 ADD PUSH1 0x0 SWAP1 SLOAD SWAP1 PUSH2 0x100 EXP SWAP1 DIV PUSH20 0xFFFFFFFFFFFFFFFFFFFFFFFFFFFFFFFFFFFFFFFF AND PUSH20 0xFFFFFFFFFFFFFFFFFFFFFFFFFFFFFFFFFFFFFFFF AND EQ ISZERO PUSH2 0x7A7 JUMPI PUSH1 0x2 PUSH1 0x1 PUSH1 0x2 DUP1 SLOAD SWAP1 POP PUSH2 0x6C7 SWAP2 SWAP1 PUSH2 0x1093 JUMP JUMPDEST DUP2 SLOAD DUP2 LT PUSH2 0x6D8 JUMPI PUSH2 0x6D7 PUSH2 0x11E5 JUMP JUMPDEST JUMPDEST SWAP1 PUSH1 0x0 MSTORE PUSH1 0x20 PUSH1 0x0 KECCAK256 ADD PUSH1 0x0 SWAP1 SLOAD SWAP1 PUSH2 0x100 EXP SWAP1 DIV PUSH20 0xFFFFFFFFFFFFFFFFFFFFFFFFFFFFFFFFFFFFFFFF AND PUSH1 0x2 DUP3 DUP2 SLOAD DUP2 LT PUSH2 0x717 JUMPI PUSH2 0x716 PUSH2 0x11E5 JUMP JUMPDEST JUMPDEST SWAP1 PUSH1 0x0 MSTORE PUSH1 0x20 PUSH1 0x0 KECCAK256 ADD PUSH1 0x0 PUSH2 0x100 EXP DUP2 SLOAD DUP2 PUSH20 0xFFFFFFFFFFFFFFFFFFFFFFFFFFFFFFFFFFFFFFFF MUL NOT AND SWAP1 DUP4 PUSH20 0xFFFFFFFFFFFFFFFFFFFFFFFFFFFFFFFFFFFFFFFF AND MUL OR SWAP1 SSTORE POP PUSH1 0x2 DUP1 SLOAD DUP1 PUSH2 0x771 JUMPI PUSH2 0x770 PUSH2 0x11B6 JUMP JUMPDEST JUMPDEST PUSH1 0x1 SWAP1 SUB DUP2 DUP2 SWAP1 PUSH1 0x0 MSTORE PUSH1 0x20 PUSH1 0x0 KECCAK256 ADD PUSH1 0x0 PUSH2 0x100 EXP DUP2 SLOAD SWAP1 PUSH20 0xFFFFFFFFFFFFFFFFFFFFFFFFFFFFFFFFFFFFFFFF MUL NOT AND SWAP1 SSTORE SWAP1 SSTORE JUMPDEST DUP1 DUP1 PUSH2 0x7B2 SWAP1 PUSH2 0x110F JUMP JUMPDEST SWAP2 POP POP PUSH2 0x634 JUMP JUMPDEST POP POP JUMP JUMPDEST PUSH1 0x0 PUSH1 0x2 DUP1 SLOAD SWAP1 POP SWAP1 POP SWAP1 JUMP JUMPDEST PUSH1 0x0 DUP2 PUSH1 0x0 DUP1 CALLER PUSH20 0xFFFFFFFFFFFFFFFFFFFFFFFFFFFFFFFFFFFFFFFF AND PUSH20 0xFFFFFFFFFFFFFFFFFFFFFFFFFFFFFFFFFFFFFFFF AND DUP2 MSTORE PUSH1 0x20 ADD SWAP1 DUP2 MSTORE PUSH1 0x20 ADD PUSH1 0x0 KECCAK256 SLOAD PUSH2 0x817 SWAP2 SWAP1 PUSH2 0x1093 JUMP JUMPDEST LT ISZERO PUSH2 0x858 JUMPI PUSH1 0x40 MLOAD PUSH32 0x8C379A000000000000000000000000000000000000000000000000000000000 DUP2 MSTORE PUSH1 0x4 ADD PUSH2 0x84F SWAP1 PUSH2 0xF26 JUMP JUMPDEST PUSH1 0x40 MLOAD DUP1 SWAP2 SUB SWAP1 REVERT JUMPDEST PUSH1 0x1 ISZERO ISZERO PUSH2 0x865 DUP4 PUSH2 0xD16 JUMP JUMPDEST ISZERO ISZERO EQ ISZERO PUSH2 0xAEC JUMPI PUSH1 0x1 PUSH1 0x0 CALLER PUSH20 0xFFFFFFFFFFFFFFFFFFFFFFFFFFFFFFFFFFFFFFFF AND PUSH20 0xFFFFFFFFFFFFFFFFFFFFFFFFFFFFFFFFFFFFFFFF AND DUP2 MSTORE PUSH1 0x20 ADD SWAP1 DUP2 MSTORE PUSH1 0x20 ADD PUSH1 0x0 KECCAK256 SLOAD PUSH1 0x1 PUSH1 0x0 DUP5 PUSH20 0xFFFFFFFFFFFFFFFFFFFFFFFFFFFFFFFFFFFFFFFF AND PUSH20 0xFFFFFFFFFFFFFFFFFFFFFFFFFFFFFFFFFFFFFFFF AND DUP2 MSTORE PUSH1 0x20 ADD SWAP1 DUP2 MSTORE PUSH1 0x20 ADD PUSH1 0x0 KECCAK256 SLOAD EQ PUSH2 0x9B9 JUMPI DUP1 PUSH1 0x0 DUP1 CALLER PUSH20 0xFFFFFFFFFFFFFFFFFFFFFFFFFFFFFFFFFFFFFFFF AND PUSH20 0xFFFFFFFFFFFFFFFFFFFFFFFFFFFFFFFFFFFFFFFF AND DUP2 MSTORE PUSH1 0x20 ADD SWAP1 DUP2 MSTORE PUSH1 0x20 ADD PUSH1 0x0 KECCAK256 PUSH1 0x0 DUP3 DUP3 SLOAD PUSH2 0x940 SWAP2 SWAP1 PUSH2 0x1093 JUMP JUMPDEST SWAP3 POP POP DUP2 SWAP1 SSTORE POP PUSH1 0x4 DUP2 PUSH1 0x3 PUSH2 0x956 SWAP2 SWAP1 PUSH2 0x1039 JUMP JUMPDEST PUSH2 0x960 SWAP2 SWAP1 PUSH2 0x1008 JUMP JUMPDEST PUSH1 0x0 DUP1 DUP5 PUSH20 0xFFFFFFFFFFFFFFFFFFFFFFFFFFFFFFFFFFFFFFFF AND PUSH20 0xFFFFFFFFFFFFFFFFFFFFFFFFFFFFFFFFFFFFFFFF AND DUP2 MSTORE PUSH1 0x20 ADD SWAP1 DUP2 MSTORE PUSH1 0x20 ADD PUSH1 0x0 KECCAK256 PUSH1 0x0 DUP3 DUP3 SLOAD PUSH2 0x9AD SWAP2 SWAP1 PUSH2 0xFB2 JUMP JUMPDEST SWAP3 POP POP DUP2 SWAP1 SSTORE POP PUSH2 0xAEB JUMP JUMPDEST PUSH1 0x1 PUSH1 0x0 CALLER PUSH20 0xFFFFFFFFFFFFFFFFFFFFFFFFFFFFFFFFFFFFFFFF AND PUSH20 0xFFFFFFFFFFFFFFFFFFFFFFFFFFFFFFFFFFFFFFFF AND DUP2 MSTORE PUSH1 0x20 ADD SWAP1 DUP2 MSTORE PUSH1 0x20 ADD PUSH1 0x0 KECCAK256 SLOAD PUSH1 0x1 PUSH1 0x0 DUP5 PUSH20 0xFFFFFFFFFFFFFFFFFFFFFFFFFFFFFFFFFFFFFFFF AND PUSH20 0xFFFFFFFFFFFFFFFFFFFFFFFFFFFFFFFFFFFFFFFF AND DUP2 MSTORE PUSH1 0x20 ADD SWAP1 DUP2 MSTORE PUSH1 0x20 ADD PUSH1 0x0 KECCAK256 SLOAD EQ ISZERO PUSH2 0xAEA JUMPI DUP1 PUSH1 0x0 DUP1 CALLER PUSH20 0xFFFFFFFFFFFFFFFFFFFFFFFFFFFFFFFFFFFFFFFF AND PUSH20 0xFFFFFFFFFFFFFFFFFFFFFFFFFFFFFFFFFFFFFFFF AND DUP2 MSTORE PUSH1 0x20 ADD SWAP1 DUP2 MSTORE PUSH1 0x20 ADD PUSH1 0x0 KECCAK256 PUSH1 0x0 DUP3 DUP3 SLOAD PUSH2 0xA8D SWAP2 SWAP1 PUSH2 0x1093 JUMP JUMPDEST SWAP3 POP POP DUP2 SWAP1 SSTORE POP DUP1 PUSH1 0x0 DUP1 DUP5 PUSH20 0xFFFFFFFFFFFFFFFFFFFFFFFFFFFFFFFFFFFFFFFF AND PUSH20 0xFFFFFFFFFFFFFFFFFFFFFFFFFFFFFFFFFFFFFFFF AND DUP2 MSTORE PUSH1 0x20 ADD SWAP1 DUP2 MSTORE PUSH1 0x20 ADD PUSH1 0x0 KECCAK256 PUSH1 0x0 DUP3 DUP3 SLOAD PUSH2 0xAE2 SWAP2 SWAP1 PUSH2 0xFB2 JUMP JUMPDEST SWAP3 POP POP DUP2 SWAP1 SSTORE POP JUMPDEST JUMPDEST JUMPDEST POP POP JUMP JUMPDEST PUSH32 0x0 PUSH20 0xFFFFFFFFFFFFFFFFFFFFFFFFFFFFFFFFFFFFFFFF AND CALLER PUSH20 0xFFFFFFFFFFFFFFFFFFFFFFFFFFFFFFFFFFFFFFFF AND EQ PUSH2 0xB7E JUMPI PUSH1 0x40 MLOAD PUSH32 0x8C379A000000000000000000000000000000000000000000000000000000000 DUP2 MSTORE PUSH1 0x4 ADD PUSH2 0xB75 SWAP1 PUSH2 0xF46 JUMP JUMPDEST PUSH1 0x40 MLOAD DUP1 SWAP2 SUB SWAP1 REVERT JUMPDEST PUSH1 0x2 DUP2 SWAP1 DUP1 PUSH1 0x1 DUP2 SLOAD ADD DUP1 DUP3 SSTORE DUP1 SWAP2 POP POP PUSH1 0x1 SWAP1 SUB SWAP1 PUSH1 0x0 MSTORE PUSH1 0x20 PUSH1 0x0 KECCAK256 ADD PUSH1 0x0 SWAP1 SWAP2 SWAP1 SWAP2 SWAP1 SWAP2 PUSH2 0x100 EXP DUP2 SLOAD DUP2 PUSH20 0xFFFFFFFFFFFFFFFFFFFFFFFFFFFFFFFFFFFFFFFF MUL NOT AND SWAP1 DUP4 PUSH20 0xFFFFFFFFFFFFFFFFFFFFFFFFFFFFFFFFFFFFFFFF AND MUL OR SWAP1 SSTORE POP POP JUMP JUMPDEST PUSH32 0x0 PUSH20 0xFFFFFFFFFFFFFFFFFFFFFFFFFFFFFFFFFFFFFFFF AND CALLER PUSH20 0xFFFFFFFFFFFFFFFFFFFFFFFFFFFFFFFFFFFFFFFF AND EQ PUSH2 0xC72 JUMPI PUSH1 0x40 MLOAD PUSH32 0x8C379A000000000000000000000000000000000000000000000000000000000 DUP2 MSTORE PUSH1 0x4 ADD PUSH2 0xC69 SWAP1 PUSH2 0xF66 JUMP JUMPDEST PUSH1 0x40 MLOAD DUP1 SWAP2 SUB SWAP1 REVERT JUMPDEST PUSH1 0x0 DUP1 PUSH1 0x0 DUP5 PUSH20 0xFFFFFFFFFFFFFFFFFFFFFFFFFFFFFFFFFFFFFFFF AND PUSH20 0xFFFFFFFFFFFFFFFFFFFFFFFFFFFFFFFFFFFFFFFF AND DUP2 MSTORE PUSH1 0x20 ADD SWAP1 DUP2 MSTORE PUSH1 0x20 ADD PUSH1 0x0 KECCAK256 DUP2 SWAP1 SSTORE POP DUP1 PUSH1 0x1 PUSH1 0x0 DUP5 PUSH20 0xFFFFFFFFFFFFFFFFFFFFFFFFFFFFFFFFFFFFFFFF AND PUSH20 0xFFFFFFFFFFFFFFFFFFFFFFFFFFFFFFFFFFFFFFFF AND DUP2 MSTORE PUSH1 0x20 ADD SWAP1 DUP2 MSTORE PUSH1 0x20 ADD PUSH1 0x0 KECCAK256 DUP2 SWAP1 SSTORE POP POP POP JUMP JUMPDEST PUSH1 0x1 PUSH1 0x20 MSTORE DUP1 PUSH1 0x0 MSTORE PUSH1 0x40 PUSH1 0x0 KECCAK256 PUSH1 0x0 SWAP2 POP SWAP1 POP SLOAD DUP2 JUMP JUMPDEST PUSH1 0x0 DUP1 PUSH1 0x1 PUSH1 0x0 DUP5 PUSH20 0xFFFFFFFFFFFFFFFFFFFFFFFFFFFFFFFFFFFFFFFF AND PUSH20 0xFFFFFFFFFFFFFFFFFFFFFFFFFFFFFFFFFFFFFFFF AND DUP2 MSTORE PUSH1 0x20 ADD SWAP1 DUP2 MSTORE PUSH1 0x20 ADD PUSH1 0x0 KECCAK256 SLOAD GT ISZERO PUSH2 0xD68 JUMPI PUSH1 0x1 SWAP1 POP PUSH2 0xD6D JUMP JUMPDEST PUSH1 0x0 SWAP1 POP JUMPDEST SWAP2 SWAP1 POP JUMP JUMPDEST PUSH32 0x0 DUP2 JUMP JUMPDEST PUSH1 0x0 DUP2 CALLDATALOAD SWAP1 POP PUSH2 0xDA5 DUP2 PUSH2 0x12BA JUMP JUMPDEST SWAP3 SWAP2 POP POP JUMP JUMPDEST PUSH1 0x0 DUP2 CALLDATALOAD SWAP1 POP PUSH2 0xDBA DUP2 PUSH2 0x12D1 JUMP JUMPDEST SWAP3 SWAP2 POP POP JUMP JUMPDEST PUSH1 0x0 PUSH1 0x20 DUP3 DUP5 SUB SLT ISZERO PUSH2 0xDD6 JUMPI PUSH2 0xDD5 PUSH2 0x1214 JUMP JUMPDEST JUMPDEST PUSH1 0x0 PUSH2 0xDE4 DUP5 DUP3 DUP6 ADD PUSH2 0xD96 JUMP JUMPDEST SWAP2 POP POP SWAP3 SWAP2 POP POP JUMP JUMPDEST PUSH1 0x0 DUP1 PUSH1 0x40 DUP4 DUP6 SUB SLT ISZERO PUSH2 0xE04 JUMPI PUSH2 0xE03 PUSH2 0x1214 JUMP JUMPDEST JUMPDEST PUSH1 0x0 PUSH2 0xE12 DUP6 DUP3 DUP7 ADD PUSH2 0xD96 JUMP JUMPDEST SWAP3 POP POP PUSH1 0x20 PUSH2 0xE23 DUP6 DUP3 DUP7 ADD PUSH2 0xDAB JUMP JUMPDEST SWAP2 POP POP SWAP3 POP SWAP3 SWAP1 POP JUMP JUMPDEST PUSH1 0x0 PUSH1 0x20 DUP3 DUP5 SUB SLT ISZERO PUSH2 0xE43 JUMPI PUSH2 0xE42 PUSH2 0x1214 JUMP JUMPDEST JUMPDEST PUSH1 0x0 PUSH2 0xE51 DUP5 DUP3 DUP6 ADD PUSH2 0xDAB JUMP JUMPDEST SWAP2 POP POP SWAP3 SWAP2 POP POP JUMP JUMPDEST PUSH2 0xE63 DUP2 PUSH2 0x10C7 JUMP JUMPDEST DUP3 MSTORE POP POP JUMP JUMPDEST PUSH2 0xE72 DUP2 PUSH2 0x10D9 JUMP JUMPDEST DUP3 MSTORE POP POP JUMP JUMPDEST PUSH1 0x0 PUSH2 0xE85 PUSH1 0x11 DUP4 PUSH2 0xFA1 JUMP JUMPDEST SWAP2 POP PUSH2 0xE90 DUP3 PUSH2 0x1219 JUMP JUMPDEST PUSH1 0x20 DUP3 ADD SWAP1 POP SWAP2 SWAP1 POP JUMP JUMPDEST PUSH1 0x0 PUSH2 0xEA8 PUSH1 0x24 DUP4 PUSH2 0xFA1 JUMP JUMPDEST SWAP2 POP PUSH2 0xEB3 DUP3 PUSH2 0x1242 JUMP JUMPDEST PUSH1 0x40 DUP3 ADD SWAP1 POP SWAP2 SWAP1 POP JUMP JUMPDEST PUSH1 0x0 PUSH2 0xECB PUSH1 0x1B DUP4 PUSH2 0xFA1 JUMP JUMPDEST SWAP2 POP PUSH2 0xED6 DUP3 PUSH2 0x1291 JUMP JUMPDEST PUSH1 0x20 DUP3 ADD SWAP1 POP SWAP2 SWAP1 POP JUMP JUMPDEST PUSH2 0xEEA DUP2 PUSH2 0x1105 JUMP JUMPDEST DUP3 MSTORE POP POP JUMP JUMPDEST PUSH1 0x0 PUSH1 0x20 DUP3 ADD SWAP1 POP PUSH2 0xF05 PUSH1 0x0 DUP4 ADD DUP5 PUSH2 0xE5A JUMP JUMPDEST SWAP3 SWAP2 POP POP JUMP JUMPDEST PUSH1 0x0 PUSH1 0x20 DUP3 ADD SWAP1 POP PUSH2 0xF20 PUSH1 0x0 DUP4 ADD DUP5 PUSH2 0xE69 JUMP JUMPDEST SWAP3 SWAP2 POP POP JUMP JUMPDEST PUSH1 0x0 PUSH1 0x20 DUP3 ADD SWAP1 POP DUP2 DUP2 SUB PUSH1 0x0 DUP4 ADD MSTORE PUSH2 0xF3F DUP2 PUSH2 0xE78 JUMP JUMPDEST SWAP1 POP SWAP2 SWAP1 POP JUMP JUMPDEST PUSH1 0x0 PUSH1 0x20 DUP3 ADD SWAP1 POP DUP2 DUP2 SUB PUSH1 0x0 DUP4 ADD MSTORE PUSH2 0xF5F DUP2 PUSH2 0xE9B JUMP JUMPDEST SWAP1 POP SWAP2 SWAP1 POP JUMP JUMPDEST PUSH1 0x0 PUSH1 0x20 DUP3 ADD SWAP1 POP DUP2 DUP2 SUB PUSH1 0x0 DUP4 ADD MSTORE PUSH2 0xF7F DUP2 PUSH2 0xEBE JUMP JUMPDEST SWAP1 POP SWAP2 SWAP1 POP JUMP JUMPDEST PUSH1 0x0 PUSH1 0x20 DUP3 ADD SWAP1 POP PUSH2 0xF9B PUSH1 0x0 DUP4 ADD DUP5 PUSH2 0xEE1 JUMP JUMPDEST SWAP3 SWAP2 POP POP JUMP JUMPDEST PUSH1 0x0 DUP3 DUP3 MSTORE PUSH1 0x20 DUP3 ADD SWAP1 POP SWAP3 SWAP2 POP POP JUMP JUMPDEST PUSH1 0x0 PUSH2 0xFBD DUP3 PUSH2 0x1105 JUMP JUMPDEST SWAP2 POP PUSH2 0xFC8 DUP4 PUSH2 0x1105 JUMP JUMPDEST SWAP3 POP DUP3 PUSH32 0xFFFFFFFFFFFFFFFFFFFFFFFFFFFFFFFFFFFFFFFFFFFFFFFFFFFFFFFFFFFFFFFF SUB DUP3 GT ISZERO PUSH2 0xFFD JUMPI PUSH2 0xFFC PUSH2 0x1158 JUMP JUMPDEST JUMPDEST DUP3 DUP3 ADD SWAP1 POP SWAP3 SWAP2 POP POP JUMP JUMPDEST PUSH1 0x0 PUSH2 0x1013 DUP3 PUSH2 0x1105 JUMP JUMPDEST SWAP2 POP PUSH2 0x101E DUP4 PUSH2 0x1105 JUMP JUMPDEST SWAP3 POP DUP3 PUSH2 0x102E JUMPI PUSH2 0x102D PUSH2 0x1187 JUMP JUMPDEST JUMPDEST DUP3 DUP3 DIV SWAP1 POP SWAP3 SWAP2 POP POP JUMP JUMPDEST PUSH1 0x0 PUSH2 0x1044 DUP3 PUSH2 0x1105 JUMP JUMPDEST SWAP2 POP PUSH2 0x104F DUP4 PUSH2 0x1105 JUMP JUMPDEST SWAP3 POP DUP2 PUSH32 0xFFFFFFFFFFFFFFFFFFFFFFFFFFFFFFFFFFFFFFFFFFFFFFFFFFFFFFFFFFFFFFFF DIV DUP4 GT DUP3 ISZERO ISZERO AND ISZERO PUSH2 0x1088 JUMPI PUSH2 0x1087 PUSH2 0x1158 JUMP JUMPDEST JUMPDEST DUP3 DUP3 MUL SWAP1 POP SWAP3 SWAP2 POP POP JUMP JUMPDEST PUSH1 0x0 PUSH2 0x109E DUP3 PUSH2 0x1105 JUMP JUMPDEST SWAP2 POP PUSH2 0x10A9 DUP4 PUSH2 0x1105 JUMP JUMPDEST SWAP3 POP DUP3 DUP3 LT ISZERO PUSH2 0x10BC JUMPI PUSH2 0x10BB PUSH2 0x1158 JUMP JUMPDEST JUMPDEST DUP3 DUP3 SUB SWAP1 POP SWAP3 SWAP2 POP POP JUMP JUMPDEST PUSH1 0x0 PUSH2 0x10D2 DUP3 PUSH2 0x10E5 JUMP JUMPDEST SWAP1 POP SWAP2 SWAP1 POP JUMP JUMPDEST PUSH1 0x0 DUP2 ISZERO ISZERO SWAP1 POP SWAP2 SWAP1 POP JUMP JUMPDEST PUSH1 0x0 PUSH20 0xFFFFFFFFFFFFFFFFFFFFFFFFFFFFFFFFFFFFFFFF DUP3 AND SWAP1 POP SWAP2 SWAP1 POP JUMP JUMPDEST PUSH1 0x0 DUP2 SWAP1 POP SWAP2 SWAP1 POP JUMP JUMPDEST PUSH1 0x0 PUSH2 0x111A DUP3 PUSH2 0x1105 JUMP JUMPDEST SWAP2 POP PUSH32 0xFFFFFFFFFFFFFFFFFFFFFFFFFFFFFFFFFFFFFFFFFFFFFFFFFFFFFFFFFFFFFFFF DUP3 EQ ISZERO PUSH2 0x114D JUMPI PUSH2 0x114C PUSH2 0x1158 JUMP JUMPDEST JUMPDEST PUSH1 0x1 DUP3 ADD SWAP1 POP SWAP2 SWAP1 POP JUMP JUMPDEST PUSH32 0x4E487B7100000000000000000000000000000000000000000000000000000000 PUSH1 0x0 MSTORE PUSH1 0x11 PUSH1 0x4 MSTORE PUSH1 0x24 PUSH1 0x0 REVERT JUMPDEST PUSH32 0x4E487B7100000000000000000000000000000000000000000000000000000000 PUSH1 0x0 MSTORE PUSH1 0x12 PUSH1 0x4 MSTORE PUSH1 0x24 PUSH1 0x0 REVERT JUMPDEST PUSH32 0x4E487B7100000000000000000000000000000000000000000000000000000000 PUSH1 0x0 MSTORE PUSH1 0x31 PUSH1 0x4 MSTORE PUSH1 0x24 PUSH1 0x0 REVERT JUMPDEST PUSH32 0x4E487B7100000000000000000000000000000000000000000000000000000000 PUSH1 0x0 MSTORE PUSH1 0x32 PUSH1 0x4 MSTORE PUSH1 0x24 PUSH1 0x0 REVERT JUMPDEST PUSH1 0x0 DUP1 REVERT JUMPDEST PUSH32 0x6E6F7420656E6F75676820746F6B656E73000000000000000000000000000000 PUSH1 0x0 DUP3 ADD MSTORE POP JUMP JUMPDEST PUSH32 0x536F72727921206F6E6C792061646D696E6973747261746F722063616E206D6F PUSH1 0x0 DUP3 ADD MSTORE PUSH32 0x6469667900000000000000000000000000000000000000000000000000000000 PUSH1 0x20 DUP3 ADD MSTORE POP JUMP JUMPDEST PUSH32 0x536F72727921206F6E6C792061646D696E2063616E2069737375650000000000 PUSH1 0x0 DUP3 ADD MSTORE POP JUMP JUMPDEST PUSH2 0x12C3 DUP2 PUSH2 0x10C7 JUMP JUMPDEST DUP2 EQ PUSH2 0x12CE JUMPI PUSH1 0x0 DUP1 REVERT JUMPDEST POP JUMP JUMPDEST PUSH2 0x12DA DUP2 PUSH2 0x1105 JUMP JUMPDEST DUP2 EQ PUSH2 0x12E5 JUMPI PUSH1 0x0 DUP1 REVERT JUMPDEST POP JUMP INVALID LOG2 PUSH5 0x6970667358 0x22 SLT KECCAK256 0xE8 0xC7 BASEFEE RETURNDATACOPY 0xF6 EXTCODECOPY PUSH11 0xF1891C124E5A031FF5DEB4 0xE7 0xEB SIGNEXTEND 0xC5 SWAP6 DUP6 SWAP10 0xC6 ADDRESS PUSH31 0x52045B8564736F6C6343000807003300000000000000000000000000000000 "
				},
				"gasEstimates": {
					"creation": {
						"codeDepositCost": "978800",
						"executionCost": "infinite",
						"totalCost": "infinite"
					},
					"external": {
						"addRewards(address)": "infinite",
						"administrator()": "infinite",
						"checkStudent(address)": "2972",
						"idCardMap(address)": "2815",
						"issueIdCard(address,uint256)": "infinite",
						"issueTokens(address,uint256)": "infinite",
						"payToStudent(address,uint256)": "infinite",
						"payToVendor(address,uint256)": "infinite",
						"removeRewards(address)": "infinite",
						"rewardsArray(uint256)": "5023",
						"rewardsArrayLength()": "2556",
						"yearMap(address)": "2880"
					}
				},
				"methodIdentifiers": {
					"addRewards(address)": "e73b49b4",
					"administrator()": "f53d0a8e",
					"checkStudent(address)": "f481345a",
					"idCardMap(address)": "07bb67b6",
					"issueIdCard(address,uint256)": "eb2ea054",
					"issueTokens(address,uint256)": "475a9fa9",
					"payToStudent(address,uint256)": "cec95abd",
					"payToVendor(address,uint256)": "4bc8dd1f",
					"removeRewards(address)": "9dfb3381",
					"rewardsArray(uint256)": "532950f4",
					"rewardsArrayLength()": "ba32fdca",
					"yearMap(address)": "ef203825"
				}
			},
			"storageLayout": {
				"storage": [
					{
						"astId": 44,
						"contract": "contracts/TokenStudents.sol:TokenStudents",
						"label": "idCardMap",
						"offset": 0,
						"slot": "0",
						"type": "t_mapping(t_address,t_uint256)"
					},
					{
						"astId": 48,
						"contract": "contracts/TokenStudents.sol:TokenStudents",
						"label": "yearMap",
						"offset": 0,
						"slot": "1",
						"type": "t_mapping(t_address,t_uint256)"
					},
					{
						"astId": 100,
						"contract": "contracts/TokenStudents.sol:TokenStudents",
						"label": "rewardsArray",
						"offset": 0,
						"slot": "2",
						"type": "t_array(t_address)dyn_storage"
					}
				],
				"types": {
					"t_address": {
						"encoding": "inplace",
						"label": "address",
						"numberOfBytes": "20"
					},
					"t_array(t_address)dyn_storage": {
						"base": "t_address",
						"encoding": "dynamic_array",
						"label": "address[]",
						"numberOfBytes": "32"
					},
					"t_mapping(t_address,t_uint256)": {
						"encoding": "mapping",
						"key": "t_address",
						"label": "mapping(address => uint256)",
						"numberOfBytes": "32",
						"value": "t_uint256"
					},
					"t_uint256": {
						"encoding": "inplace",
						"label": "uint256",
						"numberOfBytes": "32"
					}
				}
			},
			"userdoc": {
				"kind": "user",
				"methods": {},
				"version": 1
			}
		}
	}
}