{
	"contracts/TokenStudents.sol": {
		"TokenStudents": {
			"abi": [
				{
					"inputs": [],
					"stateMutability": "nonpayable",
					"type": "constructor"
				},
				{
					"inputs": [
						{
							"internalType": "address",
							"name": "_newRewardAddress",
							"type": "address"
						}
					],
					"name": "addRewards",
					"outputs": [],
					"stateMutability": "nonpayable",
					"type": "function"
				},
				{
					"inputs": [],
					"name": "admin",
					"outputs": [
						{
							"internalType": "address",
							"name": "",
							"type": "address"
						}
					],
					"stateMutability": "view",
					"type": "function"
				},
				{
					"inputs": [],
					"name": "adminTokenBalance",
					"outputs": [
						{
							"internalType": "uint256",
							"name": "",
							"type": "uint256"
						}
					],
					"stateMutability": "view",
					"type": "function"
				},
				{
					"inputs": [
						{
							"internalType": "address",
							"name": "checkAddress",
							"type": "address"
						}
					],
					"name": "checkStudent",
					"outputs": [
						{
							"internalType": "bool",
							"name": "",
							"type": "bool"
						}
					],
					"stateMutability": "view",
					"type": "function"
				},
				{
					"inputs": [],
					"name": "currentYear",
					"outputs": [
						{
							"internalType": "uint256",
							"name": "",
							"type": "uint256"
						}
					],
					"stateMutability": "view",
					"type": "function"
				},
				{
					"inputs": [
						{
							"internalType": "address",
							"name": "",
							"type": "address"
						}
					],
					"name": "idCardMap",
					"outputs": [
						{
							"internalType": "uint256",
							"name": "",
							"type": "uint256"
						}
					],
					"stateMutability": "view",
					"type": "function"
				},
				{
					"inputs": [
						{
							"internalType": "address",
							"name": "_newAddress",
							"type": "address"
						},
						{
							"internalType": "uint256",
							"name": "_currentYear",
							"type": "uint256"
						}
					],
					"name": "issueIdCard",
					"outputs": [],
					"stateMutability": "nonpayable",
					"type": "function"
				},
				{
					"inputs": [
						{
							"internalType": "address",
							"name": "_studentAddress",
							"type": "address"
						},
						{
							"internalType": "uint256",
							"name": "_tokensNumber",
							"type": "uint256"
						}
					],
					"name": "issueTokens",
					"outputs": [],
					"stateMutability": "nonpayable",
					"type": "function"
				},
				{
					"inputs": [
						{
							"internalType": "address",
							"name": "_whereToPay",
							"type": "address"
						},
						{
							"internalType": "uint256",
							"name": "_howMuchPay",
							"type": "uint256"
						}
					],
					"name": "pay",
					"outputs": [],
					"stateMutability": "payable",
					"type": "function"
				},
				{
					"inputs": [
						{
							"internalType": "uint256",
							"name": "",
							"type": "uint256"
						}
					],
					"name": "rewardsArray",
					"outputs": [
						{
							"internalType": "address",
							"name": "",
							"type": "address"
						}
					],
					"stateMutability": "view",
					"type": "function"
				},
				{
					"inputs": [
						{
							"internalType": "uint256",
							"name": "",
							"type": "uint256"
						}
					],
					"name": "transaction",
					"outputs": [
						{
							"internalType": "address",
							"name": "",
							"type": "address"
						}
					],
					"stateMutability": "view",
					"type": "function"
				},
				{
					"inputs": [
						{
							"internalType": "address",
							"name": "",
							"type": "address"
						}
					],
					"name": "vendorMap",
					"outputs": [
						{
							"internalType": "uint256",
							"name": "",
							"type": "uint256"
						}
					],
					"stateMutability": "view",
					"type": "function"
				},
				{
					"inputs": [
						{
							"internalType": "address",
							"name": "",
							"type": "address"
						}
					],
					"name": "yearMap",
					"outputs": [
						{
							"internalType": "uint256",
							"name": "",
							"type": "uint256"
						}
					],
					"stateMutability": "view",
					"type": "function"
				}
			],
			"devdoc": {
				"kind": "dev",
				"methods": {},
				"version": 1
			},
			"evm": {
				"assembly": "    /* \"contracts/TokenStudents.sol\":91:3576  contract TokenStudents {\r... */\n  mstore(0x40, 0xa0)\n    /* \"contracts/TokenStudents.sol\":527:578  constructor (){\r... */\n  callvalue\n  dup1\n  iszero\n  tag_1\n  jumpi\n  0x00\n  dup1\n  revert\ntag_1:\n  pop\n    /* \"contracts/TokenStudents.sol\":560:570  msg.sender */\n  caller\n    /* \"contracts/TokenStudents.sol\":552:570  admin = msg.sender */\n  0xffffffffffffffffffffffffffffffffffffffff\n  and\n  0x80\n  dup2\n  0xffffffffffffffffffffffffffffffffffffffff\n  and\n  0x60\n  shl\n  dup2\n  mstore\n  pop\n  pop\n    /* \"contracts/TokenStudents.sol\":91:3576  contract TokenStudents {\r... */\n  shr(0x60, mload(0x80))\n  codecopy(0x00, dataOffset(sub_0), dataSize(sub_0))\n  0x00\n  assignImmutable(\"0xd905fec1a56b00009651ce5a01a34d2244da02f516f67ee88b03219738dbf226\")\n  return(0x00, dataSize(sub_0))\nstop\n\nsub_0: assembly {\n        /* \"contracts/TokenStudents.sol\":91:3576  contract TokenStudents {\r... */\n      mstore(0x40, 0x80)\n      jumpi(tag_1, lt(calldatasize, 0x04))\n      shr(0xe0, calldataload(0x00))\n      dup1\n      0x532950f4\n      gt\n      tag_15\n      jumpi\n      dup1\n      0xeb2ea054\n      gt\n      tag_16\n      jumpi\n      dup1\n      0xeb2ea054\n      eq\n      tag_11\n      jumpi\n      dup1\n      0xef203825\n      eq\n      tag_12\n      jumpi\n      dup1\n      0xf481345a\n      eq\n      tag_13\n      jumpi\n      dup1\n      0xf851a440\n      eq\n      tag_14\n      jumpi\n      jump(tag_1)\n    tag_16:\n      dup1\n      0x532950f4\n      eq\n      tag_8\n      jumpi\n      dup1\n      0xc4076876\n      eq\n      tag_9\n      jumpi\n      dup1\n      0xe73b49b4\n      eq\n      tag_10\n      jumpi\n      jump(tag_1)\n    tag_15:\n      dup1\n      0x07bb67b6\n      eq\n      tag_2\n      jumpi\n      dup1\n      0x0b5a006b\n      eq\n      tag_3\n      jumpi\n      dup1\n      0x284028c2\n      eq\n      tag_4\n      jumpi\n      dup1\n      0x3efab43f\n      eq\n      tag_5\n      jumpi\n      dup1\n      0x46bd0841\n      eq\n      tag_6\n      jumpi\n      dup1\n      0x475a9fa9\n      eq\n      tag_7\n      jumpi\n    tag_1:\n      0x00\n      dup1\n      revert\n        /* \"contracts/TokenStudents.sol\":147:188  mapping(address => uint) public idCardMap */\n    tag_2:\n      callvalue\n      dup1\n      iszero\n      tag_17\n      jumpi\n      0x00\n      dup1\n      revert\n    tag_17:\n      pop\n      tag_18\n      0x04\n      dup1\n      calldatasize\n      sub\n      dup2\n      add\n      swap1\n      tag_19\n      swap2\n      swap1\n      tag_20\n      jump\t// in\n    tag_19:\n      tag_21\n      jump\t// in\n    tag_18:\n      mload(0x40)\n      tag_22\n      swap2\n      swap1\n      tag_23\n      jump\t// in\n    tag_22:\n      mload(0x40)\n      dup1\n      swap2\n      sub\n      swap1\n      return\n        /* \"contracts/TokenStudents.sol\":1381:1404  uint public currentYear */\n    tag_3:\n      callvalue\n      dup1\n      iszero\n      tag_24\n      jumpi\n      0x00\n      dup1\n      revert\n    tag_24:\n      pop\n      tag_25\n      tag_26\n      jump\t// in\n    tag_25:\n      mload(0x40)\n      tag_27\n      swap2\n      swap1\n      tag_23\n      jump\t// in\n    tag_27:\n      mload(0x40)\n      dup1\n      swap2\n      sub\n      swap1\n      return\n        /* \"contracts/TokenStudents.sol\":1551:1592  mapping(address => uint) public vendorMap */\n    tag_4:\n      callvalue\n      dup1\n      iszero\n      tag_28\n      jumpi\n      0x00\n      dup1\n      revert\n    tag_28:\n      pop\n      tag_29\n      0x04\n      dup1\n      calldatasize\n      sub\n      dup2\n      add\n      swap1\n      tag_30\n      swap2\n      swap1\n      tag_20\n      jump\t// in\n    tag_30:\n      tag_31\n      jump\t// in\n    tag_29:\n      mload(0x40)\n      tag_32\n      swap2\n      swap1\n      tag_23\n      jump\t// in\n    tag_32:\n      mload(0x40)\n      dup1\n      swap2\n      sub\n      swap1\n      return\n        /* \"contracts/TokenStudents.sol\":243:272  uint public adminTokenBalance */\n    tag_5:\n      callvalue\n      dup1\n      iszero\n      tag_33\n      jumpi\n      0x00\n      dup1\n      revert\n    tag_33:\n      pop\n      tag_34\n      tag_35\n      jump\t// in\n    tag_34:\n      mload(0x40)\n      tag_36\n      swap2\n      swap1\n      tag_23\n      jump\t// in\n    tag_36:\n      mload(0x40)\n      dup1\n      swap2\n      sub\n      swap1\n      return\n        /* \"contracts/TokenStudents.sol\":1599:1627  address[] public transaction */\n    tag_6:\n      callvalue\n      dup1\n      iszero\n      tag_37\n      jumpi\n      0x00\n      dup1\n      revert\n    tag_37:\n      pop\n      tag_38\n      0x04\n      dup1\n      calldatasize\n      sub\n      dup2\n      add\n      swap1\n      tag_39\n      swap2\n      swap1\n      tag_40\n      jump\t// in\n    tag_39:\n      tag_41\n      jump\t// in\n    tag_38:\n      mload(0x40)\n      tag_42\n      swap2\n      swap1\n      tag_43\n      jump\t// in\n    tag_42:\n      mload(0x40)\n      dup1\n      swap2\n      sub\n      swap1\n      return\n        /* \"contracts/TokenStudents.sol\":707:992  function issueTokens(address _studentAddress, uint _tokensNumber) public onlyAdmin{\r... */\n    tag_7:\n      callvalue\n      dup1\n      iszero\n      tag_44\n      jumpi\n      0x00\n      dup1\n      revert\n    tag_44:\n      pop\n      tag_45\n      0x04\n      dup1\n      calldatasize\n      sub\n      dup2\n      add\n      swap1\n      tag_46\n      swap2\n      swap1\n      tag_47\n      jump\t// in\n    tag_46:\n      tag_48\n      jump\t// in\n    tag_45:\n      stop\n        /* \"contracts/TokenStudents.sol\":1208:1237  address[] public rewardsArray */\n    tag_8:\n      callvalue\n      dup1\n      iszero\n      tag_49\n      jumpi\n      0x00\n      dup1\n      revert\n    tag_49:\n      pop\n      tag_50\n      0x04\n      dup1\n      calldatasize\n      sub\n      dup2\n      add\n      swap1\n      tag_51\n      swap2\n      swap1\n      tag_40\n      jump\t// in\n    tag_51:\n      tag_52\n      jump\t// in\n    tag_50:\n      mload(0x40)\n      tag_53\n      swap2\n      swap1\n      tag_43\n      jump\t// in\n    tag_53:\n      mload(0x40)\n      dup1\n      swap2\n      sub\n      swap1\n      return\n        /* \"contracts/TokenStudents.sol\":1903:2852  function pay(address _whereToPay, uint _howMuchPay) public payable{\r... */\n    tag_9:\n      tag_54\n      0x04\n      dup1\n      calldatasize\n      sub\n      dup2\n      add\n      swap1\n      tag_55\n      swap2\n      swap1\n      tag_47\n      jump\t// in\n    tag_55:\n      tag_56\n      jump\t// in\n    tag_54:\n      stop\n        /* \"contracts/TokenStudents.sol\":1244:1352  function addRewards(address _newRewardAddress) public{\r... */\n    tag_10:\n      callvalue\n      dup1\n      iszero\n      tag_57\n      jumpi\n      0x00\n      dup1\n      revert\n    tag_57:\n      pop\n      tag_58\n      0x04\n      dup1\n      calldatasize\n      sub\n      dup2\n      add\n      swap1\n      tag_59\n      swap2\n      swap1\n      tag_20\n      jump\t// in\n    tag_59:\n      tag_60\n      jump\t// in\n    tag_58:\n      stop\n        /* \"contracts/TokenStudents.sol\":279:440  function issueIdCard(address _newAddress, uint _currentYear) public {\r... */\n    tag_11:\n      callvalue\n      dup1\n      iszero\n      tag_61\n      jumpi\n      0x00\n      dup1\n      revert\n    tag_61:\n      pop\n      tag_62\n      0x04\n      dup1\n      calldatasize\n      sub\n      dup2\n      add\n      swap1\n      tag_63\n      swap2\n      swap1\n      tag_47\n      jump\t// in\n    tag_63:\n      tag_64\n      jump\t// in\n    tag_62:\n      stop\n        /* \"contracts/TokenStudents.sol\":195:234  mapping(address => uint) public yearMap */\n    tag_12:\n      callvalue\n      dup1\n      iszero\n      tag_65\n      jumpi\n      0x00\n      dup1\n      revert\n    tag_65:\n      pop\n      tag_66\n      0x04\n      dup1\n      calldatasize\n      sub\n      dup2\n      add\n      swap1\n      tag_67\n      swap2\n      swap1\n      tag_20\n      jump\t// in\n    tag_67:\n      tag_68\n      jump\t// in\n    tag_66:\n      mload(0x40)\n      tag_69\n      swap2\n      swap1\n      tag_23\n      jump\t// in\n    tag_69:\n      mload(0x40)\n      dup1\n      swap2\n      sub\n      swap1\n      return\n        /* \"contracts/TokenStudents.sol\":1636:1895  function checkStudent(address checkAddress) public view returns(bool){    //doubt what is value of not existing address?\r... */\n    tag_13:\n      callvalue\n      dup1\n      iszero\n      tag_70\n      jumpi\n      0x00\n      dup1\n      revert\n    tag_70:\n      pop\n      tag_71\n      0x04\n      dup1\n      calldatasize\n      sub\n      dup2\n      add\n      swap1\n      tag_72\n      swap2\n      swap1\n      tag_20\n      jump\t// in\n    tag_72:\n      tag_73\n      jump\t// in\n    tag_71:\n      mload(0x40)\n      tag_74\n      swap2\n      swap1\n      tag_75\n      jump\t// in\n    tag_74:\n      mload(0x40)\n      dup1\n      swap2\n      sub\n      swap1\n      return\n        /* \"contracts/TokenStudents.sol\":490:520  address public immutable admin */\n    tag_14:\n      callvalue\n      dup1\n      iszero\n      tag_76\n      jumpi\n      0x00\n      dup1\n      revert\n    tag_76:\n      pop\n      tag_77\n      tag_78\n      jump\t// in\n    tag_77:\n      mload(0x40)\n      tag_79\n      swap2\n      swap1\n      tag_43\n      jump\t// in\n    tag_79:\n      mload(0x40)\n      dup1\n      swap2\n      sub\n      swap1\n      return\n        /* \"contracts/TokenStudents.sol\":147:188  mapping(address => uint) public idCardMap */\n    tag_21:\n      mstore(0x20, 0x00)\n      dup1\n      0x00\n      mstore\n      keccak256(0x00, 0x40)\n      0x00\n      swap2\n      pop\n      swap1\n      pop\n      sload\n      dup2\n      jump\t// out\n        /* \"contracts/TokenStudents.sol\":1381:1404  uint public currentYear */\n    tag_26:\n      sload(0x04)\n      dup2\n      jump\t// out\n        /* \"contracts/TokenStudents.sol\":1551:1592  mapping(address => uint) public vendorMap */\n    tag_31:\n      mstore(0x20, 0x05)\n      dup1\n      0x00\n      mstore\n      keccak256(0x00, 0x40)\n      0x00\n      swap2\n      pop\n      swap1\n      pop\n      sload\n      dup2\n      jump\t// out\n        /* \"contracts/TokenStudents.sol\":243:272  uint public adminTokenBalance */\n    tag_35:\n      sload(0x02)\n      dup2\n      jump\t// out\n        /* \"contracts/TokenStudents.sol\":1599:1627  address[] public transaction */\n    tag_41:\n      0x06\n      dup2\n      dup2\n      sload\n      dup2\n      lt\n      tag_80\n      jumpi\n      0x00\n      dup1\n      revert\n    tag_80:\n      swap1\n      0x00\n      mstore\n      keccak256(0x00, 0x20)\n      add\n      0x00\n      swap2\n      pop\n      sload\n      swap1\n      0x0100\n      exp\n      swap1\n      div\n      0xffffffffffffffffffffffffffffffffffffffff\n      and\n      dup2\n      jump\t// out\n        /* \"contracts/TokenStudents.sol\":707:992  function issueTokens(address _studentAddress, uint _tokensNumber) public onlyAdmin{\r... */\n    tag_48:\n        /* \"contracts/TokenStudents.sol\":637:642  admin */\n      immutable(\"0xd905fec1a56b00009651ce5a01a34d2244da02f516f67ee88b03219738dbf226\")\n        /* \"contracts/TokenStudents.sol\":623:642  msg.sender == admin */\n      0xffffffffffffffffffffffffffffffffffffffff\n      and\n        /* \"contracts/TokenStudents.sol\":623:633  msg.sender */\n      caller\n        /* \"contracts/TokenStudents.sol\":623:642  msg.sender == admin */\n      0xffffffffffffffffffffffffffffffffffffffff\n      and\n      eq\n        /* \"contracts/TokenStudents.sol\":615:681  require(msg.sender == admin, \"Sorry! only admin can issue Tokens\") */\n      tag_83\n      jumpi\n      mload(0x40)\n      0x08c379a000000000000000000000000000000000000000000000000000000000\n      dup2\n      mstore\n      0x04\n      add\n      tag_84\n      swap1\n      tag_85\n      jump\t// in\n    tag_84:\n      mload(0x40)\n      dup1\n      swap2\n      sub\n      swap1\n      revert\n    tag_83:\n        /* \"contracts/TokenStudents.sol\":840:853  _tokensNumber */\n      dup1\n        /* \"contracts/TokenStudents.sol\":810:819  idCardMap */\n      0x00\n        /* \"contracts/TokenStudents.sol\":810:836  idCardMap[_studentAddress] */\n      dup1\n        /* \"contracts/TokenStudents.sol\":820:835  _studentAddress */\n      dup5\n        /* \"contracts/TokenStudents.sol\":810:836  idCardMap[_studentAddress] */\n      0xffffffffffffffffffffffffffffffffffffffff\n      and\n      0xffffffffffffffffffffffffffffffffffffffff\n      and\n      dup2\n      mstore\n      0x20\n      add\n      swap1\n      dup2\n      mstore\n      0x20\n      add\n      0x00\n      keccak256\n      0x00\n        /* \"contracts/TokenStudents.sol\":810:853  idCardMap[_studentAddress] += _tokensNumber */\n      dup3\n      dup3\n      sload\n      tag_87\n      swap2\n      swap1\n      tag_88\n      jump\t// in\n    tag_87:\n      swap3\n      pop\n      pop\n      dup2\n      swap1\n      sstore\n      pop\n        /* \"contracts/TokenStudents.sol\":929:942  _tokensNumber */\n      dup1\n        /* \"contracts/TokenStudents.sol\":908:925  adminTokenBalance */\n      0x02\n      0x00\n        /* \"contracts/TokenStudents.sol\":908:942  adminTokenBalance -= _tokensNumber */\n      dup3\n      dup3\n      sload\n      tag_89\n      swap2\n      swap1\n      tag_90\n      jump\t// in\n    tag_89:\n      swap3\n      pop\n      pop\n      dup2\n      swap1\n      sstore\n      pop\n        /* \"contracts/TokenStudents.sol\":707:992  function issueTokens(address _studentAddress, uint _tokensNumber) public onlyAdmin{\r... */\n      pop\n      pop\n      jump\t// out\n        /* \"contracts/TokenStudents.sol\":1208:1237  address[] public rewardsArray */\n    tag_52:\n      0x03\n      dup2\n      dup2\n      sload\n      dup2\n      lt\n      tag_91\n      jumpi\n      0x00\n      dup1\n      revert\n    tag_91:\n      swap1\n      0x00\n      mstore\n      keccak256(0x00, 0x20)\n      add\n      0x00\n      swap2\n      pop\n      sload\n      swap1\n      0x0100\n      exp\n      swap1\n      div\n      0xffffffffffffffffffffffffffffffffffffffff\n      and\n      dup2\n      jump\t// out\n        /* \"contracts/TokenStudents.sol\":1903:2852  function pay(address _whereToPay, uint _howMuchPay) public payable{\r... */\n    tag_56:\n        /* \"contracts/TokenStudents.sol\":1984:1990  uint i */\n      0x00\n        /* \"contracts/TokenStudents.sol\":1980:2845  for(uint i=0 ; i<rewardsArray.length ; i++){\r... */\n    tag_94:\n        /* \"contracts/TokenStudents.sol\":1997:2009  rewardsArray */\n      0x03\n        /* \"contracts/TokenStudents.sol\":1997:2016  rewardsArray.length */\n      dup1\n      sload\n      swap1\n      pop\n        /* \"contracts/TokenStudents.sol\":1995:1996  i */\n      dup2\n        /* \"contracts/TokenStudents.sol\":1995:2016  i<rewardsArray.length */\n      lt\n        /* \"contracts/TokenStudents.sol\":1980:2845  for(uint i=0 ; i<rewardsArray.length ; i++){\r... */\n      iszero\n      tag_95\n      jumpi\n        /* \"contracts/TokenStudents.sol\":2056:2068  rewardsArray */\n      0x03\n        /* \"contracts/TokenStudents.sol\":2069:2070  i */\n      dup2\n        /* \"contracts/TokenStudents.sol\":2056:2071  rewardsArray[i] */\n      dup2\n      sload\n      dup2\n      lt\n      tag_97\n      jumpi\n      tag_98\n      tag_99\n      jump\t// in\n    tag_98:\n    tag_97:\n      swap1\n      0x00\n      mstore\n      keccak256(0x00, 0x20)\n      add\n      0x00\n      swap1\n      sload\n      swap1\n      0x0100\n      exp\n      swap1\n      div\n      0xffffffffffffffffffffffffffffffffffffffff\n      and\n        /* \"contracts/TokenStudents.sol\":2041:2071  _whereToPay == rewardsArray[i] */\n      0xffffffffffffffffffffffffffffffffffffffff\n      and\n        /* \"contracts/TokenStudents.sol\":2041:2052  _whereToPay */\n      dup4\n        /* \"contracts/TokenStudents.sol\":2041:2071  _whereToPay == rewardsArray[i] */\n      0xffffffffffffffffffffffffffffffffffffffff\n      and\n      eq\n        /* \"contracts/TokenStudents.sol\":2038:2834  if(_whereToPay == rewardsArray[i]){\r... */\n      iszero\n      tag_101\n      jumpi\n        /* \"contracts/TokenStudents.sol\":2115:2126  _howMuchPay */\n      dup2\n        /* \"contracts/TokenStudents.sol\":2090:2099  idCardMap */\n      0x00\n        /* \"contracts/TokenStudents.sol\":2090:2111  idCardMap[msg.sender] */\n      dup1\n        /* \"contracts/TokenStudents.sol\":2100:2110  msg.sender */\n      caller\n        /* \"contracts/TokenStudents.sol\":2090:2111  idCardMap[msg.sender] */\n      0xffffffffffffffffffffffffffffffffffffffff\n      and\n      0xffffffffffffffffffffffffffffffffffffffff\n      and\n      dup2\n      mstore\n      0x20\n      add\n      swap1\n      dup2\n      mstore\n      0x20\n      add\n      0x00\n      keccak256\n      0x00\n        /* \"contracts/TokenStudents.sol\":2090:2126  idCardMap[msg.sender] -= _howMuchPay */\n      dup3\n      dup3\n      sload\n      tag_102\n      swap2\n      swap1\n      tag_90\n      jump\t// in\n    tag_102:\n      swap3\n      pop\n      pop\n      dup2\n      swap1\n      sstore\n      pop\n        /* \"contracts/TokenStudents.sol\":2170:2181  _howMuchPay */\n      dup2\n        /* \"contracts/TokenStudents.sol\":2144:2153  vendorMap */\n      0x05\n        /* \"contracts/TokenStudents.sol\":2144:2166  vendorMap[_whereToPay] */\n      0x00\n        /* \"contracts/TokenStudents.sol\":2154:2165  _whereToPay */\n      dup6\n        /* \"contracts/TokenStudents.sol\":2144:2166  vendorMap[_whereToPay] */\n      0xffffffffffffffffffffffffffffffffffffffff\n      and\n      0xffffffffffffffffffffffffffffffffffffffff\n      and\n      dup2\n      mstore\n      0x20\n      add\n      swap1\n      dup2\n      mstore\n      0x20\n      add\n      0x00\n      keccak256\n      0x00\n        /* \"contracts/TokenStudents.sol\":2144:2181  vendorMap[_whereToPay] += _howMuchPay */\n      dup3\n      dup3\n      sload\n      tag_103\n      swap2\n      swap1\n      tag_88\n      jump\t// in\n    tag_103:\n      swap3\n      pop\n      pop\n      dup2\n      swap1\n      sstore\n      pop\n        /* \"contracts/TokenStudents.sol\":2038:2834  if(_whereToPay == rewardsArray[i]){\r... */\n      jump(tag_104)\n    tag_101:\n        /* \"contracts/TokenStudents.sol\":2267:2271  true */\n      0x01\n        /* \"contracts/TokenStudents.sol\":2238:2271  checkStudent(_whereToPay) == true */\n      iszero\n      iszero\n        /* \"contracts/TokenStudents.sol\":2238:2263  checkStudent(_whereToPay) */\n      tag_105\n        /* \"contracts/TokenStudents.sol\":2251:2262  _whereToPay */\n      dup5\n        /* \"contracts/TokenStudents.sol\":2238:2250  checkStudent */\n      tag_73\n        /* \"contracts/TokenStudents.sol\":2238:2263  checkStudent(_whereToPay) */\n      jump\t// in\n    tag_105:\n        /* \"contracts/TokenStudents.sol\":2238:2271  checkStudent(_whereToPay) == true */\n      iszero\n      iszero\n      eq\n        /* \"contracts/TokenStudents.sol\":2235:2834  if(checkStudent(_whereToPay) == true){\r... */\n      iszero\n      tag_106\n      jumpi\n        /* \"contracts/TokenStudents.sol\":2318:2325  yearMap */\n      0x01\n        /* \"contracts/TokenStudents.sol\":2318:2337  yearMap[msg.sender] */\n      0x00\n        /* \"contracts/TokenStudents.sol\":2326:2336  msg.sender */\n      caller\n        /* \"contracts/TokenStudents.sol\":2318:2337  yearMap[msg.sender] */\n      0xffffffffffffffffffffffffffffffffffffffff\n      and\n      0xffffffffffffffffffffffffffffffffffffffff\n      and\n      dup2\n      mstore\n      0x20\n      add\n      swap1\n      dup2\n      mstore\n      0x20\n      add\n      0x00\n      keccak256\n      sload\n        /* \"contracts/TokenStudents.sol\":2294:2301  yearMap */\n      0x01\n        /* \"contracts/TokenStudents.sol\":2294:2314  yearMap[_whereToPay] */\n      0x00\n        /* \"contracts/TokenStudents.sol\":2302:2313  _whereToPay */\n      dup6\n        /* \"contracts/TokenStudents.sol\":2294:2314  yearMap[_whereToPay] */\n      0xffffffffffffffffffffffffffffffffffffffff\n      and\n      0xffffffffffffffffffffffffffffffffffffffff\n      and\n      dup2\n      mstore\n      0x20\n      add\n      swap1\n      dup2\n      mstore\n      0x20\n      add\n      0x00\n      keccak256\n      sload\n        /* \"contracts/TokenStudents.sol\":2294:2337  yearMap[_whereToPay] != yearMap[msg.sender] */\n      eq\n        /* \"contracts/TokenStudents.sol\":2291:2819  if(yearMap[_whereToPay] != yearMap[msg.sender]){\r... */\n      tag_107\n      jumpi\n        /* \"contracts/TokenStudents.sol\":2386:2397  _howMuchPay */\n      dup2\n        /* \"contracts/TokenStudents.sol\":2361:2370  idCardMap */\n      0x00\n        /* \"contracts/TokenStudents.sol\":2361:2382  idCardMap[msg.sender] */\n      dup1\n        /* \"contracts/TokenStudents.sol\":2371:2381  msg.sender */\n      caller\n        /* \"contracts/TokenStudents.sol\":2361:2382  idCardMap[msg.sender] */\n      0xffffffffffffffffffffffffffffffffffffffff\n      and\n      0xffffffffffffffffffffffffffffffffffffffff\n      and\n      dup2\n      mstore\n      0x20\n      add\n      swap1\n      dup2\n      mstore\n      0x20\n      add\n      0x00\n      keccak256\n      0x00\n        /* \"contracts/TokenStudents.sol\":2361:2397  idCardMap[msg.sender] -= _howMuchPay */\n      dup3\n      dup3\n      sload\n      tag_108\n      swap2\n      swap1\n      tag_90\n      jump\t// in\n    tag_108:\n      swap3\n      pop\n      pop\n      dup2\n      swap1\n      sstore\n      pop\n        /* \"contracts/TokenStudents.sol\":2468:2469  4 */\n      0x04\n        /* \"contracts/TokenStudents.sol\":2453:2464  _howMuchPay */\n      dup3\n        /* \"contracts/TokenStudents.sol\":2449:2450  3 */\n      0x03\n        /* \"contracts/TokenStudents.sol\":2449:2464  3 * _howMuchPay */\n      tag_109\n      swap2\n      swap1\n      tag_110\n      jump\t// in\n    tag_109:\n        /* \"contracts/TokenStudents.sol\":2447:2469  ( 3 * _howMuchPay) / 4 */\n      tag_111\n      swap2\n      swap1\n      tag_112\n      jump\t// in\n    tag_111:\n        /* \"contracts/TokenStudents.sol\":2420:2429  idCardMap */\n      0x00\n        /* \"contracts/TokenStudents.sol\":2420:2442  idCardMap[_whereToPay] */\n      dup1\n        /* \"contracts/TokenStudents.sol\":2430:2441  _whereToPay */\n      dup6\n        /* \"contracts/TokenStudents.sol\":2420:2442  idCardMap[_whereToPay] */\n      0xffffffffffffffffffffffffffffffffffffffff\n      and\n      0xffffffffffffffffffffffffffffffffffffffff\n      and\n      dup2\n      mstore\n      0x20\n      add\n      swap1\n      dup2\n      mstore\n      0x20\n      add\n      0x00\n      keccak256\n      0x00\n        /* \"contracts/TokenStudents.sol\":2420:2470  idCardMap[_whereToPay] += (( 3 * _howMuchPay) / 4) */\n      dup3\n      dup3\n      sload\n      tag_113\n      swap2\n      swap1\n      tag_88\n      jump\t// in\n    tag_113:\n      swap3\n      pop\n      pop\n      dup2\n      swap1\n      sstore\n      pop\n        /* \"contracts/TokenStudents.sol\":2291:2819  if(yearMap[_whereToPay] != yearMap[msg.sender]){\r... */\n      jump(tag_114)\n    tag_107:\n        /* \"contracts/TokenStudents.sol\":2600:2607  yearMap */\n      0x01\n        /* \"contracts/TokenStudents.sol\":2600:2619  yearMap[msg.sender] */\n      0x00\n        /* \"contracts/TokenStudents.sol\":2608:2618  msg.sender */\n      caller\n        /* \"contracts/TokenStudents.sol\":2600:2619  yearMap[msg.sender] */\n      0xffffffffffffffffffffffffffffffffffffffff\n      and\n      0xffffffffffffffffffffffffffffffffffffffff\n      and\n      dup2\n      mstore\n      0x20\n      add\n      swap1\n      dup2\n      mstore\n      0x20\n      add\n      0x00\n      keccak256\n      sload\n        /* \"contracts/TokenStudents.sol\":2576:2583  yearMap */\n      0x01\n        /* \"contracts/TokenStudents.sol\":2576:2596  yearMap[_whereToPay] */\n      0x00\n        /* \"contracts/TokenStudents.sol\":2584:2595  _whereToPay */\n      dup6\n        /* \"contracts/TokenStudents.sol\":2576:2596  yearMap[_whereToPay] */\n      0xffffffffffffffffffffffffffffffffffffffff\n      and\n      0xffffffffffffffffffffffffffffffffffffffff\n      and\n      dup2\n      mstore\n      0x20\n      add\n      swap1\n      dup2\n      mstore\n      0x20\n      add\n      0x00\n      keccak256\n      sload\n        /* \"contracts/TokenStudents.sol\":2576:2619  yearMap[_whereToPay] == yearMap[msg.sender] */\n      eq\n        /* \"contracts/TokenStudents.sol\":2573:2819  if(yearMap[_whereToPay] == yearMap[msg.sender]){\r... */\n      iszero\n      tag_115\n      jumpi\n        /* \"contracts/TokenStudents.sol\":2668:2679  _howMuchPay */\n      dup2\n        /* \"contracts/TokenStudents.sol\":2643:2652  idCardMap */\n      0x00\n        /* \"contracts/TokenStudents.sol\":2643:2664  idCardMap[msg.sender] */\n      dup1\n        /* \"contracts/TokenStudents.sol\":2653:2663  msg.sender */\n      caller\n        /* \"contracts/TokenStudents.sol\":2643:2664  idCardMap[msg.sender] */\n      0xffffffffffffffffffffffffffffffffffffffff\n      and\n      0xffffffffffffffffffffffffffffffffffffffff\n      and\n      dup2\n      mstore\n      0x20\n      add\n      swap1\n      dup2\n      mstore\n      0x20\n      add\n      0x00\n      keccak256\n      0x00\n        /* \"contracts/TokenStudents.sol\":2643:2679  idCardMap[msg.sender] -= _howMuchPay */\n      dup3\n      dup3\n      sload\n      tag_116\n      swap2\n      swap1\n      tag_90\n      jump\t// in\n    tag_116:\n      swap3\n      pop\n      pop\n      dup2\n      swap1\n      sstore\n      pop\n        /* \"contracts/TokenStudents.sol\":2728:2739  _howMuchPay */\n      dup2\n        /* \"contracts/TokenStudents.sol\":2702:2711  idCardMap */\n      0x00\n        /* \"contracts/TokenStudents.sol\":2702:2724  idCardMap[_whereToPay] */\n      dup1\n        /* \"contracts/TokenStudents.sol\":2712:2723  _whereToPay */\n      dup6\n        /* \"contracts/TokenStudents.sol\":2702:2724  idCardMap[_whereToPay] */\n      0xffffffffffffffffffffffffffffffffffffffff\n      and\n      0xffffffffffffffffffffffffffffffffffffffff\n      and\n      dup2\n      mstore\n      0x20\n      add\n      swap1\n      dup2\n      mstore\n      0x20\n      add\n      0x00\n      keccak256\n      0x00\n        /* \"contracts/TokenStudents.sol\":2702:2739  idCardMap[_whereToPay] += _howMuchPay */\n      dup3\n      dup3\n      sload\n      tag_117\n      swap2\n      swap1\n      tag_88\n      jump\t// in\n    tag_117:\n      swap3\n      pop\n      pop\n      dup2\n      swap1\n      sstore\n      pop\n        /* \"contracts/TokenStudents.sol\":2573:2819  if(yearMap[_whereToPay] == yearMap[msg.sender]){\r... */\n    tag_115:\n        /* \"contracts/TokenStudents.sol\":2291:2819  if(yearMap[_whereToPay] != yearMap[msg.sender]){\r... */\n    tag_114:\n        /* \"contracts/TokenStudents.sol\":2235:2834  if(checkStudent(_whereToPay) == true){\r... */\n    tag_106:\n        /* \"contracts/TokenStudents.sol\":2038:2834  if(_whereToPay == rewardsArray[i]){\r... */\n    tag_104:\n        /* \"contracts/TokenStudents.sol\":2019:2022  i++ */\n      dup1\n      dup1\n      tag_118\n      swap1\n      tag_119\n      jump\t// in\n    tag_118:\n      swap2\n      pop\n      pop\n        /* \"contracts/TokenStudents.sol\":1980:2845  for(uint i=0 ; i<rewardsArray.length ; i++){\r... */\n      jump(tag_94)\n    tag_95:\n      pop\n        /* \"contracts/TokenStudents.sol\":1903:2852  function pay(address _whereToPay, uint _howMuchPay) public payable{\r... */\n      pop\n      pop\n      jump\t// out\n        /* \"contracts/TokenStudents.sol\":1244:1352  function addRewards(address _newRewardAddress) public{\r... */\n    tag_60:\n        /* \"contracts/TokenStudents.sol\":1308:1320  rewardsArray */\n      0x03\n        /* \"contracts/TokenStudents.sol\":1326:1343  _newRewardAddress */\n      dup2\n        /* \"contracts/TokenStudents.sol\":1308:1344  rewardsArray.push(_newRewardAddress) */\n      swap1\n      dup1\n      0x01\n      dup2\n      sload\n      add\n      dup1\n      dup3\n      sstore\n      dup1\n      swap2\n      pop\n      pop\n      0x01\n      swap1\n      sub\n      swap1\n      0x00\n      mstore\n      keccak256(0x00, 0x20)\n      add\n      0x00\n      swap1\n      swap2\n      swap1\n      swap2\n      swap1\n      swap2\n      0x0100\n      exp\n      dup2\n      sload\n      dup2\n      0xffffffffffffffffffffffffffffffffffffffff\n      mul\n      not\n      and\n      swap1\n      dup4\n      0xffffffffffffffffffffffffffffffffffffffff\n      and\n      mul\n      or\n      swap1\n      sstore\n      pop\n        /* \"contracts/TokenStudents.sol\":1244:1352  function addRewards(address _newRewardAddress) public{\r... */\n      pop\n      jump\t// out\n        /* \"contracts/TokenStudents.sol\":279:440  function issueIdCard(address _newAddress, uint _currentYear) public {\r... */\n    tag_64:\n        /* \"contracts/TokenStudents.sol\":383:384  0 */\n      0x00\n        /* \"contracts/TokenStudents.sol\":358:367  idCardMap */\n      dup1\n        /* \"contracts/TokenStudents.sol\":358:380  idCardMap[_newAddress] */\n      0x00\n        /* \"contracts/TokenStudents.sol\":368:379  _newAddress */\n      dup5\n        /* \"contracts/TokenStudents.sol\":358:380  idCardMap[_newAddress] */\n      0xffffffffffffffffffffffffffffffffffffffff\n      and\n      0xffffffffffffffffffffffffffffffffffffffff\n      and\n      dup2\n      mstore\n      0x20\n      add\n      swap1\n      dup2\n      mstore\n      0x20\n      add\n      0x00\n      keccak256\n        /* \"contracts/TokenStudents.sol\":358:384  idCardMap[_newAddress] = 0 */\n      dup2\n      swap1\n      sstore\n      pop\n        /* \"contracts/TokenStudents.sol\":420:432  _currentYear */\n      dup1\n        /* \"contracts/TokenStudents.sol\":395:404  idCardMap */\n      0x00\n        /* \"contracts/TokenStudents.sol\":395:417  idCardMap[_newAddress] */\n      dup1\n        /* \"contracts/TokenStudents.sol\":405:416  _newAddress */\n      dup5\n        /* \"contracts/TokenStudents.sol\":395:417  idCardMap[_newAddress] */\n      0xffffffffffffffffffffffffffffffffffffffff\n      and\n      0xffffffffffffffffffffffffffffffffffffffff\n      and\n      dup2\n      mstore\n      0x20\n      add\n      swap1\n      dup2\n      mstore\n      0x20\n      add\n      0x00\n      keccak256\n        /* \"contracts/TokenStudents.sol\":395:432  idCardMap[_newAddress] = _currentYear */\n      dup2\n      swap1\n      sstore\n      pop\n        /* \"contracts/TokenStudents.sol\":279:440  function issueIdCard(address _newAddress, uint _currentYear) public {\r... */\n      pop\n      pop\n      jump\t// out\n        /* \"contracts/TokenStudents.sol\":195:234  mapping(address => uint) public yearMap */\n    tag_68:\n      mstore(0x20, 0x01)\n      dup1\n      0x00\n      mstore\n      keccak256(0x00, 0x40)\n      0x00\n      swap2\n      pop\n      swap1\n      pop\n      sload\n      dup2\n      jump\t// out\n        /* \"contracts/TokenStudents.sol\":1636:1895  function checkStudent(address checkAddress) public view returns(bool){    //doubt what is value of not existing address?\r... */\n    tag_73:\n        /* \"contracts/TokenStudents.sol\":1700:1704  bool */\n      0x00\n        /* \"contracts/TokenStudents.sol\":1793:1794  0 */\n      dup1\n        /* \"contracts/TokenStudents.sol\":1769:1776  yearMap */\n      0x01\n        /* \"contracts/TokenStudents.sol\":1769:1790  yearMap[checkAddress] */\n      0x00\n        /* \"contracts/TokenStudents.sol\":1777:1789  checkAddress */\n      dup5\n        /* \"contracts/TokenStudents.sol\":1769:1790  yearMap[checkAddress] */\n      0xffffffffffffffffffffffffffffffffffffffff\n      and\n      0xffffffffffffffffffffffffffffffffffffffff\n      and\n      dup2\n      mstore\n      0x20\n      add\n      swap1\n      dup2\n      mstore\n      0x20\n      add\n      0x00\n      keccak256\n      sload\n        /* \"contracts/TokenStudents.sol\":1769:1794  yearMap[checkAddress] > 0 */\n      gt\n        /* \"contracts/TokenStudents.sol\":1766:1888  if(yearMap[checkAddress] > 0) {\r... */\n      iszero\n      tag_124\n      jumpi\n        /* \"contracts/TokenStudents.sol\":1818:1822  true */\n      0x01\n        /* \"contracts/TokenStudents.sol\":1811:1822  return true */\n      swap1\n      pop\n      jump(tag_123)\n        /* \"contracts/TokenStudents.sol\":1766:1888  if(yearMap[checkAddress] > 0) {\r... */\n    tag_124:\n        /* \"contracts/TokenStudents.sol\":1871:1876  false */\n      0x00\n        /* \"contracts/TokenStudents.sol\":1864:1876  return false */\n      swap1\n      pop\n        /* \"contracts/TokenStudents.sol\":1636:1895  function checkStudent(address checkAddress) public view returns(bool){    //doubt what is value of not existing address?\r... */\n    tag_123:\n      swap2\n      swap1\n      pop\n      jump\t// out\n        /* \"contracts/TokenStudents.sol\":490:520  address public immutable admin */\n    tag_78:\n      immutable(\"0xd905fec1a56b00009651ce5a01a34d2244da02f516f67ee88b03219738dbf226\")\n      dup2\n      jump\t// out\n        /* \"#utility.yul\":7:146   */\n    tag_127:\n        /* \"#utility.yul\":53:58   */\n      0x00\n        /* \"#utility.yul\":91:97   */\n      dup2\n        /* \"#utility.yul\":78:98   */\n      calldataload\n        /* \"#utility.yul\":69:98   */\n      swap1\n      pop\n        /* \"#utility.yul\":107:140   */\n      tag_129\n        /* \"#utility.yul\":134:139   */\n      dup2\n        /* \"#utility.yul\":107:140   */\n      tag_130\n      jump\t// in\n    tag_129:\n        /* \"#utility.yul\":7:146   */\n      swap3\n      swap2\n      pop\n      pop\n      jump\t// out\n        /* \"#utility.yul\":152:291   */\n    tag_131:\n        /* \"#utility.yul\":198:203   */\n      0x00\n        /* \"#utility.yul\":236:242   */\n      dup2\n        /* \"#utility.yul\":223:243   */\n      calldataload\n        /* \"#utility.yul\":214:243   */\n      swap1\n      pop\n        /* \"#utility.yul\":252:285   */\n      tag_133\n        /* \"#utility.yul\":279:284   */\n      dup2\n        /* \"#utility.yul\":252:285   */\n      tag_134\n      jump\t// in\n    tag_133:\n        /* \"#utility.yul\":152:291   */\n      swap3\n      swap2\n      pop\n      pop\n      jump\t// out\n        /* \"#utility.yul\":297:626   */\n    tag_20:\n        /* \"#utility.yul\":356:362   */\n      0x00\n        /* \"#utility.yul\":405:407   */\n      0x20\n        /* \"#utility.yul\":393:402   */\n      dup3\n        /* \"#utility.yul\":384:391   */\n      dup5\n        /* \"#utility.yul\":380:403   */\n      sub\n        /* \"#utility.yul\":376:408   */\n      slt\n        /* \"#utility.yul\":373:492   */\n      iszero\n      tag_136\n      jumpi\n        /* \"#utility.yul\":411:490   */\n      tag_137\n      tag_138\n      jump\t// in\n    tag_137:\n        /* \"#utility.yul\":373:492   */\n    tag_136:\n        /* \"#utility.yul\":531:532   */\n      0x00\n        /* \"#utility.yul\":556:609   */\n      tag_139\n        /* \"#utility.yul\":601:608   */\n      dup5\n        /* \"#utility.yul\":592:598   */\n      dup3\n        /* \"#utility.yul\":581:590   */\n      dup6\n        /* \"#utility.yul\":577:599   */\n      add\n        /* \"#utility.yul\":556:609   */\n      tag_127\n      jump\t// in\n    tag_139:\n        /* \"#utility.yul\":546:609   */\n      swap2\n      pop\n        /* \"#utility.yul\":502:619   */\n      pop\n        /* \"#utility.yul\":297:626   */\n      swap3\n      swap2\n      pop\n      pop\n      jump\t// out\n        /* \"#utility.yul\":632:1106   */\n    tag_47:\n        /* \"#utility.yul\":700:706   */\n      0x00\n        /* \"#utility.yul\":708:714   */\n      dup1\n        /* \"#utility.yul\":757:759   */\n      0x40\n        /* \"#utility.yul\":745:754   */\n      dup4\n        /* \"#utility.yul\":736:743   */\n      dup6\n        /* \"#utility.yul\":732:755   */\n      sub\n        /* \"#utility.yul\":728:760   */\n      slt\n        /* \"#utility.yul\":725:844   */\n      iszero\n      tag_141\n      jumpi\n        /* \"#utility.yul\":763:842   */\n      tag_142\n      tag_138\n      jump\t// in\n    tag_142:\n        /* \"#utility.yul\":725:844   */\n    tag_141:\n        /* \"#utility.yul\":883:884   */\n      0x00\n        /* \"#utility.yul\":908:961   */\n      tag_143\n        /* \"#utility.yul\":953:960   */\n      dup6\n        /* \"#utility.yul\":944:950   */\n      dup3\n        /* \"#utility.yul\":933:942   */\n      dup7\n        /* \"#utility.yul\":929:951   */\n      add\n        /* \"#utility.yul\":908:961   */\n      tag_127\n      jump\t// in\n    tag_143:\n        /* \"#utility.yul\":898:961   */\n      swap3\n      pop\n        /* \"#utility.yul\":854:971   */\n      pop\n        /* \"#utility.yul\":1010:1012   */\n      0x20\n        /* \"#utility.yul\":1036:1089   */\n      tag_144\n        /* \"#utility.yul\":1081:1088   */\n      dup6\n        /* \"#utility.yul\":1072:1078   */\n      dup3\n        /* \"#utility.yul\":1061:1070   */\n      dup7\n        /* \"#utility.yul\":1057:1079   */\n      add\n        /* \"#utility.yul\":1036:1089   */\n      tag_131\n      jump\t// in\n    tag_144:\n        /* \"#utility.yul\":1026:1089   */\n      swap2\n      pop\n        /* \"#utility.yul\":981:1099   */\n      pop\n        /* \"#utility.yul\":632:1106   */\n      swap3\n      pop\n      swap3\n      swap1\n      pop\n      jump\t// out\n        /* \"#utility.yul\":1112:1441   */\n    tag_40:\n        /* \"#utility.yul\":1171:1177   */\n      0x00\n        /* \"#utility.yul\":1220:1222   */\n      0x20\n        /* \"#utility.yul\":1208:1217   */\n      dup3\n        /* \"#utility.yul\":1199:1206   */\n      dup5\n        /* \"#utility.yul\":1195:1218   */\n      sub\n        /* \"#utility.yul\":1191:1223   */\n      slt\n        /* \"#utility.yul\":1188:1307   */\n      iszero\n      tag_146\n      jumpi\n        /* \"#utility.yul\":1226:1305   */\n      tag_147\n      tag_138\n      jump\t// in\n    tag_147:\n        /* \"#utility.yul\":1188:1307   */\n    tag_146:\n        /* \"#utility.yul\":1346:1347   */\n      0x00\n        /* \"#utility.yul\":1371:1424   */\n      tag_148\n        /* \"#utility.yul\":1416:1423   */\n      dup5\n        /* \"#utility.yul\":1407:1413   */\n      dup3\n        /* \"#utility.yul\":1396:1405   */\n      dup6\n        /* \"#utility.yul\":1392:1414   */\n      add\n        /* \"#utility.yul\":1371:1424   */\n      tag_131\n      jump\t// in\n    tag_148:\n        /* \"#utility.yul\":1361:1424   */\n      swap2\n      pop\n        /* \"#utility.yul\":1317:1434   */\n      pop\n        /* \"#utility.yul\":1112:1441   */\n      swap3\n      swap2\n      pop\n      pop\n      jump\t// out\n        /* \"#utility.yul\":1447:1565   */\n    tag_149:\n        /* \"#utility.yul\":1534:1558   */\n      tag_151\n        /* \"#utility.yul\":1552:1557   */\n      dup2\n        /* \"#utility.yul\":1534:1558   */\n      tag_152\n      jump\t// in\n    tag_151:\n        /* \"#utility.yul\":1529:1532   */\n      dup3\n        /* \"#utility.yul\":1522:1559   */\n      mstore\n        /* \"#utility.yul\":1447:1565   */\n      pop\n      pop\n      jump\t// out\n        /* \"#utility.yul\":1571:1680   */\n    tag_153:\n        /* \"#utility.yul\":1652:1673   */\n      tag_155\n        /* \"#utility.yul\":1667:1672   */\n      dup2\n        /* \"#utility.yul\":1652:1673   */\n      tag_156\n      jump\t// in\n    tag_155:\n        /* \"#utility.yul\":1647:1650   */\n      dup3\n        /* \"#utility.yul\":1640:1674   */\n      mstore\n        /* \"#utility.yul\":1571:1680   */\n      pop\n      pop\n      jump\t// out\n        /* \"#utility.yul\":1686:2052   */\n    tag_157:\n        /* \"#utility.yul\":1828:1831   */\n      0x00\n        /* \"#utility.yul\":1849:1916   */\n      tag_159\n        /* \"#utility.yul\":1913:1915   */\n      0x22\n        /* \"#utility.yul\":1908:1911   */\n      dup4\n        /* \"#utility.yul\":1849:1916   */\n      tag_160\n      jump\t// in\n    tag_159:\n        /* \"#utility.yul\":1842:1916   */\n      swap2\n      pop\n        /* \"#utility.yul\":1925:2018   */\n      tag_161\n        /* \"#utility.yul\":2014:2017   */\n      dup3\n        /* \"#utility.yul\":1925:2018   */\n      tag_162\n      jump\t// in\n    tag_161:\n        /* \"#utility.yul\":2043:2045   */\n      0x40\n        /* \"#utility.yul\":2038:2041   */\n      dup3\n        /* \"#utility.yul\":2034:2046   */\n      add\n        /* \"#utility.yul\":2027:2046   */\n      swap1\n      pop\n        /* \"#utility.yul\":1686:2052   */\n      swap2\n      swap1\n      pop\n      jump\t// out\n        /* \"#utility.yul\":2058:2176   */\n    tag_163:\n        /* \"#utility.yul\":2145:2169   */\n      tag_165\n        /* \"#utility.yul\":2163:2168   */\n      dup2\n        /* \"#utility.yul\":2145:2169   */\n      tag_166\n      jump\t// in\n    tag_165:\n        /* \"#utility.yul\":2140:2143   */\n      dup3\n        /* \"#utility.yul\":2133:2170   */\n      mstore\n        /* \"#utility.yul\":2058:2176   */\n      pop\n      pop\n      jump\t// out\n        /* \"#utility.yul\":2182:2404   */\n    tag_43:\n        /* \"#utility.yul\":2275:2279   */\n      0x00\n        /* \"#utility.yul\":2313:2315   */\n      0x20\n        /* \"#utility.yul\":2302:2311   */\n      dup3\n        /* \"#utility.yul\":2298:2316   */\n      add\n        /* \"#utility.yul\":2290:2316   */\n      swap1\n      pop\n        /* \"#utility.yul\":2326:2397   */\n      tag_168\n        /* \"#utility.yul\":2394:2395   */\n      0x00\n        /* \"#utility.yul\":2383:2392   */\n      dup4\n        /* \"#utility.yul\":2379:2396   */\n      add\n        /* \"#utility.yul\":2370:2376   */\n      dup5\n        /* \"#utility.yul\":2326:2397   */\n      tag_149\n      jump\t// in\n    tag_168:\n        /* \"#utility.yul\":2182:2404   */\n      swap3\n      swap2\n      pop\n      pop\n      jump\t// out\n        /* \"#utility.yul\":2410:2620   */\n    tag_75:\n        /* \"#utility.yul\":2497:2501   */\n      0x00\n        /* \"#utility.yul\":2535:2537   */\n      0x20\n        /* \"#utility.yul\":2524:2533   */\n      dup3\n        /* \"#utility.yul\":2520:2538   */\n      add\n        /* \"#utility.yul\":2512:2538   */\n      swap1\n      pop\n        /* \"#utility.yul\":2548:2613   */\n      tag_170\n        /* \"#utility.yul\":2610:2611   */\n      0x00\n        /* \"#utility.yul\":2599:2608   */\n      dup4\n        /* \"#utility.yul\":2595:2612   */\n      add\n        /* \"#utility.yul\":2586:2592   */\n      dup5\n        /* \"#utility.yul\":2548:2613   */\n      tag_153\n      jump\t// in\n    tag_170:\n        /* \"#utility.yul\":2410:2620   */\n      swap3\n      swap2\n      pop\n      pop\n      jump\t// out\n        /* \"#utility.yul\":2626:3045   */\n    tag_85:\n        /* \"#utility.yul\":2792:2796   */\n      0x00\n        /* \"#utility.yul\":2830:2832   */\n      0x20\n        /* \"#utility.yul\":2819:2828   */\n      dup3\n        /* \"#utility.yul\":2815:2833   */\n      add\n        /* \"#utility.yul\":2807:2833   */\n      swap1\n      pop\n        /* \"#utility.yul\":2879:2888   */\n      dup2\n        /* \"#utility.yul\":2873:2877   */\n      dup2\n        /* \"#utility.yul\":2869:2889   */\n      sub\n        /* \"#utility.yul\":2865:2866   */\n      0x00\n        /* \"#utility.yul\":2854:2863   */\n      dup4\n        /* \"#utility.yul\":2850:2867   */\n      add\n        /* \"#utility.yul\":2843:2890   */\n      mstore\n        /* \"#utility.yul\":2907:3038   */\n      tag_172\n        /* \"#utility.yul\":3033:3037   */\n      dup2\n        /* \"#utility.yul\":2907:3038   */\n      tag_157\n      jump\t// in\n    tag_172:\n        /* \"#utility.yul\":2899:3038   */\n      swap1\n      pop\n        /* \"#utility.yul\":2626:3045   */\n      swap2\n      swap1\n      pop\n      jump\t// out\n        /* \"#utility.yul\":3051:3273   */\n    tag_23:\n        /* \"#utility.yul\":3144:3148   */\n      0x00\n        /* \"#utility.yul\":3182:3184   */\n      0x20\n        /* \"#utility.yul\":3171:3180   */\n      dup3\n        /* \"#utility.yul\":3167:3185   */\n      add\n        /* \"#utility.yul\":3159:3185   */\n      swap1\n      pop\n        /* \"#utility.yul\":3195:3266   */\n      tag_174\n        /* \"#utility.yul\":3263:3264   */\n      0x00\n        /* \"#utility.yul\":3252:3261   */\n      dup4\n        /* \"#utility.yul\":3248:3265   */\n      add\n        /* \"#utility.yul\":3239:3245   */\n      dup5\n        /* \"#utility.yul\":3195:3266   */\n      tag_163\n      jump\t// in\n    tag_174:\n        /* \"#utility.yul\":3051:3273   */\n      swap3\n      swap2\n      pop\n      pop\n      jump\t// out\n        /* \"#utility.yul\":3360:3529   */\n    tag_160:\n        /* \"#utility.yul\":3444:3455   */\n      0x00\n        /* \"#utility.yul\":3478:3484   */\n      dup3\n        /* \"#utility.yul\":3473:3476   */\n      dup3\n        /* \"#utility.yul\":3466:3485   */\n      mstore\n        /* \"#utility.yul\":3518:3522   */\n      0x20\n        /* \"#utility.yul\":3513:3516   */\n      dup3\n        /* \"#utility.yul\":3509:3523   */\n      add\n        /* \"#utility.yul\":3494:3523   */\n      swap1\n      pop\n        /* \"#utility.yul\":3360:3529   */\n      swap3\n      swap2\n      pop\n      pop\n      jump\t// out\n        /* \"#utility.yul\":3535:3840   */\n    tag_88:\n        /* \"#utility.yul\":3575:3578   */\n      0x00\n        /* \"#utility.yul\":3594:3614   */\n      tag_179\n        /* \"#utility.yul\":3612:3613   */\n      dup3\n        /* \"#utility.yul\":3594:3614   */\n      tag_166\n      jump\t// in\n    tag_179:\n        /* \"#utility.yul\":3589:3614   */\n      swap2\n      pop\n        /* \"#utility.yul\":3628:3648   */\n      tag_180\n        /* \"#utility.yul\":3646:3647   */\n      dup4\n        /* \"#utility.yul\":3628:3648   */\n      tag_166\n      jump\t// in\n    tag_180:\n        /* \"#utility.yul\":3623:3648   */\n      swap3\n      pop\n        /* \"#utility.yul\":3782:3783   */\n      dup3\n        /* \"#utility.yul\":3714:3780   */\n      0xffffffffffffffffffffffffffffffffffffffffffffffffffffffffffffffff\n        /* \"#utility.yul\":3710:3784   */\n      sub\n        /* \"#utility.yul\":3707:3708   */\n      dup3\n        /* \"#utility.yul\":3704:3785   */\n      gt\n        /* \"#utility.yul\":3701:3808   */\n      iszero\n      tag_181\n      jumpi\n        /* \"#utility.yul\":3788:3806   */\n      tag_182\n      tag_183\n      jump\t// in\n    tag_182:\n        /* \"#utility.yul\":3701:3808   */\n    tag_181:\n        /* \"#utility.yul\":3832:3833   */\n      dup3\n        /* \"#utility.yul\":3829:3830   */\n      dup3\n        /* \"#utility.yul\":3825:3834   */\n      add\n        /* \"#utility.yul\":3818:3834   */\n      swap1\n      pop\n        /* \"#utility.yul\":3535:3840   */\n      swap3\n      swap2\n      pop\n      pop\n      jump\t// out\n        /* \"#utility.yul\":3846:4031   */\n    tag_112:\n        /* \"#utility.yul\":3886:3887   */\n      0x00\n        /* \"#utility.yul\":3903:3923   */\n      tag_185\n        /* \"#utility.yul\":3921:3922   */\n      dup3\n        /* \"#utility.yul\":3903:3923   */\n      tag_166\n      jump\t// in\n    tag_185:\n        /* \"#utility.yul\":3898:3923   */\n      swap2\n      pop\n        /* \"#utility.yul\":3937:3957   */\n      tag_186\n        /* \"#utility.yul\":3955:3956   */\n      dup4\n        /* \"#utility.yul\":3937:3957   */\n      tag_166\n      jump\t// in\n    tag_186:\n        /* \"#utility.yul\":3932:3957   */\n      swap3\n      pop\n        /* \"#utility.yul\":3976:3977   */\n      dup3\n        /* \"#utility.yul\":3966:4001   */\n      tag_187\n      jumpi\n        /* \"#utility.yul\":3981:3999   */\n      tag_188\n      tag_189\n      jump\t// in\n    tag_188:\n        /* \"#utility.yul\":3966:4001   */\n    tag_187:\n        /* \"#utility.yul\":4023:4024   */\n      dup3\n        /* \"#utility.yul\":4020:4021   */\n      dup3\n        /* \"#utility.yul\":4016:4025   */\n      div\n        /* \"#utility.yul\":4011:4025   */\n      swap1\n      pop\n        /* \"#utility.yul\":3846:4031   */\n      swap3\n      swap2\n      pop\n      pop\n      jump\t// out\n        /* \"#utility.yul\":4037:4385   */\n    tag_110:\n        /* \"#utility.yul\":4077:4084   */\n      0x00\n        /* \"#utility.yul\":4100:4120   */\n      tag_191\n        /* \"#utility.yul\":4118:4119   */\n      dup3\n        /* \"#utility.yul\":4100:4120   */\n      tag_166\n      jump\t// in\n    tag_191:\n        /* \"#utility.yul\":4095:4120   */\n      swap2\n      pop\n        /* \"#utility.yul\":4134:4154   */\n      tag_192\n        /* \"#utility.yul\":4152:4153   */\n      dup4\n        /* \"#utility.yul\":4134:4154   */\n      tag_166\n      jump\t// in\n    tag_192:\n        /* \"#utility.yul\":4129:4154   */\n      swap3\n      pop\n        /* \"#utility.yul\":4322:4323   */\n      dup2\n        /* \"#utility.yul\":4254:4320   */\n      0xffffffffffffffffffffffffffffffffffffffffffffffffffffffffffffffff\n        /* \"#utility.yul\":4250:4324   */\n      div\n        /* \"#utility.yul\":4247:4248   */\n      dup4\n        /* \"#utility.yul\":4244:4325   */\n      gt\n        /* \"#utility.yul\":4239:4240   */\n      dup3\n        /* \"#utility.yul\":4232:4241   */\n      iszero\n        /* \"#utility.yul\":4225:4242   */\n      iszero\n        /* \"#utility.yul\":4221:4326   */\n      and\n        /* \"#utility.yul\":4218:4349   */\n      iszero\n      tag_193\n      jumpi\n        /* \"#utility.yul\":4329:4347   */\n      tag_194\n      tag_183\n      jump\t// in\n    tag_194:\n        /* \"#utility.yul\":4218:4349   */\n    tag_193:\n        /* \"#utility.yul\":4377:4378   */\n      dup3\n        /* \"#utility.yul\":4374:4375   */\n      dup3\n        /* \"#utility.yul\":4370:4379   */\n      mul\n        /* \"#utility.yul\":4359:4379   */\n      swap1\n      pop\n        /* \"#utility.yul\":4037:4385   */\n      swap3\n      swap2\n      pop\n      pop\n      jump\t// out\n        /* \"#utility.yul\":4391:4582   */\n    tag_90:\n        /* \"#utility.yul\":4431:4435   */\n      0x00\n        /* \"#utility.yul\":4451:4471   */\n      tag_196\n        /* \"#utility.yul\":4469:4470   */\n      dup3\n        /* \"#utility.yul\":4451:4471   */\n      tag_166\n      jump\t// in\n    tag_196:\n        /* \"#utility.yul\":4446:4471   */\n      swap2\n      pop\n        /* \"#utility.yul\":4485:4505   */\n      tag_197\n        /* \"#utility.yul\":4503:4504   */\n      dup4\n        /* \"#utility.yul\":4485:4505   */\n      tag_166\n      jump\t// in\n    tag_197:\n        /* \"#utility.yul\":4480:4505   */\n      swap3\n      pop\n        /* \"#utility.yul\":4524:4525   */\n      dup3\n        /* \"#utility.yul\":4521:4522   */\n      dup3\n        /* \"#utility.yul\":4518:4526   */\n      lt\n        /* \"#utility.yul\":4515:4549   */\n      iszero\n      tag_198\n      jumpi\n        /* \"#utility.yul\":4529:4547   */\n      tag_199\n      tag_183\n      jump\t// in\n    tag_199:\n        /* \"#utility.yul\":4515:4549   */\n    tag_198:\n        /* \"#utility.yul\":4574:4575   */\n      dup3\n        /* \"#utility.yul\":4571:4572   */\n      dup3\n        /* \"#utility.yul\":4567:4576   */\n      sub\n        /* \"#utility.yul\":4559:4576   */\n      swap1\n      pop\n        /* \"#utility.yul\":4391:4582   */\n      swap3\n      swap2\n      pop\n      pop\n      jump\t// out\n        /* \"#utility.yul\":4588:4684   */\n    tag_152:\n        /* \"#utility.yul\":4625:4632   */\n      0x00\n        /* \"#utility.yul\":4654:4678   */\n      tag_201\n        /* \"#utility.yul\":4672:4677   */\n      dup3\n        /* \"#utility.yul\":4654:4678   */\n      tag_202\n      jump\t// in\n    tag_201:\n        /* \"#utility.yul\":4643:4678   */\n      swap1\n      pop\n        /* \"#utility.yul\":4588:4684   */\n      swap2\n      swap1\n      pop\n      jump\t// out\n        /* \"#utility.yul\":4690:4780   */\n    tag_156:\n        /* \"#utility.yul\":4724:4731   */\n      0x00\n        /* \"#utility.yul\":4767:4772   */\n      dup2\n        /* \"#utility.yul\":4760:4773   */\n      iszero\n        /* \"#utility.yul\":4753:4774   */\n      iszero\n        /* \"#utility.yul\":4742:4774   */\n      swap1\n      pop\n        /* \"#utility.yul\":4690:4780   */\n      swap2\n      swap1\n      pop\n      jump\t// out\n        /* \"#utility.yul\":4786:4912   */\n    tag_202:\n        /* \"#utility.yul\":4823:4830   */\n      0x00\n        /* \"#utility.yul\":4863:4905   */\n      0xffffffffffffffffffffffffffffffffffffffff\n        /* \"#utility.yul\":4856:4861   */\n      dup3\n        /* \"#utility.yul\":4852:4906   */\n      and\n        /* \"#utility.yul\":4841:4906   */\n      swap1\n      pop\n        /* \"#utility.yul\":4786:4912   */\n      swap2\n      swap1\n      pop\n      jump\t// out\n        /* \"#utility.yul\":4918:4995   */\n    tag_166:\n        /* \"#utility.yul\":4955:4962   */\n      0x00\n        /* \"#utility.yul\":4984:4989   */\n      dup2\n        /* \"#utility.yul\":4973:4989   */\n      swap1\n      pop\n        /* \"#utility.yul\":4918:4995   */\n      swap2\n      swap1\n      pop\n      jump\t// out\n        /* \"#utility.yul\":5001:5234   */\n    tag_119:\n        /* \"#utility.yul\":5040:5043   */\n      0x00\n        /* \"#utility.yul\":5063:5087   */\n      tag_207\n        /* \"#utility.yul\":5081:5086   */\n      dup3\n        /* \"#utility.yul\":5063:5087   */\n      tag_166\n      jump\t// in\n    tag_207:\n        /* \"#utility.yul\":5054:5087   */\n      swap2\n      pop\n        /* \"#utility.yul\":5109:5175   */\n      0xffffffffffffffffffffffffffffffffffffffffffffffffffffffffffffffff\n        /* \"#utility.yul\":5102:5107   */\n      dup3\n        /* \"#utility.yul\":5099:5176   */\n      eq\n        /* \"#utility.yul\":5096:5199   */\n      iszero\n      tag_208\n      jumpi\n        /* \"#utility.yul\":5179:5197   */\n      tag_209\n      tag_183\n      jump\t// in\n    tag_209:\n        /* \"#utility.yul\":5096:5199   */\n    tag_208:\n        /* \"#utility.yul\":5226:5227   */\n      0x01\n        /* \"#utility.yul\":5219:5224   */\n      dup3\n        /* \"#utility.yul\":5215:5228   */\n      add\n        /* \"#utility.yul\":5208:5228   */\n      swap1\n      pop\n        /* \"#utility.yul\":5001:5234   */\n      swap2\n      swap1\n      pop\n      jump\t// out\n        /* \"#utility.yul\":5240:5420   */\n    tag_183:\n        /* \"#utility.yul\":5288:5365   */\n      0x4e487b7100000000000000000000000000000000000000000000000000000000\n        /* \"#utility.yul\":5285:5286   */\n      0x00\n        /* \"#utility.yul\":5278:5366   */\n      mstore\n        /* \"#utility.yul\":5385:5389   */\n      0x11\n        /* \"#utility.yul\":5382:5383   */\n      0x04\n        /* \"#utility.yul\":5375:5390   */\n      mstore\n        /* \"#utility.yul\":5409:5413   */\n      0x24\n        /* \"#utility.yul\":5406:5407   */\n      0x00\n        /* \"#utility.yul\":5399:5414   */\n      revert\n        /* \"#utility.yul\":5426:5606   */\n    tag_189:\n        /* \"#utility.yul\":5474:5551   */\n      0x4e487b7100000000000000000000000000000000000000000000000000000000\n        /* \"#utility.yul\":5471:5472   */\n      0x00\n        /* \"#utility.yul\":5464:5552   */\n      mstore\n        /* \"#utility.yul\":5571:5575   */\n      0x12\n        /* \"#utility.yul\":5568:5569   */\n      0x04\n        /* \"#utility.yul\":5561:5576   */\n      mstore\n        /* \"#utility.yul\":5595:5599   */\n      0x24\n        /* \"#utility.yul\":5592:5593   */\n      0x00\n        /* \"#utility.yul\":5585:5600   */\n      revert\n        /* \"#utility.yul\":5612:5792   */\n    tag_99:\n        /* \"#utility.yul\":5660:5737   */\n      0x4e487b7100000000000000000000000000000000000000000000000000000000\n        /* \"#utility.yul\":5657:5658   */\n      0x00\n        /* \"#utility.yul\":5650:5738   */\n      mstore\n        /* \"#utility.yul\":5757:5761   */\n      0x32\n        /* \"#utility.yul\":5754:5755   */\n      0x04\n        /* \"#utility.yul\":5747:5762   */\n      mstore\n        /* \"#utility.yul\":5781:5785   */\n      0x24\n        /* \"#utility.yul\":5778:5779   */\n      0x00\n        /* \"#utility.yul\":5771:5786   */\n      revert\n        /* \"#utility.yul\":5921:6038   */\n    tag_138:\n        /* \"#utility.yul\":6030:6031   */\n      0x00\n        /* \"#utility.yul\":6027:6028   */\n      dup1\n        /* \"#utility.yul\":6020:6032   */\n      revert\n        /* \"#utility.yul\":6044:6265   */\n    tag_162:\n        /* \"#utility.yul\":6184:6218   */\n      0x536f72727921206f6e6c792061646d696e2063616e20697373756520546f6b65\n        /* \"#utility.yul\":6180:6181   */\n      0x00\n        /* \"#utility.yul\":6172:6178   */\n      dup3\n        /* \"#utility.yul\":6168:6182   */\n      add\n        /* \"#utility.yul\":6161:6219   */\n      mstore\n        /* \"#utility.yul\":6253:6257   */\n      0x6e73000000000000000000000000000000000000000000000000000000000000\n        /* \"#utility.yul\":6248:6250   */\n      0x20\n        /* \"#utility.yul\":6240:6246   */\n      dup3\n        /* \"#utility.yul\":6236:6251   */\n      add\n        /* \"#utility.yul\":6229:6258   */\n      mstore\n        /* \"#utility.yul\":6044:6265   */\n      pop\n      jump\t// out\n        /* \"#utility.yul\":6271:6393   */\n    tag_130:\n        /* \"#utility.yul\":6344:6368   */\n      tag_218\n        /* \"#utility.yul\":6362:6367   */\n      dup2\n        /* \"#utility.yul\":6344:6368   */\n      tag_152\n      jump\t// in\n    tag_218:\n        /* \"#utility.yul\":6337:6342   */\n      dup2\n        /* \"#utility.yul\":6334:6369   */\n      eq\n        /* \"#utility.yul\":6324:6387   */\n      tag_219\n      jumpi\n        /* \"#utility.yul\":6383:6384   */\n      0x00\n        /* \"#utility.yul\":6380:6381   */\n      dup1\n        /* \"#utility.yul\":6373:6385   */\n      revert\n        /* \"#utility.yul\":6324:6387   */\n    tag_219:\n        /* \"#utility.yul\":6271:6393   */\n      pop\n      jump\t// out\n        /* \"#utility.yul\":6399:6521   */\n    tag_134:\n        /* \"#utility.yul\":6472:6496   */\n      tag_221\n        /* \"#utility.yul\":6490:6495   */\n      dup2\n        /* \"#utility.yul\":6472:6496   */\n      tag_166\n      jump\t// in\n    tag_221:\n        /* \"#utility.yul\":6465:6470   */\n      dup2\n        /* \"#utility.yul\":6462:6497   */\n      eq\n        /* \"#utility.yul\":6452:6515   */\n      tag_222\n      jumpi\n        /* \"#utility.yul\":6511:6512   */\n      0x00\n        /* \"#utility.yul\":6508:6509   */\n      dup1\n        /* \"#utility.yul\":6501:6513   */\n      revert\n        /* \"#utility.yul\":6452:6515   */\n    tag_222:\n        /* \"#utility.yul\":6399:6521   */\n      pop\n      jump\t// out\n\n    auxdata: 0xa264697066735822122032c99be88f3d57455f4ab3871911af3fbca2ecc8f6959d4aa40fde2a4db4130264736f6c63430008070033\n}\n",
				"bytecode": {
					"linkReferences": {},
					"object": "60a060405234801561001057600080fd5b503373ffffffffffffffffffffffffffffffffffffffff1660808173ffffffffffffffffffffffffffffffffffffffff1660601b8152505060805160601c610ef061006d600039600081816103ca0152610a4d0152610ef06000f3fe6080604052600436106100c25760003560e01c8063532950f41161007f578063eb2ea05411610059578063eb2ea0541461027f578063ef203825146102a8578063f481345a146102e5578063f851a44014610322576100c2565b8063532950f4146101fd578063c40768761461023a578063e73b49b414610256576100c2565b806307bb67b6146100c75780630b5a006b14610104578063284028c21461012f5780633efab43f1461016c57806346bd084114610197578063475a9fa9146101d4575b600080fd5b3480156100d357600080fd5b506100ee60048036038101906100e99190610a99565b61034d565b6040516100fb9190610bd9565b60405180910390f35b34801561011057600080fd5b50610119610365565b6040516101269190610bd9565b60405180910390f35b34801561013b57600080fd5b5061015660048036038101906101519190610a99565b61036b565b6040516101639190610bd9565b60405180910390f35b34801561017857600080fd5b50610181610383565b60405161018e9190610bd9565b60405180910390f35b3480156101a357600080fd5b506101be60048036038101906101b99190610b06565b610389565b6040516101cb9190610b83565b60405180910390f35b3480156101e057600080fd5b506101fb60048036038101906101f69190610ac6565b6103c8565b005b34801561020957600080fd5b50610224600480360381019061021f9190610b06565b6104c8565b6040516102319190610b83565b60405180910390f35b610254600480360381019061024f9190610ac6565b610507565b005b34801561026257600080fd5b5061027d60048036038101906102789190610a99565b6108e6565b005b34801561028b57600080fd5b506102a660048036038101906102a19190610ac6565b61094c565b005b3480156102b457600080fd5b506102cf60048036038101906102ca9190610a99565b6109d7565b6040516102dc9190610bd9565b60405180910390f35b3480156102f157600080fd5b5061030c60048036038101906103079190610a99565b6109ef565b6040516103199190610b9e565b60405180910390f35b34801561032e57600080fd5b50610337610a4b565b6040516103449190610b83565b60405180910390f35b60006020528060005260406000206000915090505481565b60045481565b60056020528060005260406000206000915090505481565b60025481565b6006818154811061039957600080fd5b906000526020600020016000915054906101000a900473ffffffffffffffffffffffffffffffffffffffff1681565b7f000000000000000000000000000000000000000000000000000000000000000073ffffffffffffffffffffffffffffffffffffffff163373ffffffffffffffffffffffffffffffffffffffff1614610456576040517f08c379a000000000000000000000000000000000000000000000000000000000815260040161044d90610bb9565b60405180910390fd5b806000808473ffffffffffffffffffffffffffffffffffffffff1673ffffffffffffffffffffffffffffffffffffffff16815260200190815260200160002060008282546104a49190610c05565b9250508190555080600260008282546104bd9190610ce6565b925050819055505050565b600381815481106104d857600080fd5b906000526020600020016000915054906101000a900473ffffffffffffffffffffffffffffffffffffffff1681565b60005b6003805490508110156108e1576003818154811061052b5761052a610e09565b5b9060005260206000200160009054906101000a900473ffffffffffffffffffffffffffffffffffffffff1673ffffffffffffffffffffffffffffffffffffffff168373ffffffffffffffffffffffffffffffffffffffff16141561063957816000803373ffffffffffffffffffffffffffffffffffffffff1673ffffffffffffffffffffffffffffffffffffffff16815260200190815260200160002060008282546105d79190610ce6565b9250508190555081600560008573ffffffffffffffffffffffffffffffffffffffff1673ffffffffffffffffffffffffffffffffffffffff168152602001908152602001600020600082825461062d9190610c05565b925050819055506108ce565b60011515610646846109ef565b151514156108cd57600160003373ffffffffffffffffffffffffffffffffffffffff1673ffffffffffffffffffffffffffffffffffffffff16815260200190815260200160002054600160008573ffffffffffffffffffffffffffffffffffffffff1673ffffffffffffffffffffffffffffffffffffffff168152602001908152602001600020541461079a57816000803373ffffffffffffffffffffffffffffffffffffffff1673ffffffffffffffffffffffffffffffffffffffff16815260200190815260200160002060008282546107219190610ce6565b9250508190555060048260036107379190610c8c565b6107419190610c5b565b6000808573ffffffffffffffffffffffffffffffffffffffff1673ffffffffffffffffffffffffffffffffffffffff168152602001908152602001600020600082825461078e9190610c05565b925050819055506108cc565b600160003373ffffffffffffffffffffffffffffffffffffffff1673ffffffffffffffffffffffffffffffffffffffff16815260200190815260200160002054600160008573ffffffffffffffffffffffffffffffffffffffff1673ffffffffffffffffffffffffffffffffffffffff1681526020019081526020016000205414156108cb57816000803373ffffffffffffffffffffffffffffffffffffffff1673ffffffffffffffffffffffffffffffffffffffff168152602001908152602001600020600082825461086e9190610ce6565b92505081905550816000808573ffffffffffffffffffffffffffffffffffffffff1673ffffffffffffffffffffffffffffffffffffffff16815260200190815260200160002060008282546108c39190610c05565b925050819055505b5b5b5b80806108d990610d62565b91505061050a565b505050565b6003819080600181540180825580915050600190039060005260206000200160009091909190916101000a81548173ffffffffffffffffffffffffffffffffffffffff021916908373ffffffffffffffffffffffffffffffffffffffff16021790555050565b60008060008473ffffffffffffffffffffffffffffffffffffffff1673ffffffffffffffffffffffffffffffffffffffff16815260200190815260200160002081905550806000808473ffffffffffffffffffffffffffffffffffffffff1673ffffffffffffffffffffffffffffffffffffffff168152602001908152602001600020819055505050565b60016020528060005260406000206000915090505481565b600080600160008473ffffffffffffffffffffffffffffffffffffffff1673ffffffffffffffffffffffffffffffffffffffff168152602001908152602001600020541115610a415760019050610a46565b600090505b919050565b7f000000000000000000000000000000000000000000000000000000000000000081565b600081359050610a7e81610e8c565b92915050565b600081359050610a9381610ea3565b92915050565b600060208284031215610aaf57610aae610e38565b5b6000610abd84828501610a6f565b91505092915050565b60008060408385031215610add57610adc610e38565b5b6000610aeb85828601610a6f565b9250506020610afc85828601610a84565b9150509250929050565b600060208284031215610b1c57610b1b610e38565b5b6000610b2a84828501610a84565b91505092915050565b610b3c81610d1a565b82525050565b610b4b81610d2c565b82525050565b6000610b5e602283610bf4565b9150610b6982610e3d565b604082019050919050565b610b7d81610d58565b82525050565b6000602082019050610b986000830184610b33565b92915050565b6000602082019050610bb36000830184610b42565b92915050565b60006020820190508181036000830152610bd281610b51565b9050919050565b6000602082019050610bee6000830184610b74565b92915050565b600082825260208201905092915050565b6000610c1082610d58565b9150610c1b83610d58565b9250827fffffffffffffffffffffffffffffffffffffffffffffffffffffffffffffffff03821115610c5057610c4f610dab565b5b828201905092915050565b6000610c6682610d58565b9150610c7183610d58565b925082610c8157610c80610dda565b5b828204905092915050565b6000610c9782610d58565b9150610ca283610d58565b9250817fffffffffffffffffffffffffffffffffffffffffffffffffffffffffffffffff0483118215151615610cdb57610cda610dab565b5b828202905092915050565b6000610cf182610d58565b9150610cfc83610d58565b925082821015610d0f57610d0e610dab565b5b828203905092915050565b6000610d2582610d38565b9050919050565b60008115159050919050565b600073ffffffffffffffffffffffffffffffffffffffff82169050919050565b6000819050919050565b6000610d6d82610d58565b91507fffffffffffffffffffffffffffffffffffffffffffffffffffffffffffffffff821415610da057610d9f610dab565b5b600182019050919050565b7f4e487b7100000000000000000000000000000000000000000000000000000000600052601160045260246000fd5b7f4e487b7100000000000000000000000000000000000000000000000000000000600052601260045260246000fd5b7f4e487b7100000000000000000000000000000000000000000000000000000000600052603260045260246000fd5b600080fd5b7f536f72727921206f6e6c792061646d696e2063616e20697373756520546f6b6560008201527f6e73000000000000000000000000000000000000000000000000000000000000602082015250565b610e9581610d1a565b8114610ea057600080fd5b50565b610eac81610d58565b8114610eb757600080fd5b5056fea264697066735822122032c99be88f3d57455f4ab3871911af3fbca2ecc8f6959d4aa40fde2a4db4130264736f6c63430008070033",
					"opcodes": "PUSH1 0xA0 PUSH1 0x40 MSTORE CALLVALUE DUP1 ISZERO PUSH2 0x10 JUMPI PUSH1 0x0 DUP1 REVERT JUMPDEST POP CALLER PUSH20 0xFFFFFFFFFFFFFFFFFFFFFFFFFFFFFFFFFFFFFFFF AND PUSH1 0x80 DUP2 PUSH20 0xFFFFFFFFFFFFFFFFFFFFFFFFFFFFFFFFFFFFFFFF AND PUSH1 0x60 SHL DUP2 MSTORE POP POP PUSH1 0x80 MLOAD PUSH1 0x60 SHR PUSH2 0xEF0 PUSH2 0x6D PUSH1 0x0 CODECOPY PUSH1 0x0 DUP2 DUP2 PUSH2 0x3CA ADD MSTORE PUSH2 0xA4D ADD MSTORE PUSH2 0xEF0 PUSH1 0x0 RETURN INVALID PUSH1 0x80 PUSH1 0x40 MSTORE PUSH1 0x4 CALLDATASIZE LT PUSH2 0xC2 JUMPI PUSH1 0x0 CALLDATALOAD PUSH1 0xE0 SHR DUP1 PUSH4 0x532950F4 GT PUSH2 0x7F JUMPI DUP1 PUSH4 0xEB2EA054 GT PUSH2 0x59 JUMPI DUP1 PUSH4 0xEB2EA054 EQ PUSH2 0x27F JUMPI DUP1 PUSH4 0xEF203825 EQ PUSH2 0x2A8 JUMPI DUP1 PUSH4 0xF481345A EQ PUSH2 0x2E5 JUMPI DUP1 PUSH4 0xF851A440 EQ PUSH2 0x322 JUMPI PUSH2 0xC2 JUMP JUMPDEST DUP1 PUSH4 0x532950F4 EQ PUSH2 0x1FD JUMPI DUP1 PUSH4 0xC4076876 EQ PUSH2 0x23A JUMPI DUP1 PUSH4 0xE73B49B4 EQ PUSH2 0x256 JUMPI PUSH2 0xC2 JUMP JUMPDEST DUP1 PUSH4 0x7BB67B6 EQ PUSH2 0xC7 JUMPI DUP1 PUSH4 0xB5A006B EQ PUSH2 0x104 JUMPI DUP1 PUSH4 0x284028C2 EQ PUSH2 0x12F JUMPI DUP1 PUSH4 0x3EFAB43F EQ PUSH2 0x16C JUMPI DUP1 PUSH4 0x46BD0841 EQ PUSH2 0x197 JUMPI DUP1 PUSH4 0x475A9FA9 EQ PUSH2 0x1D4 JUMPI JUMPDEST PUSH1 0x0 DUP1 REVERT JUMPDEST CALLVALUE DUP1 ISZERO PUSH2 0xD3 JUMPI PUSH1 0x0 DUP1 REVERT JUMPDEST POP PUSH2 0xEE PUSH1 0x4 DUP1 CALLDATASIZE SUB DUP2 ADD SWAP1 PUSH2 0xE9 SWAP2 SWAP1 PUSH2 0xA99 JUMP JUMPDEST PUSH2 0x34D JUMP JUMPDEST PUSH1 0x40 MLOAD PUSH2 0xFB SWAP2 SWAP1 PUSH2 0xBD9 JUMP JUMPDEST PUSH1 0x40 MLOAD DUP1 SWAP2 SUB SWAP1 RETURN JUMPDEST CALLVALUE DUP1 ISZERO PUSH2 0x110 JUMPI PUSH1 0x0 DUP1 REVERT JUMPDEST POP PUSH2 0x119 PUSH2 0x365 JUMP JUMPDEST PUSH1 0x40 MLOAD PUSH2 0x126 SWAP2 SWAP1 PUSH2 0xBD9 JUMP JUMPDEST PUSH1 0x40 MLOAD DUP1 SWAP2 SUB SWAP1 RETURN JUMPDEST CALLVALUE DUP1 ISZERO PUSH2 0x13B JUMPI PUSH1 0x0 DUP1 REVERT JUMPDEST POP PUSH2 0x156 PUSH1 0x4 DUP1 CALLDATASIZE SUB DUP2 ADD SWAP1 PUSH2 0x151 SWAP2 SWAP1 PUSH2 0xA99 JUMP JUMPDEST PUSH2 0x36B JUMP JUMPDEST PUSH1 0x40 MLOAD PUSH2 0x163 SWAP2 SWAP1 PUSH2 0xBD9 JUMP JUMPDEST PUSH1 0x40 MLOAD DUP1 SWAP2 SUB SWAP1 RETURN JUMPDEST CALLVALUE DUP1 ISZERO PUSH2 0x178 JUMPI PUSH1 0x0 DUP1 REVERT JUMPDEST POP PUSH2 0x181 PUSH2 0x383 JUMP JUMPDEST PUSH1 0x40 MLOAD PUSH2 0x18E SWAP2 SWAP1 PUSH2 0xBD9 JUMP JUMPDEST PUSH1 0x40 MLOAD DUP1 SWAP2 SUB SWAP1 RETURN JUMPDEST CALLVALUE DUP1 ISZERO PUSH2 0x1A3 JUMPI PUSH1 0x0 DUP1 REVERT JUMPDEST POP PUSH2 0x1BE PUSH1 0x4 DUP1 CALLDATASIZE SUB DUP2 ADD SWAP1 PUSH2 0x1B9 SWAP2 SWAP1 PUSH2 0xB06 JUMP JUMPDEST PUSH2 0x389 JUMP JUMPDEST PUSH1 0x40 MLOAD PUSH2 0x1CB SWAP2 SWAP1 PUSH2 0xB83 JUMP JUMPDEST PUSH1 0x40 MLOAD DUP1 SWAP2 SUB SWAP1 RETURN JUMPDEST CALLVALUE DUP1 ISZERO PUSH2 0x1E0 JUMPI PUSH1 0x0 DUP1 REVERT JUMPDEST POP PUSH2 0x1FB PUSH1 0x4 DUP1 CALLDATASIZE SUB DUP2 ADD SWAP1 PUSH2 0x1F6 SWAP2 SWAP1 PUSH2 0xAC6 JUMP JUMPDEST PUSH2 0x3C8 JUMP JUMPDEST STOP JUMPDEST CALLVALUE DUP1 ISZERO PUSH2 0x209 JUMPI PUSH1 0x0 DUP1 REVERT JUMPDEST POP PUSH2 0x224 PUSH1 0x4 DUP1 CALLDATASIZE SUB DUP2 ADD SWAP1 PUSH2 0x21F SWAP2 SWAP1 PUSH2 0xB06 JUMP JUMPDEST PUSH2 0x4C8 JUMP JUMPDEST PUSH1 0x40 MLOAD PUSH2 0x231 SWAP2 SWAP1 PUSH2 0xB83 JUMP JUMPDEST PUSH1 0x40 MLOAD DUP1 SWAP2 SUB SWAP1 RETURN JUMPDEST PUSH2 0x254 PUSH1 0x4 DUP1 CALLDATASIZE SUB DUP2 ADD SWAP1 PUSH2 0x24F SWAP2 SWAP1 PUSH2 0xAC6 JUMP JUMPDEST PUSH2 0x507 JUMP JUMPDEST STOP JUMPDEST CALLVALUE DUP1 ISZERO PUSH2 0x262 JUMPI PUSH1 0x0 DUP1 REVERT JUMPDEST POP PUSH2 0x27D PUSH1 0x4 DUP1 CALLDATASIZE SUB DUP2 ADD SWAP1 PUSH2 0x278 SWAP2 SWAP1 PUSH2 0xA99 JUMP JUMPDEST PUSH2 0x8E6 JUMP JUMPDEST STOP JUMPDEST CALLVALUE DUP1 ISZERO PUSH2 0x28B JUMPI PUSH1 0x0 DUP1 REVERT JUMPDEST POP PUSH2 0x2A6 PUSH1 0x4 DUP1 CALLDATASIZE SUB DUP2 ADD SWAP1 PUSH2 0x2A1 SWAP2 SWAP1 PUSH2 0xAC6 JUMP JUMPDEST PUSH2 0x94C JUMP JUMPDEST STOP JUMPDEST CALLVALUE DUP1 ISZERO PUSH2 0x2B4 JUMPI PUSH1 0x0 DUP1 REVERT JUMPDEST POP PUSH2 0x2CF PUSH1 0x4 DUP1 CALLDATASIZE SUB DUP2 ADD SWAP1 PUSH2 0x2CA SWAP2 SWAP1 PUSH2 0xA99 JUMP JUMPDEST PUSH2 0x9D7 JUMP JUMPDEST PUSH1 0x40 MLOAD PUSH2 0x2DC SWAP2 SWAP1 PUSH2 0xBD9 JUMP JUMPDEST PUSH1 0x40 MLOAD DUP1 SWAP2 SUB SWAP1 RETURN JUMPDEST CALLVALUE DUP1 ISZERO PUSH2 0x2F1 JUMPI PUSH1 0x0 DUP1 REVERT JUMPDEST POP PUSH2 0x30C PUSH1 0x4 DUP1 CALLDATASIZE SUB DUP2 ADD SWAP1 PUSH2 0x307 SWAP2 SWAP1 PUSH2 0xA99 JUMP JUMPDEST PUSH2 0x9EF JUMP JUMPDEST PUSH1 0x40 MLOAD PUSH2 0x319 SWAP2 SWAP1 PUSH2 0xB9E JUMP JUMPDEST PUSH1 0x40 MLOAD DUP1 SWAP2 SUB SWAP1 RETURN JUMPDEST CALLVALUE DUP1 ISZERO PUSH2 0x32E JUMPI PUSH1 0x0 DUP1 REVERT JUMPDEST POP PUSH2 0x337 PUSH2 0xA4B JUMP JUMPDEST PUSH1 0x40 MLOAD PUSH2 0x344 SWAP2 SWAP1 PUSH2 0xB83 JUMP JUMPDEST PUSH1 0x40 MLOAD DUP1 SWAP2 SUB SWAP1 RETURN JUMPDEST PUSH1 0x0 PUSH1 0x20 MSTORE DUP1 PUSH1 0x0 MSTORE PUSH1 0x40 PUSH1 0x0 KECCAK256 PUSH1 0x0 SWAP2 POP SWAP1 POP SLOAD DUP2 JUMP JUMPDEST PUSH1 0x4 SLOAD DUP2 JUMP JUMPDEST PUSH1 0x5 PUSH1 0x20 MSTORE DUP1 PUSH1 0x0 MSTORE PUSH1 0x40 PUSH1 0x0 KECCAK256 PUSH1 0x0 SWAP2 POP SWAP1 POP SLOAD DUP2 JUMP JUMPDEST PUSH1 0x2 SLOAD DUP2 JUMP JUMPDEST PUSH1 0x6 DUP2 DUP2 SLOAD DUP2 LT PUSH2 0x399 JUMPI PUSH1 0x0 DUP1 REVERT JUMPDEST SWAP1 PUSH1 0x0 MSTORE PUSH1 0x20 PUSH1 0x0 KECCAK256 ADD PUSH1 0x0 SWAP2 POP SLOAD SWAP1 PUSH2 0x100 EXP SWAP1 DIV PUSH20 0xFFFFFFFFFFFFFFFFFFFFFFFFFFFFFFFFFFFFFFFF AND DUP2 JUMP JUMPDEST PUSH32 0x0 PUSH20 0xFFFFFFFFFFFFFFFFFFFFFFFFFFFFFFFFFFFFFFFF AND CALLER PUSH20 0xFFFFFFFFFFFFFFFFFFFFFFFFFFFFFFFFFFFFFFFF AND EQ PUSH2 0x456 JUMPI PUSH1 0x40 MLOAD PUSH32 0x8C379A000000000000000000000000000000000000000000000000000000000 DUP2 MSTORE PUSH1 0x4 ADD PUSH2 0x44D SWAP1 PUSH2 0xBB9 JUMP JUMPDEST PUSH1 0x40 MLOAD DUP1 SWAP2 SUB SWAP1 REVERT JUMPDEST DUP1 PUSH1 0x0 DUP1 DUP5 PUSH20 0xFFFFFFFFFFFFFFFFFFFFFFFFFFFFFFFFFFFFFFFF AND PUSH20 0xFFFFFFFFFFFFFFFFFFFFFFFFFFFFFFFFFFFFFFFF AND DUP2 MSTORE PUSH1 0x20 ADD SWAP1 DUP2 MSTORE PUSH1 0x20 ADD PUSH1 0x0 KECCAK256 PUSH1 0x0 DUP3 DUP3 SLOAD PUSH2 0x4A4 SWAP2 SWAP1 PUSH2 0xC05 JUMP JUMPDEST SWAP3 POP POP DUP2 SWAP1 SSTORE POP DUP1 PUSH1 0x2 PUSH1 0x0 DUP3 DUP3 SLOAD PUSH2 0x4BD SWAP2 SWAP1 PUSH2 0xCE6 JUMP JUMPDEST SWAP3 POP POP DUP2 SWAP1 SSTORE POP POP POP JUMP JUMPDEST PUSH1 0x3 DUP2 DUP2 SLOAD DUP2 LT PUSH2 0x4D8 JUMPI PUSH1 0x0 DUP1 REVERT JUMPDEST SWAP1 PUSH1 0x0 MSTORE PUSH1 0x20 PUSH1 0x0 KECCAK256 ADD PUSH1 0x0 SWAP2 POP SLOAD SWAP1 PUSH2 0x100 EXP SWAP1 DIV PUSH20 0xFFFFFFFFFFFFFFFFFFFFFFFFFFFFFFFFFFFFFFFF AND DUP2 JUMP JUMPDEST PUSH1 0x0 JUMPDEST PUSH1 0x3 DUP1 SLOAD SWAP1 POP DUP2 LT ISZERO PUSH2 0x8E1 JUMPI PUSH1 0x3 DUP2 DUP2 SLOAD DUP2 LT PUSH2 0x52B JUMPI PUSH2 0x52A PUSH2 0xE09 JUMP JUMPDEST JUMPDEST SWAP1 PUSH1 0x0 MSTORE PUSH1 0x20 PUSH1 0x0 KECCAK256 ADD PUSH1 0x0 SWAP1 SLOAD SWAP1 PUSH2 0x100 EXP SWAP1 DIV PUSH20 0xFFFFFFFFFFFFFFFFFFFFFFFFFFFFFFFFFFFFFFFF AND PUSH20 0xFFFFFFFFFFFFFFFFFFFFFFFFFFFFFFFFFFFFFFFF AND DUP4 PUSH20 0xFFFFFFFFFFFFFFFFFFFFFFFFFFFFFFFFFFFFFFFF AND EQ ISZERO PUSH2 0x639 JUMPI DUP2 PUSH1 0x0 DUP1 CALLER PUSH20 0xFFFFFFFFFFFFFFFFFFFFFFFFFFFFFFFFFFFFFFFF AND PUSH20 0xFFFFFFFFFFFFFFFFFFFFFFFFFFFFFFFFFFFFFFFF AND DUP2 MSTORE PUSH1 0x20 ADD SWAP1 DUP2 MSTORE PUSH1 0x20 ADD PUSH1 0x0 KECCAK256 PUSH1 0x0 DUP3 DUP3 SLOAD PUSH2 0x5D7 SWAP2 SWAP1 PUSH2 0xCE6 JUMP JUMPDEST SWAP3 POP POP DUP2 SWAP1 SSTORE POP DUP2 PUSH1 0x5 PUSH1 0x0 DUP6 PUSH20 0xFFFFFFFFFFFFFFFFFFFFFFFFFFFFFFFFFFFFFFFF AND PUSH20 0xFFFFFFFFFFFFFFFFFFFFFFFFFFFFFFFFFFFFFFFF AND DUP2 MSTORE PUSH1 0x20 ADD SWAP1 DUP2 MSTORE PUSH1 0x20 ADD PUSH1 0x0 KECCAK256 PUSH1 0x0 DUP3 DUP3 SLOAD PUSH2 0x62D SWAP2 SWAP1 PUSH2 0xC05 JUMP JUMPDEST SWAP3 POP POP DUP2 SWAP1 SSTORE POP PUSH2 0x8CE JUMP JUMPDEST PUSH1 0x1 ISZERO ISZERO PUSH2 0x646 DUP5 PUSH2 0x9EF JUMP JUMPDEST ISZERO ISZERO EQ ISZERO PUSH2 0x8CD JUMPI PUSH1 0x1 PUSH1 0x0 CALLER PUSH20 0xFFFFFFFFFFFFFFFFFFFFFFFFFFFFFFFFFFFFFFFF AND PUSH20 0xFFFFFFFFFFFFFFFFFFFFFFFFFFFFFFFFFFFFFFFF AND DUP2 MSTORE PUSH1 0x20 ADD SWAP1 DUP2 MSTORE PUSH1 0x20 ADD PUSH1 0x0 KECCAK256 SLOAD PUSH1 0x1 PUSH1 0x0 DUP6 PUSH20 0xFFFFFFFFFFFFFFFFFFFFFFFFFFFFFFFFFFFFFFFF AND PUSH20 0xFFFFFFFFFFFFFFFFFFFFFFFFFFFFFFFFFFFFFFFF AND DUP2 MSTORE PUSH1 0x20 ADD SWAP1 DUP2 MSTORE PUSH1 0x20 ADD PUSH1 0x0 KECCAK256 SLOAD EQ PUSH2 0x79A JUMPI DUP2 PUSH1 0x0 DUP1 CALLER PUSH20 0xFFFFFFFFFFFFFFFFFFFFFFFFFFFFFFFFFFFFFFFF AND PUSH20 0xFFFFFFFFFFFFFFFFFFFFFFFFFFFFFFFFFFFFFFFF AND DUP2 MSTORE PUSH1 0x20 ADD SWAP1 DUP2 MSTORE PUSH1 0x20 ADD PUSH1 0x0 KECCAK256 PUSH1 0x0 DUP3 DUP3 SLOAD PUSH2 0x721 SWAP2 SWAP1 PUSH2 0xCE6 JUMP JUMPDEST SWAP3 POP POP DUP2 SWAP1 SSTORE POP PUSH1 0x4 DUP3 PUSH1 0x3 PUSH2 0x737 SWAP2 SWAP1 PUSH2 0xC8C JUMP JUMPDEST PUSH2 0x741 SWAP2 SWAP1 PUSH2 0xC5B JUMP JUMPDEST PUSH1 0x0 DUP1 DUP6 PUSH20 0xFFFFFFFFFFFFFFFFFFFFFFFFFFFFFFFFFFFFFFFF AND PUSH20 0xFFFFFFFFFFFFFFFFFFFFFFFFFFFFFFFFFFFFFFFF AND DUP2 MSTORE PUSH1 0x20 ADD SWAP1 DUP2 MSTORE PUSH1 0x20 ADD PUSH1 0x0 KECCAK256 PUSH1 0x0 DUP3 DUP3 SLOAD PUSH2 0x78E SWAP2 SWAP1 PUSH2 0xC05 JUMP JUMPDEST SWAP3 POP POP DUP2 SWAP1 SSTORE POP PUSH2 0x8CC JUMP JUMPDEST PUSH1 0x1 PUSH1 0x0 CALLER PUSH20 0xFFFFFFFFFFFFFFFFFFFFFFFFFFFFFFFFFFFFFFFF AND PUSH20 0xFFFFFFFFFFFFFFFFFFFFFFFFFFFFFFFFFFFFFFFF AND DUP2 MSTORE PUSH1 0x20 ADD SWAP1 DUP2 MSTORE PUSH1 0x20 ADD PUSH1 0x0 KECCAK256 SLOAD PUSH1 0x1 PUSH1 0x0 DUP6 PUSH20 0xFFFFFFFFFFFFFFFFFFFFFFFFFFFFFFFFFFFFFFFF AND PUSH20 0xFFFFFFFFFFFFFFFFFFFFFFFFFFFFFFFFFFFFFFFF AND DUP2 MSTORE PUSH1 0x20 ADD SWAP1 DUP2 MSTORE PUSH1 0x20 ADD PUSH1 0x0 KECCAK256 SLOAD EQ ISZERO PUSH2 0x8CB JUMPI DUP2 PUSH1 0x0 DUP1 CALLER PUSH20 0xFFFFFFFFFFFFFFFFFFFFFFFFFFFFFFFFFFFFFFFF AND PUSH20 0xFFFFFFFFFFFFFFFFFFFFFFFFFFFFFFFFFFFFFFFF AND DUP2 MSTORE PUSH1 0x20 ADD SWAP1 DUP2 MSTORE PUSH1 0x20 ADD PUSH1 0x0 KECCAK256 PUSH1 0x0 DUP3 DUP3 SLOAD PUSH2 0x86E SWAP2 SWAP1 PUSH2 0xCE6 JUMP JUMPDEST SWAP3 POP POP DUP2 SWAP1 SSTORE POP DUP2 PUSH1 0x0 DUP1 DUP6 PUSH20 0xFFFFFFFFFFFFFFFFFFFFFFFFFFFFFFFFFFFFFFFF AND PUSH20 0xFFFFFFFFFFFFFFFFFFFFFFFFFFFFFFFFFFFFFFFF AND DUP2 MSTORE PUSH1 0x20 ADD SWAP1 DUP2 MSTORE PUSH1 0x20 ADD PUSH1 0x0 KECCAK256 PUSH1 0x0 DUP3 DUP3 SLOAD PUSH2 0x8C3 SWAP2 SWAP1 PUSH2 0xC05 JUMP JUMPDEST SWAP3 POP POP DUP2 SWAP1 SSTORE POP JUMPDEST JUMPDEST JUMPDEST JUMPDEST DUP1 DUP1 PUSH2 0x8D9 SWAP1 PUSH2 0xD62 JUMP JUMPDEST SWAP2 POP POP PUSH2 0x50A JUMP JUMPDEST POP POP POP JUMP JUMPDEST PUSH1 0x3 DUP2 SWAP1 DUP1 PUSH1 0x1 DUP2 SLOAD ADD DUP1 DUP3 SSTORE DUP1 SWAP2 POP POP PUSH1 0x1 SWAP1 SUB SWAP1 PUSH1 0x0 MSTORE PUSH1 0x20 PUSH1 0x0 KECCAK256 ADD PUSH1 0x0 SWAP1 SWAP2 SWAP1 SWAP2 SWAP1 SWAP2 PUSH2 0x100 EXP DUP2 SLOAD DUP2 PUSH20 0xFFFFFFFFFFFFFFFFFFFFFFFFFFFFFFFFFFFFFFFF MUL NOT AND SWAP1 DUP4 PUSH20 0xFFFFFFFFFFFFFFFFFFFFFFFFFFFFFFFFFFFFFFFF AND MUL OR SWAP1 SSTORE POP POP JUMP JUMPDEST PUSH1 0x0 DUP1 PUSH1 0x0 DUP5 PUSH20 0xFFFFFFFFFFFFFFFFFFFFFFFFFFFFFFFFFFFFFFFF AND PUSH20 0xFFFFFFFFFFFFFFFFFFFFFFFFFFFFFFFFFFFFFFFF AND DUP2 MSTORE PUSH1 0x20 ADD SWAP1 DUP2 MSTORE PUSH1 0x20 ADD PUSH1 0x0 KECCAK256 DUP2 SWAP1 SSTORE POP DUP1 PUSH1 0x0 DUP1 DUP5 PUSH20 0xFFFFFFFFFFFFFFFFFFFFFFFFFFFFFFFFFFFFFFFF AND PUSH20 0xFFFFFFFFFFFFFFFFFFFFFFFFFFFFFFFFFFFFFFFF AND DUP2 MSTORE PUSH1 0x20 ADD SWAP1 DUP2 MSTORE PUSH1 0x20 ADD PUSH1 0x0 KECCAK256 DUP2 SWAP1 SSTORE POP POP POP JUMP JUMPDEST PUSH1 0x1 PUSH1 0x20 MSTORE DUP1 PUSH1 0x0 MSTORE PUSH1 0x40 PUSH1 0x0 KECCAK256 PUSH1 0x0 SWAP2 POP SWAP1 POP SLOAD DUP2 JUMP JUMPDEST PUSH1 0x0 DUP1 PUSH1 0x1 PUSH1 0x0 DUP5 PUSH20 0xFFFFFFFFFFFFFFFFFFFFFFFFFFFFFFFFFFFFFFFF AND PUSH20 0xFFFFFFFFFFFFFFFFFFFFFFFFFFFFFFFFFFFFFFFF AND DUP2 MSTORE PUSH1 0x20 ADD SWAP1 DUP2 MSTORE PUSH1 0x20 ADD PUSH1 0x0 KECCAK256 SLOAD GT ISZERO PUSH2 0xA41 JUMPI PUSH1 0x1 SWAP1 POP PUSH2 0xA46 JUMP JUMPDEST PUSH1 0x0 SWAP1 POP JUMPDEST SWAP2 SWAP1 POP JUMP JUMPDEST PUSH32 0x0 DUP2 JUMP JUMPDEST PUSH1 0x0 DUP2 CALLDATALOAD SWAP1 POP PUSH2 0xA7E DUP2 PUSH2 0xE8C JUMP JUMPDEST SWAP3 SWAP2 POP POP JUMP JUMPDEST PUSH1 0x0 DUP2 CALLDATALOAD SWAP1 POP PUSH2 0xA93 DUP2 PUSH2 0xEA3 JUMP JUMPDEST SWAP3 SWAP2 POP POP JUMP JUMPDEST PUSH1 0x0 PUSH1 0x20 DUP3 DUP5 SUB SLT ISZERO PUSH2 0xAAF JUMPI PUSH2 0xAAE PUSH2 0xE38 JUMP JUMPDEST JUMPDEST PUSH1 0x0 PUSH2 0xABD DUP5 DUP3 DUP6 ADD PUSH2 0xA6F JUMP JUMPDEST SWAP2 POP POP SWAP3 SWAP2 POP POP JUMP JUMPDEST PUSH1 0x0 DUP1 PUSH1 0x40 DUP4 DUP6 SUB SLT ISZERO PUSH2 0xADD JUMPI PUSH2 0xADC PUSH2 0xE38 JUMP JUMPDEST JUMPDEST PUSH1 0x0 PUSH2 0xAEB DUP6 DUP3 DUP7 ADD PUSH2 0xA6F JUMP JUMPDEST SWAP3 POP POP PUSH1 0x20 PUSH2 0xAFC DUP6 DUP3 DUP7 ADD PUSH2 0xA84 JUMP JUMPDEST SWAP2 POP POP SWAP3 POP SWAP3 SWAP1 POP JUMP JUMPDEST PUSH1 0x0 PUSH1 0x20 DUP3 DUP5 SUB SLT ISZERO PUSH2 0xB1C JUMPI PUSH2 0xB1B PUSH2 0xE38 JUMP JUMPDEST JUMPDEST PUSH1 0x0 PUSH2 0xB2A DUP5 DUP3 DUP6 ADD PUSH2 0xA84 JUMP JUMPDEST SWAP2 POP POP SWAP3 SWAP2 POP POP JUMP JUMPDEST PUSH2 0xB3C DUP2 PUSH2 0xD1A JUMP JUMPDEST DUP3 MSTORE POP POP JUMP JUMPDEST PUSH2 0xB4B DUP2 PUSH2 0xD2C JUMP JUMPDEST DUP3 MSTORE POP POP JUMP JUMPDEST PUSH1 0x0 PUSH2 0xB5E PUSH1 0x22 DUP4 PUSH2 0xBF4 JUMP JUMPDEST SWAP2 POP PUSH2 0xB69 DUP3 PUSH2 0xE3D JUMP JUMPDEST PUSH1 0x40 DUP3 ADD SWAP1 POP SWAP2 SWAP1 POP JUMP JUMPDEST PUSH2 0xB7D DUP2 PUSH2 0xD58 JUMP JUMPDEST DUP3 MSTORE POP POP JUMP JUMPDEST PUSH1 0x0 PUSH1 0x20 DUP3 ADD SWAP1 POP PUSH2 0xB98 PUSH1 0x0 DUP4 ADD DUP5 PUSH2 0xB33 JUMP JUMPDEST SWAP3 SWAP2 POP POP JUMP JUMPDEST PUSH1 0x0 PUSH1 0x20 DUP3 ADD SWAP1 POP PUSH2 0xBB3 PUSH1 0x0 DUP4 ADD DUP5 PUSH2 0xB42 JUMP JUMPDEST SWAP3 SWAP2 POP POP JUMP JUMPDEST PUSH1 0x0 PUSH1 0x20 DUP3 ADD SWAP1 POP DUP2 DUP2 SUB PUSH1 0x0 DUP4 ADD MSTORE PUSH2 0xBD2 DUP2 PUSH2 0xB51 JUMP JUMPDEST SWAP1 POP SWAP2 SWAP1 POP JUMP JUMPDEST PUSH1 0x0 PUSH1 0x20 DUP3 ADD SWAP1 POP PUSH2 0xBEE PUSH1 0x0 DUP4 ADD DUP5 PUSH2 0xB74 JUMP JUMPDEST SWAP3 SWAP2 POP POP JUMP JUMPDEST PUSH1 0x0 DUP3 DUP3 MSTORE PUSH1 0x20 DUP3 ADD SWAP1 POP SWAP3 SWAP2 POP POP JUMP JUMPDEST PUSH1 0x0 PUSH2 0xC10 DUP3 PUSH2 0xD58 JUMP JUMPDEST SWAP2 POP PUSH2 0xC1B DUP4 PUSH2 0xD58 JUMP JUMPDEST SWAP3 POP DUP3 PUSH32 0xFFFFFFFFFFFFFFFFFFFFFFFFFFFFFFFFFFFFFFFFFFFFFFFFFFFFFFFFFFFFFFFF SUB DUP3 GT ISZERO PUSH2 0xC50 JUMPI PUSH2 0xC4F PUSH2 0xDAB JUMP JUMPDEST JUMPDEST DUP3 DUP3 ADD SWAP1 POP SWAP3 SWAP2 POP POP JUMP JUMPDEST PUSH1 0x0 PUSH2 0xC66 DUP3 PUSH2 0xD58 JUMP JUMPDEST SWAP2 POP PUSH2 0xC71 DUP4 PUSH2 0xD58 JUMP JUMPDEST SWAP3 POP DUP3 PUSH2 0xC81 JUMPI PUSH2 0xC80 PUSH2 0xDDA JUMP JUMPDEST JUMPDEST DUP3 DUP3 DIV SWAP1 POP SWAP3 SWAP2 POP POP JUMP JUMPDEST PUSH1 0x0 PUSH2 0xC97 DUP3 PUSH2 0xD58 JUMP JUMPDEST SWAP2 POP PUSH2 0xCA2 DUP4 PUSH2 0xD58 JUMP JUMPDEST SWAP3 POP DUP2 PUSH32 0xFFFFFFFFFFFFFFFFFFFFFFFFFFFFFFFFFFFFFFFFFFFFFFFFFFFFFFFFFFFFFFFF DIV DUP4 GT DUP3 ISZERO ISZERO AND ISZERO PUSH2 0xCDB JUMPI PUSH2 0xCDA PUSH2 0xDAB JUMP JUMPDEST JUMPDEST DUP3 DUP3 MUL SWAP1 POP SWAP3 SWAP2 POP POP JUMP JUMPDEST PUSH1 0x0 PUSH2 0xCF1 DUP3 PUSH2 0xD58 JUMP JUMPDEST SWAP2 POP PUSH2 0xCFC DUP4 PUSH2 0xD58 JUMP JUMPDEST SWAP3 POP DUP3 DUP3 LT ISZERO PUSH2 0xD0F JUMPI PUSH2 0xD0E PUSH2 0xDAB JUMP JUMPDEST JUMPDEST DUP3 DUP3 SUB SWAP1 POP SWAP3 SWAP2 POP POP JUMP JUMPDEST PUSH1 0x0 PUSH2 0xD25 DUP3 PUSH2 0xD38 JUMP JUMPDEST SWAP1 POP SWAP2 SWAP1 POP JUMP JUMPDEST PUSH1 0x0 DUP2 ISZERO ISZERO SWAP1 POP SWAP2 SWAP1 POP JUMP JUMPDEST PUSH1 0x0 PUSH20 0xFFFFFFFFFFFFFFFFFFFFFFFFFFFFFFFFFFFFFFFF DUP3 AND SWAP1 POP SWAP2 SWAP1 POP JUMP JUMPDEST PUSH1 0x0 DUP2 SWAP1 POP SWAP2 SWAP1 POP JUMP JUMPDEST PUSH1 0x0 PUSH2 0xD6D DUP3 PUSH2 0xD58 JUMP JUMPDEST SWAP2 POP PUSH32 0xFFFFFFFFFFFFFFFFFFFFFFFFFFFFFFFFFFFFFFFFFFFFFFFFFFFFFFFFFFFFFFFF DUP3 EQ ISZERO PUSH2 0xDA0 JUMPI PUSH2 0xD9F PUSH2 0xDAB JUMP JUMPDEST JUMPDEST PUSH1 0x1 DUP3 ADD SWAP1 POP SWAP2 SWAP1 POP JUMP JUMPDEST PUSH32 0x4E487B7100000000000000000000000000000000000000000000000000000000 PUSH1 0x0 MSTORE PUSH1 0x11 PUSH1 0x4 MSTORE PUSH1 0x24 PUSH1 0x0 REVERT JUMPDEST PUSH32 0x4E487B7100000000000000000000000000000000000000000000000000000000 PUSH1 0x0 MSTORE PUSH1 0x12 PUSH1 0x4 MSTORE PUSH1 0x24 PUSH1 0x0 REVERT JUMPDEST PUSH32 0x4E487B7100000000000000000000000000000000000000000000000000000000 PUSH1 0x0 MSTORE PUSH1 0x32 PUSH1 0x4 MSTORE PUSH1 0x24 PUSH1 0x0 REVERT JUMPDEST PUSH1 0x0 DUP1 REVERT JUMPDEST PUSH32 0x536F72727921206F6E6C792061646D696E2063616E20697373756520546F6B65 PUSH1 0x0 DUP3 ADD MSTORE PUSH32 0x6E73000000000000000000000000000000000000000000000000000000000000 PUSH1 0x20 DUP3 ADD MSTORE POP JUMP JUMPDEST PUSH2 0xE95 DUP2 PUSH2 0xD1A JUMP JUMPDEST DUP2 EQ PUSH2 0xEA0 JUMPI PUSH1 0x0 DUP1 REVERT JUMPDEST POP JUMP JUMPDEST PUSH2 0xEAC DUP2 PUSH2 0xD58 JUMP JUMPDEST DUP2 EQ PUSH2 0xEB7 JUMPI PUSH1 0x0 DUP1 REVERT JUMPDEST POP JUMP INVALID LOG2 PUSH5 0x6970667358 0x22 SLT KECCAK256 ORIGIN 0xC9 SWAP12 0xE8 DUP16 RETURNDATASIZE JUMPI GASLIMIT 0x5F 0x4A 0xB3 DUP8 NOT GT 0xAF EXTCODEHASH 0xBC LOG2 0xEC 0xC8 0xF6 SWAP6 SWAP14 0x4A LOG4 0xF 0xDE 0x2A 0x4D 0xB4 SGT MUL PUSH5 0x736F6C6343 STOP ADDMOD SMOD STOP CALLER "
				},
				"gasEstimates": {
					"creation": {
						"codeDepositCost": "764800",
						"executionCost": "infinite",
						"totalCost": "infinite"
					},
					"external": {
						"addRewards(address)": "49101",
						"admin()": "infinite",
						"adminTokenBalance()": "2496",
						"checkStudent(address)": "2950",
						"currentYear()": "2452",
						"idCardMap(address)": "2815",
						"issueIdCard(address,uint256)": "27958",
						"issueTokens(address,uint256)": "infinite",
						"pay(address,uint256)": "infinite",
						"rewardsArray(uint256)": "4979",
						"transaction(uint256)": "5045",
						"vendorMap(address)": "2859",
						"yearMap(address)": "2858"
					}
				},
				"methodIdentifiers": {
					"addRewards(address)": "e73b49b4",
					"admin()": "f851a440",
					"adminTokenBalance()": "3efab43f",
					"checkStudent(address)": "f481345a",
					"currentYear()": "0b5a006b",
					"idCardMap(address)": "07bb67b6",
					"issueIdCard(address,uint256)": "eb2ea054",
					"issueTokens(address,uint256)": "475a9fa9",
					"pay(address,uint256)": "c4076876",
					"rewardsArray(uint256)": "532950f4",
					"transaction(uint256)": "46bd0841",
					"vendorMap(address)": "284028c2",
					"yearMap(address)": "ef203825"
				}
			},
			"storageLayout": {
				"storage": [
					{
						"astId": 82,
						"contract": "contracts/TokenStudents.sol:TokenStudents",
						"label": "idCardMap",
						"offset": 0,
						"slot": "0",
						"type": "t_mapping(t_address,t_uint256)"
					},
					{
						"astId": 86,
						"contract": "contracts/TokenStudents.sol:TokenStudents",
						"label": "yearMap",
						"offset": 0,
						"slot": "1",
						"type": "t_mapping(t_address,t_uint256)"
					},
					{
						"astId": 88,
						"contract": "contracts/TokenStudents.sol:TokenStudents",
						"label": "adminTokenBalance",
						"offset": 0,
						"slot": "2",
						"type": "t_uint256"
					},
					{
						"astId": 154,
						"contract": "contracts/TokenStudents.sol:TokenStudents",
						"label": "rewardsArray",
						"offset": 0,
						"slot": "3",
						"type": "t_array(t_address)dyn_storage"
					},
					{
						"astId": 168,
						"contract": "contracts/TokenStudents.sol:TokenStudents",
						"label": "currentYear",
						"offset": 0,
						"slot": "4",
						"type": "t_uint256"
					},
					{
						"astId": 176,
						"contract": "contracts/TokenStudents.sol:TokenStudents",
						"label": "vendorMap",
						"offset": 0,
						"slot": "5",
						"type": "t_mapping(t_address,t_uint256)"
					},
					{
						"astId": 179,
						"contract": "contracts/TokenStudents.sol:TokenStudents",
						"label": "transaction",
						"offset": 0,
						"slot": "6",
						"type": "t_array(t_address)dyn_storage"
					}
				],
				"types": {
					"t_address": {
						"encoding": "inplace",
						"label": "address",
						"numberOfBytes": "20"
					},
					"t_array(t_address)dyn_storage": {
						"base": "t_address",
						"encoding": "dynamic_array",
						"label": "address[]",
						"numberOfBytes": "32"
					},
					"t_mapping(t_address,t_uint256)": {
						"encoding": "mapping",
						"key": "t_address",
						"label": "mapping(address => uint256)",
						"numberOfBytes": "32",
						"value": "t_uint256"
					},
					"t_uint256": {
						"encoding": "inplace",
						"label": "uint256",
						"numberOfBytes": "32"
					}
				}
			},
			"userdoc": {
				"kind": "user",
				"methods": {},
				"version": 1
			}
		}
	}
}