{
  "_format": "hh-sol-artifact-1",
  "contractName": "IssueTokens",
  "sourceName": "contracts/IssueTokens.sol",
  "abi": [
    {
      "inputs": [],
      "stateMutability": "nonpayable",
      "type": "constructor"
    },
    {
      "inputs": [],
      "name": "admin",
      "outputs": [
        {
          "internalType": "address",
          "name": "",
          "type": "address"
        }
      ],
      "stateMutability": "view",
      "type": "function"
    },
    {
      "inputs": [],
      "name": "adminTokenBalance",
      "outputs": [
        {
          "internalType": "uint256",
          "name": "",
          "type": "uint256"
        }
      ],
      "stateMutability": "view",
      "type": "function"
    },
    {
      "inputs": [
        {
          "internalType": "address",
          "name": "_studentAddress",
          "type": "address"
        }
      ],
      "name": "currentBalance",
      "outputs": [
        {
          "internalType": "uint256",
          "name": "",
          "type": "uint256"
        }
      ],
      "stateMutability": "view",
      "type": "function"
    },
    {
      "inputs": [
        {
          "internalType": "address",
          "name": "",
          "type": "address"
        }
      ],
      "name": "idCardMap",
      "outputs": [
        {
          "internalType": "uint256",
          "name": "",
          "type": "uint256"
        }
      ],
      "stateMutability": "view",
      "type": "function"
    },
    {
      "inputs": [
        {
          "internalType": "address",
          "name": "_newAddress",
          "type": "address"
        }
      ],
      "name": "issueIdCard",
      "outputs": [],
      "stateMutability": "nonpayable",
      "type": "function"
    },
    {
      "inputs": [
        {
          "internalType": "address",
          "name": "_studentAddress",
          "type": "address"
        },
        {
          "internalType": "uint256",
          "name": "_tokensNumber",
          "type": "uint256"
        }
      ],
      "name": "issueTokens",
      "outputs": [],
      "stateMutability": "nonpayable",
      "type": "function"
    }
  ],
  "bytecode": "0x60a060405234801561001057600080fd5b503373ffffffffffffffffffffffffffffffffffffffff1660808173ffffffffffffffffffffffffffffffffffffffff16815250506080516105d66100676000396000818161015b01526102ea01526105d66000f3fe608060405234801561001057600080fd5b50600436106100625760003560e01c806307bb67b6146100675780633efab43f14610097578063475a9fa9146100b55780639e546c38146100d1578063cbe781cf14610101578063f851a4401461011d575b600080fd5b610081600480360381019061007c919061036f565b61013b565b60405161008e91906103b5565b60405180910390f35b61009f610153565b6040516100ac91906103b5565b60405180910390f35b6100cf60048036038101906100ca91906103fc565b610159565b005b6100eb60048036038101906100e6919061036f565b610259565b6040516100f891906103b5565b60405180910390f35b61011b6004803603810190610116919061036f565b6102a1565b005b6101256102e8565b604051610132919061044b565b60405180910390f35b60006020528060005260406000206000915090505481565b60015481565b7f000000000000000000000000000000000000000000000000000000000000000073ffffffffffffffffffffffffffffffffffffffff163373ffffffffffffffffffffffffffffffffffffffff16146101e7576040517f08c379a00000000000000000000000000000000000000000000000000000000081526004016101de906104e9565b60405180910390fd5b806000808473ffffffffffffffffffffffffffffffffffffffff1673ffffffffffffffffffffffffffffffffffffffff16815260200190815260200160002060008282546102359190610538565b92505081905550806001600082825461024e919061056c565b925050819055505050565b60008060008373ffffffffffffffffffffffffffffffffffffffff1673ffffffffffffffffffffffffffffffffffffffff168152602001908152602001600020549050919050565b60008060008373ffffffffffffffffffffffffffffffffffffffff1673ffffffffffffffffffffffffffffffffffffffff1681526020019081526020016000208190555050565b7f000000000000000000000000000000000000000000000000000000000000000081565b600080fd5b600073ffffffffffffffffffffffffffffffffffffffff82169050919050565b600061033c82610311565b9050919050565b61034c81610331565b811461035757600080fd5b50565b60008135905061036981610343565b92915050565b6000602082840312156103855761038461030c565b5b60006103938482850161035a565b91505092915050565b6000819050919050565b6103af8161039c565b82525050565b60006020820190506103ca60008301846103a6565b92915050565b6103d98161039c565b81146103e457600080fd5b50565b6000813590506103f6816103d0565b92915050565b600080604083850312156104135761041261030c565b5b60006104218582860161035a565b9250506020610432858286016103e7565b9150509250929050565b61044581610331565b82525050565b6000602082019050610460600083018461043c565b92915050565b600082825260208201905092915050565b7f536f72727921206f6e6c792061646d696e2063616e20697373756520546f6b6560008201527f6e73000000000000000000000000000000000000000000000000000000000000602082015250565b60006104d3602283610466565b91506104de82610477565b604082019050919050565b60006020820190508181036000830152610502816104c6565b9050919050565b7f4e487b7100000000000000000000000000000000000000000000000000000000600052601160045260246000fd5b60006105438261039c565b915061054e8361039c565b925082820190508082111561056657610565610509565b5b92915050565b60006105778261039c565b91506105828361039c565b925082820390508181111561059a57610599610509565b5b9291505056fea2646970667358221220490321405b8159b775c07f7fe86b59865957c5980a913184c6ad8c8cff45661c64736f6c63430008110033",
  "linkReferences": {},
  "deployedLinkReferences": {}
}