{
  "_format": "hh-sol-artifact-1",
  "contractName": "TokenStudents",
  "sourceName": "contracts/TokenStudents.sol",
  "abi": [
    {
      "inputs": [],
      "stateMutability": "nonpayable",
      "type": "constructor"
    },
    {
      "inputs": [
        {
          "internalType": "address",
          "name": "_newRewardAddress",
          "type": "address"
        }
      ],
      "name": "addRewards",
      "outputs": [],
      "stateMutability": "nonpayable",
      "type": "function"
    },
    {
      "inputs": [],
      "name": "admin",
      "outputs": [
        {
          "internalType": "address",
          "name": "",
          "type": "address"
        }
      ],
      "stateMutability": "view",
      "type": "function"
    },
    {
      "inputs": [],
      "name": "adminTokenBalance",
      "outputs": [
        {
          "internalType": "uint256",
          "name": "",
          "type": "uint256"
        }
      ],
      "stateMutability": "view",
      "type": "function"
    },
    {
      "inputs": [
        {
          "internalType": "address",
          "name": "checkAddress",
          "type": "address"
        }
      ],
      "name": "checkStudent",
      "outputs": [
        {
          "internalType": "bool",
          "name": "",
          "type": "bool"
        }
      ],
      "stateMutability": "view",
      "type": "function"
    },
    {
      "inputs": [],
      "name": "currentYear",
      "outputs": [
        {
          "internalType": "uint256",
          "name": "",
          "type": "uint256"
        }
      ],
      "stateMutability": "view",
      "type": "function"
    },
    {
      "inputs": [
        {
          "internalType": "address",
          "name": "",
          "type": "address"
        }
      ],
      "name": "idCardMap",
      "outputs": [
        {
          "internalType": "uint256",
          "name": "",
          "type": "uint256"
        }
      ],
      "stateMutability": "view",
      "type": "function"
    },
    {
      "inputs": [
        {
          "internalType": "address",
          "name": "_newAddress",
          "type": "address"
        },
        {
          "internalType": "uint256",
          "name": "_currentYear",
          "type": "uint256"
        }
      ],
      "name": "issueIdCard",
      "outputs": [],
      "stateMutability": "nonpayable",
      "type": "function"
    },
    {
      "inputs": [
        {
          "internalType": "address",
          "name": "_studentAddress",
          "type": "address"
        },
        {
          "internalType": "uint256",
          "name": "_tokensNumber",
          "type": "uint256"
        }
      ],
      "name": "issueTokens",
      "outputs": [],
      "stateMutability": "nonpayable",
      "type": "function"
    },
    {
      "inputs": [
        {
          "internalType": "address",
          "name": "_whereToPay",
          "type": "address"
        },
        {
          "internalType": "uint256",
          "name": "_howMuchPay",
          "type": "uint256"
        }
      ],
      "name": "pay",
      "outputs": [],
      "stateMutability": "payable",
      "type": "function"
    },
    {
      "inputs": [
        {
          "internalType": "uint256",
          "name": "",
          "type": "uint256"
        }
      ],
      "name": "rewardsArray",
      "outputs": [
        {
          "internalType": "address",
          "name": "",
          "type": "address"
        }
      ],
      "stateMutability": "view",
      "type": "function"
    },
    {
      "inputs": [
        {
          "internalType": "uint256",
          "name": "",
          "type": "uint256"
        }
      ],
      "name": "transaction",
      "outputs": [
        {
          "internalType": "address",
          "name": "",
          "type": "address"
        }
      ],
      "stateMutability": "view",
      "type": "function"
    },
    {
      "inputs": [
        {
          "internalType": "address",
          "name": "",
          "type": "address"
        }
      ],
      "name": "vendorMap",
      "outputs": [
        {
          "internalType": "uint256",
          "name": "",
          "type": "uint256"
        }
      ],
      "stateMutability": "view",
      "type": "function"
    },
    {
      "inputs": [
        {
          "internalType": "address",
          "name": "",
          "type": "address"
        }
      ],
      "name": "yearMap",
      "outputs": [
        {
          "internalType": "uint256",
          "name": "",
          "type": "uint256"
        }
      ],
      "stateMutability": "view",
      "type": "function"
    }
  ],
  "bytecode": "0x60a060405234801561001057600080fd5b503373ffffffffffffffffffffffffffffffffffffffff1660808173ffffffffffffffffffffffffffffffffffffffff1681525050608051610eb2610067600039600081816103ca0152610a4a0152610eb26000f3fe6080604052600436106100c25760003560e01c8063532950f41161007f578063eb2ea05411610059578063eb2ea0541461027f578063ef203825146102a8578063f481345a146102e5578063f851a44014610322576100c2565b8063532950f4146101fd578063c40768761461023a578063e73b49b414610256576100c2565b806307bb67b6146100c75780630b5a006b14610104578063284028c21461012f5780633efab43f1461016c57806346bd084114610197578063475a9fa9146101d4575b600080fd5b3480156100d357600080fd5b506100ee60048036038101906100e99190610acf565b61034d565b6040516100fb9190610b15565b60405180910390f35b34801561011057600080fd5b50610119610365565b6040516101269190610b15565b60405180910390f35b34801561013b57600080fd5b5061015660048036038101906101519190610acf565b61036b565b6040516101639190610b15565b60405180910390f35b34801561017857600080fd5b50610181610383565b60405161018e9190610b15565b60405180910390f35b3480156101a357600080fd5b506101be60048036038101906101b99190610b5c565b610389565b6040516101cb9190610b98565b60405180910390f35b3480156101e057600080fd5b506101fb60048036038101906101f69190610bb3565b6103c8565b005b34801561020957600080fd5b50610224600480360381019061021f9190610b5c565b6104c8565b6040516102319190610b98565b60405180910390f35b610254600480360381019061024f9190610bb3565b610507565b005b34801561026257600080fd5b5061027d60048036038101906102789190610acf565b6108e3565b005b34801561028b57600080fd5b506102a660048036038101906102a19190610bb3565b610949565b005b3480156102b457600080fd5b506102cf60048036038101906102ca9190610acf565b6109d4565b6040516102dc9190610b15565b60405180910390f35b3480156102f157600080fd5b5061030c60048036038101906103079190610acf565b6109ec565b6040516103199190610c0e565b60405180910390f35b34801561032e57600080fd5b50610337610a48565b6040516103449190610b98565b60405180910390f35b60006020528060005260406000206000915090505481565b60045481565b60056020528060005260406000206000915090505481565b60025481565b6006818154811061039957600080fd5b906000526020600020016000915054906101000a900473ffffffffffffffffffffffffffffffffffffffff1681565b7f000000000000000000000000000000000000000000000000000000000000000073ffffffffffffffffffffffffffffffffffffffff163373ffffffffffffffffffffffffffffffffffffffff1614610456576040517f08c379a000000000000000000000000000000000000000000000000000000000815260040161044d90610cac565b60405180910390fd5b806000808473ffffffffffffffffffffffffffffffffffffffff1673ffffffffffffffffffffffffffffffffffffffff16815260200190815260200160002060008282546104a49190610cfb565b9250508190555080600260008282546104bd9190610d2f565b925050819055505050565b600381815481106104d857600080fd5b906000526020600020016000915054906101000a900473ffffffffffffffffffffffffffffffffffffffff1681565b60005b6003805490508110156108de576003818154811061052b5761052a610d63565b5b9060005260206000200160009054906101000a900473ffffffffffffffffffffffffffffffffffffffff1673ffffffffffffffffffffffffffffffffffffffff168373ffffffffffffffffffffffffffffffffffffffff160361063857816000803373ffffffffffffffffffffffffffffffffffffffff1673ffffffffffffffffffffffffffffffffffffffff16815260200190815260200160002060008282546105d69190610d2f565b9250508190555081600560008573ffffffffffffffffffffffffffffffffffffffff1673ffffffffffffffffffffffffffffffffffffffff168152602001908152602001600020600082825461062c9190610cfb565b925050819055506108cb565b60011515610645846109ec565b1515036108ca57600160003373ffffffffffffffffffffffffffffffffffffffff1673ffffffffffffffffffffffffffffffffffffffff16815260200190815260200160002054600160008573ffffffffffffffffffffffffffffffffffffffff1673ffffffffffffffffffffffffffffffffffffffff168152602001908152602001600020541461079857816000803373ffffffffffffffffffffffffffffffffffffffff1673ffffffffffffffffffffffffffffffffffffffff168152602001908152602001600020600082825461071f9190610d2f565b9250508190555060048260036107359190610d92565b61073f9190610e03565b6000808573ffffffffffffffffffffffffffffffffffffffff1673ffffffffffffffffffffffffffffffffffffffff168152602001908152602001600020600082825461078c9190610cfb565b925050819055506108c9565b600160003373ffffffffffffffffffffffffffffffffffffffff1673ffffffffffffffffffffffffffffffffffffffff16815260200190815260200160002054600160008573ffffffffffffffffffffffffffffffffffffffff1673ffffffffffffffffffffffffffffffffffffffff16815260200190815260200160002054036108c857816000803373ffffffffffffffffffffffffffffffffffffffff1673ffffffffffffffffffffffffffffffffffffffff168152602001908152602001600020600082825461086b9190610d2f565b92505081905550816000808573ffffffffffffffffffffffffffffffffffffffff1673ffffffffffffffffffffffffffffffffffffffff16815260200190815260200160002060008282546108c09190610cfb565b925050819055505b5b5b5b80806108d690610e34565b91505061050a565b505050565b6003819080600181540180825580915050600190039060005260206000200160009091909190916101000a81548173ffffffffffffffffffffffffffffffffffffffff021916908373ffffffffffffffffffffffffffffffffffffffff16021790555050565b60008060008473ffffffffffffffffffffffffffffffffffffffff1673ffffffffffffffffffffffffffffffffffffffff16815260200190815260200160002081905550806000808473ffffffffffffffffffffffffffffffffffffffff1673ffffffffffffffffffffffffffffffffffffffff168152602001908152602001600020819055505050565b60016020528060005260406000206000915090505481565b600080600160008473ffffffffffffffffffffffffffffffffffffffff1673ffffffffffffffffffffffffffffffffffffffff168152602001908152602001600020541115610a3e5760019050610a43565b600090505b919050565b7f000000000000000000000000000000000000000000000000000000000000000081565b600080fd5b600073ffffffffffffffffffffffffffffffffffffffff82169050919050565b6000610a9c82610a71565b9050919050565b610aac81610a91565b8114610ab757600080fd5b50565b600081359050610ac981610aa3565b92915050565b600060208284031215610ae557610ae4610a6c565b5b6000610af384828501610aba565b91505092915050565b6000819050919050565b610b0f81610afc565b82525050565b6000602082019050610b2a6000830184610b06565b92915050565b610b3981610afc565b8114610b4457600080fd5b50565b600081359050610b5681610b30565b92915050565b600060208284031215610b7257610b71610a6c565b5b6000610b8084828501610b47565b91505092915050565b610b9281610a91565b82525050565b6000602082019050610bad6000830184610b89565b92915050565b60008060408385031215610bca57610bc9610a6c565b5b6000610bd885828601610aba565b9250506020610be985828601610b47565b9150509250929050565b60008115159050919050565b610c0881610bf3565b82525050565b6000602082019050610c236000830184610bff565b92915050565b600082825260208201905092915050565b7f536f72727921206f6e6c792061646d696e2063616e20697373756520546f6b6560008201527f6e73000000000000000000000000000000000000000000000000000000000000602082015250565b6000610c96602283610c29565b9150610ca182610c3a565b604082019050919050565b60006020820190508181036000830152610cc581610c89565b9050919050565b7f4e487b7100000000000000000000000000000000000000000000000000000000600052601160045260246000fd5b6000610d0682610afc565b9150610d1183610afc565b9250828201905080821115610d2957610d28610ccc565b5b92915050565b6000610d3a82610afc565b9150610d4583610afc565b9250828203905081811115610d5d57610d5c610ccc565b5b92915050565b7f4e487b7100000000000000000000000000000000000000000000000000000000600052603260045260246000fd5b6000610d9d82610afc565b9150610da883610afc565b9250828202610db681610afc565b91508282048414831517610dcd57610dcc610ccc565b5b5092915050565b7f4e487b7100000000000000000000000000000000000000000000000000000000600052601260045260246000fd5b6000610e0e82610afc565b9150610e1983610afc565b925082610e2957610e28610dd4565b5b828204905092915050565b6000610e3f82610afc565b91507fffffffffffffffffffffffffffffffffffffffffffffffffffffffffffffffff8203610e7157610e70610ccc565b5b60018201905091905056fea264697066735822122092fb3d747d5497486f9be416af1e430ab734e1b9791cdd84aec283471184002664736f6c63430008110033",
  "linkReferences": {},
  "deployedLinkReferences": {}
}