{
  "_format": "hh-sol-artifact-1",
  "contractName": "Vendor",
  "sourceName": "contracts/Vendor.sol",
  "abi": [
    {
      "inputs": [],
      "name": "pay",
      "outputs": [
        {
          "internalType": "uint256",
          "name": "",
          "type": "uint256"
        }
      ],
      "stateMutability": "view",
      "type": "function"
    },
    {
      "inputs": [],
      "name": "receive_payment",
      "outputs": [],
      "stateMutability": "payable",
      "type": "function"
    },
    {
      "inputs": [],
      "name": "redeem",
      "outputs": [],
      "stateMutability": "nonpayable",
      "type": "function"
    },
    {
      "inputs": [],
      "name": "vendor_balance",
      "outputs": [
        {
          "internalType": "uint256",
          "name": "",
          "type": "uint256"
        }
      ],
      "stateMutability": "view",
      "type": "function"
    },
    {
      "inputs": [
        {
          "internalType": "address",
          "name": "vp",
          "type": "address"
        }
      ],
      "name": "vp_address",
      "outputs": [],
      "stateMutability": "nonpayable",
      "type": "function"
    },
    {
      "inputs": [
        {
          "internalType": "uint256",
          "name": "",
          "type": "uint256"
        }
      ],
      "name": "vp_array",
      "outputs": [
        {
          "internalType": "address",
          "name": "",
          "type": "address"
        }
      ],
      "stateMutability": "view",
      "type": "function"
    }
  ],
  "bytecode": "0x608060405234801561001057600080fd5b506105ad806100206000396000f3fe6080604052600436106100555760003560e01c8063134d866f1461005a5780631b9265b814610083578063441b053c146100ae57806387bb999f146100d9578063be040fb0146100e3578063c870fbad146100fa575b600080fd5b34801561006657600080fd5b50610081600480360381019061007c919061033c565b610137565b005b34801561008f57600080fd5b5061009861019d565b6040516100a59190610382565b60405180910390f35b3480156100ba57600080fd5b506100c36101a3565b6040516100d09190610382565b60405180910390f35b6100e16101a9565b005b3480156100ef57600080fd5b506100f8610298565b005b34801561010657600080fd5b50610121600480360381019061011c91906103c9565b61029a565b60405161012e9190610405565b60405180910390f35b6000819080600181540180825580915050600190039060005260206000200160009091909190916101000a81548173ffffffffffffffffffffffffffffffffffffffff021916908373ffffffffffffffffffffffffffffffffffffffff16021790555050565b60015481565b60025481565b60005b60008054905081101561027857600081815481106101cd576101cc610420565b5b9060005260206000200160009054906101000a900473ffffffffffffffffffffffffffffffffffffffff1673ffffffffffffffffffffffffffffffffffffffff163373ffffffffffffffffffffffffffffffffffffffff1603610265576040517f08c379a000000000000000000000000000000000000000000000000000000000815260040161025c906104ac565b60405180910390fd5b8080610270906104fb565b9150506101ac565b50346001819055506001546002546102909190610543565b600281905550565b565b600081815481106102aa57600080fd5b906000526020600020016000915054906101000a900473ffffffffffffffffffffffffffffffffffffffff1681565b600080fd5b600073ffffffffffffffffffffffffffffffffffffffff82169050919050565b6000610309826102de565b9050919050565b610319816102fe565b811461032457600080fd5b50565b60008135905061033681610310565b92915050565b600060208284031215610352576103516102d9565b5b600061036084828501610327565b91505092915050565b6000819050919050565b61037c81610369565b82525050565b60006020820190506103976000830184610373565b92915050565b6103a681610369565b81146103b157600080fd5b50565b6000813590506103c38161039d565b92915050565b6000602082840312156103df576103de6102d9565b5b60006103ed848285016103b4565b91505092915050565b6103ff816102fe565b82525050565b600060208201905061041a60008301846103f6565b92915050565b7f4e487b7100000000000000000000000000000000000000000000000000000000600052603260045260246000fd5b600082825260208201905092915050565b7f4f6820536f7272792120567027732063616e6e27742075736520746f6b656e73600082015250565b600061049660208361044f565b91506104a182610460565b602082019050919050565b600060208201905081810360008301526104c581610489565b9050919050565b7f4e487b7100000000000000000000000000000000000000000000000000000000600052601160045260246000fd5b600061050682610369565b91507fffffffffffffffffffffffffffffffffffffffffffffffffffffffffffffffff8203610538576105376104cc565b5b600182019050919050565b600061054e82610369565b915061055983610369565b9250828201905080821115610571576105706104cc565b5b9291505056fea26469706673582212205bd6f437d30b164bba2c5085c40e59bf923f5969df57a8c68d372b8f96387c8a64736f6c63430008110033",
  "linkReferences": {},
  "deployedLinkReferences": {}
}